:020000040800F2
:1000000000500020850D0008810C0008870C0008B6
:100010008D0C0008930C0008990C000800000000EB
:100020000000000000000000000000009F0C00081D
:10003000AB0C000800000000B70C0008C30C00085F
:10004000CD0D0008CD0D0008CD0D0008CD0D000828
:10005000CD0D0008CD0D0008CD0D0008CD0D000818
:10006000CD0D0008CD0D0008CD0D0008CD0D000808
:10007000CD0D0008CD0D0008CD0D0008CD0D0008F8
:10008000CD0D0008CD0D0008CD0D0008CD0D0008E8
:10009000CD0D0008CD0D0008CD0D0008CF0C0008D7
:1000A000CD0D0008CD0D0008CD0D0008CD0D0008C8
:1000B000E90C0008CD0D0008CD0D0008CD0D00089D
:1000C000CD0D0008CD0D0008CD0D0008CD0D0008A8
:1000D000CD0D0008CD0D0008CD0D0008CD0D000898
:1000E000FD0C0008CD0D0008CD0D0008000000003B
:1000F0000000000000000000000000000000000000
:0C01000000000000000000005FF808F1A3
:10010C0010B5054C237833B9044B13B10448AFF345
:10011C0000800123237010BD60000020000000004F
:10012C00682B000808B5034B1BB103490348AFF318
:10013C00008008BD0000000064000020682B00084F
:10014C0080B500AF00F03EFE00F00FF800F016F99D
:10015C0000F074F800F044F800F0BCF800F0E4F89B
:10016C0000F05FFC00F065FCFCE780B590B000AFE0
:10017C0007F1180328220021184602F063FC3B1DEE
:10018C0000221A605A609A60DA601A610223BB611D
:10019C000123BB621023FB6200237B6307F118036E
:1001AC00184601F0A7FA0346002B01D000F068F9BD
:1001BC000F237B600023BB600023FB6000233B61AB
:1001CC0000237B613B1D0021184601F015FD034601
:1001DC00002B01D000F054F900BF4037BD4680BD64
:1001EC0080B500AF124B134A1A60114B124A5A6079
:1001FC000F4B00229A600E4B0022DA600C4B4FF42E
:10020C0080421A610A4B00225A61094B00229A6102
:10021C00074B0022DA61064B00221A62044801F0F7
:10022C0025F90346002B01D000F02AF900BF80BD50
:10023C007C00002000540040A086010080B586B0F0
:10024C0000AF07F1080300221A605A609A60DA6066
:10025C003B4600221A605A601D4B4FF080421A60D8
:10026C001B4B07225A601A4B00229A60184B40F223
:10027C00E732DA60164B00221A61154B00229A61A4
:10028C00134801F047FE0346002B01D000F0F8F8AC
:10029C004FF48053BB6007F1080319460C4801F07A
:1002AC00E3FF0346002B01D000F0EAF800233B608B
:1002BC0000237B603B461946054802F0B9F903461A
:1002CC00002B01D000F0DCF800BF1837BD4680BD14
:1002DC00D000002080B500AF114B124A1A60104BB1
:1002EC004FF4E1325A600E4B00229A600C4B002204
:1002FC00DA600B4B00221A61094B0C225A61084B35
:10030C0000229A61064B0022DA61054802F000FADD
:10031C000346002B01D000F0B3F800BF80BD00BF36
:10032C00180100200038014080B500AF114B124A73
:10033C001A60104B4FF4E1325A600E4B00229A6057
:10034C000C4B0022DA600B4B00221A61094B0C2279
:10035C005A61084B00229A61064B0022DA6105486B
:10036C0002F0D6F90346002B01D000F089F800BF4B
:10037C0080BD00BF600100200044004080B588B003
:10038C0000AF07F1100300221A605A609A60DA601D
:10039C00364B9B69354A43F010039361334B9B6991
:1003AC0003F01003FB60FB68304B9B692F4A43F052
:1003BC00040393612D4B9B6903F00403BB60BB6882
:1003CC002A4B9B69294A43F008039361274B9B698D
:1003DC0003F008037B607B6800224FF40051244833
:1003EC0000F0FBFF00220F21224800F0F6FF4FF433
:1003FC0000533B6101237B610023BB610223FB6142
:10040C0007F1100319461A4800F04CFE4FF48753BD
:10041C003B61194B7B610123BB6107F1100319464A
:10042C00164800F03FFE0F233B6101237B61002344
:10043C00BB610223FB6107F1100319460D4800F064
:10044C0031FE00220021172000F0F5FD172000F0EE
:10045C000EFE00220021282000F0EDFD282000F0E7
:10046C0006FE00BF2037BD4680BD00BF0010024015
:10047C0000100140000C0140000021100008014058
:10048C0080B400AF72B600BFFEE7000080B582B04A
:10049C0000AF0346FB8000F0EDFC0346A04A13605E
:1004AC009F4B1A689F4B1B68D31A0A2B40F273811F
:1004BC009D4B4FF487521A609B4B00225A609A4B0B
:1004CC0001229A60984B0222DA609749974800F013
:1004DC00E9FD00220821964800F07FFF012204214B
:1004EC00934800F07AFF01220221914800F075FF39
:1004FC00012201218E4800F070FFFB88B3F5805F6C
:10050C000BD14FF48051894800F050FF0346002B6B
:10051C0003D1884B0F221A7028E0FB88802B0AD15C
:10052C008021824800F042FF0346002B03D1814B0F
:10053C000B221A701AE0FB88402B0AD140217B4811
:10054C0000F034FF0346002B03D17A4B07221A70BC
:10055C000CE0FB88202B09D12021744800F026FFE9
:10056C000346002B02D1734B03221A70012208217F
:10057C006F4800F032FF002204216D4800F02DFF7F
:10058C00012202216A4800F028FF0122012168485B
:10059C0000F023FFFB88B3F5805F0BD14FF4805143
:1005AC00624800F003FF0346002B03D1614B0E227F
:1005BC001A7028E0FB88802B0AD180215B4800F060
:1005CC00F5FE0346002B03D15A4B0A221A701AE08F
:1005DC00FB88402B0AD14021544800F0E7FE03462B
:1005EC00002B03D1534B06221A700CE0FB88202BF6
:1005FC0009D120214D4800F0D9FE0346002B02D131
:10060C004C4B02221A7001220821494800F0E5FEE9
:10061C0001220421464800F0E0FE00220221444859
:10062C0000F0DBFE01220121414800F0D6FEFB88E0
:10063C00B3F5805F0BD14FF480513C4800F0B6FE0F
:10064C000346002B03D13B4B0D221A7028E0FB888C
:10065C00802B0AD18021354800F0A8FE0346002BE0
:10066C0003D1344B09221A701AE0FB88402B0AD1B3
:10067C0040212E4800F09AFE0346002B03D12D4B4F
:10068C0005221A700CE0FB88202B09D12021274869
:10069C0000F08CFE0346002B02D1264B01221A706F
:1006AC0001220821224800F098FE01220421204852
:1006BC0000F093FE012202211D4800F08EFE002264
:1006CC0001211B4800F089FEFB88B3F5805F0BD13C
:1006DC004FF48051154800F069FE0346002B03D1FE
:1006EC00144B0C221A7034E0FB88802B0AD1802129
:1006FC000E4800F05BFE0346002B03D10D4B082285
:10070C001A7026E0FB88402B16D14021074800F0D8
:10071C004DFE0346002B0FD1064B04221A7018E035
:10072C00BC010020B8010020A801002000080140F5
:10073C00000C014000000020FB88202B09D1202157
:10074C00174800F033FE0346002B02D1154B002254
:10075C001A7000220821144800F03FFE00220421E8
:10076C00114800F03AFE002202210F4800F035FE3D
:10077C00002201210C4800F030FE0C4B0C4A5A6050
:10078C000A4B01229A600949054800F08BFC094B81
:10079C001B68094A136000BF0837BD4680BD00BF07
:1007AC000008014000000020000C0140A8010020BE
:1007BC0000002110BC010020B801002080B500AF62
:1007CC0000220821094800F008FE002204210748F5
:1007DC0000F003FE00220221044800F0FEFD00227E
:1007EC000121024800F0F9FD00BF80BD000C014062
:1007FC0080B400AF024B1B781846BD4680BC7047D6
:10080C000000002080B400AF034BFF221A7000BF21
:10081C00BD4680BC704700BF0000002080B582B090
:10082C0000AF0346FB80FB881846FFF72FFE00BF86
:10083C000837BD4680BD000080B500AF024801F00E
:10084C00B9FB00BF80BD00BFD000002080B582B0D6
:10085C0000AF78607B681A68044B1B689A4201D120
:10086C0000F068F800BF0837BD4680BDD0000020FE
:10087C0080B586B000AF78600B467B8013463B801A
:10088C000C2002F023F80346FB60FB687A681A60C0
:10089C00FB687A889A80FB683A88DA80FB680022C9
:1008AC009A60234B1B68002B04D1214AFB68136010
:1008BC00012339E01E4B1B687B611D4B1B683B61A0
:1008CC000CE0FB689A883B699B88D31A9AB2FB6848
:1008DC009A803B697B613B699B683B613B69002B60
:1008EC0005D0FB689A883B699B889A42E9D27A6961
:1008FC003B699A4206D07B69FA689A60FB683A6950
:10090C009A6005E0FB683A699A60094AFB681360D3
:10091C003B69002B07D03B699A88FB689B88D31AEC
:10092C009AB23B699A80012318461837BD4680BDA0
:10093C00C001002080B400AF094B1B68002B0BD00A
:10094C00074B1B689B88002B07D0054B1B689A88AC
:10095C00013A92B29A8000E000BFBD4680BC70475D
:10096C00C001002080B582B000AF78607B68002B9E
:10097C0003D0786801F0B2FF00E000BF0837BD4635
:10098C0080BD000080B582B000AF184B1B68002BF7
:10099C0001D1002326E0154B1B689B88002B20D12E
:1009AC00124B1B681B689847104B1B687B600F4BE6
:1009BC001B689B680D4A13607B6800229A607B68F9
:1009CC00DB88002B08D07B6818687B68D9887B682B
:1009DC00DB881A46FFF74CFF7868FFF7C3FF01234B
:1009EC0000E0002318460837BD4680BDC00100203A
:1009FC0080B500AF4FF40051024800F006FD00BF77
:100A0C0080BD00BF0010014080B500AFFFF7F0FEC5
:100A1C000346052B03D1FFF7EBFFFFF7F3FE00BFF7
:100A2C0080BD80B500AFFFF707FFFFF7C7FE00BF23
:100A3C0080BD80B500AFFFF7A5FFFFF7E5FF00BF56
:100A4C0080BD000080B485B000AF154B9B69144A83
:100A5C0043F001039361124B9B6903F00103BB60EC
:100A6C00BB680F4BDB690E4A43F08053D3610C4BD0
:100A7C00DB6903F080537B607B680A4B5B68FB602F
:100A8C00FB6823F0E063FB60FB6843F00073FB60E2
:100A9C00044AFB68536000BF1437BD4680BC7047E6
:100AAC00001002400000014080B588B000AF7860B3
:100ABC0007F1100300221A605A609A60DA607B68B2
:100ACC001B68154A934223D1144B9B69134A43F07C
:100ADC0008039361114B9B6903F00803FB60FB68EF
:100AEC00C0233B6112237B610323FB6107F11003DD
:100AFC0019460B4800F0D6FA084BDB69074A43F459
:100B0C000013D361054BDB6903F40013BB60BB68B6
:100B1C0000BF2037BD4680BD00540040001002408D
:100B2C00000C014080B584B000AF78607B681B6816
:100B3C00B3F1804F13D10C4BDB690B4A43F001032B
:100B4C00D361094BDB6903F00103FB60FB680022F6
:100B5C0000211C2000F06FFA1C2000F088FA00BF66
:100B6C001037BD4680BD00BF0010024080B58AB072
:100B7C0000AF786007F1180300221A605A609A607F
:100B8C00DA607B681B68374A934232D1364B9B69DB
:100B9C00354A43F480439361334B9B6903F48043A0
:100BAC007B617B69304B9B692F4A43F00403936153
:100BBC002D4B9B6903F004033B613B694FF40073BD
:100BCC00BB610223FB6103237B6207F11803194607
:100BDC00264800F067FA4FF48063BB610023FB6189
:100BEC0000233B6207F118031946204800F05AFA1B
:100BFC0034E07B681B681E4A93422FD11A4BDB6989
:100C0C00194A43F40033D361174BDB6903F4003307
:100C1C00FB60FB68144B9B69134A43F0040393611C
:100C2C00114B9B6903F00403BB60BB680423BB61DD
:100C3C000223FB6103237B6207F1180319460B485F
:100C4C0000F030FA0823BB610023FB6100233B62F8
:100C5C0007F118031946054800F024FA00BF28379D
:100C6C00BD4680BD00380140001002400008014024
:100C7C000044004080B400AFFEE780B400AFFEE754
:100C8C0080B400AFFEE780B400AFFEE780B400AFE5
:100C9C00FEE780B400AF00BFBD4680BC704780B497
:100CAC0000AF00BFBD4680BC704780B400AF00BF32
:100CBC00BD4680BC704780B500AF00F0C9F800BFDE
:100CCC0080BD80B500AF202000F0B8FB402000F0C4
:100CDC00B5FB802000F0B2FB00BF80BD80B500AF3B
:100CEC00024801F0B9F900BF80BD00BFD000002060
:100CFC0080B500AF4FF4805000F0A0FB00BF80BD6A
:100D0C0080B586B000AF7860144A154BD31A7B615E
:100D1C007B693B61134B1B68002B02D1114B124AB0
:100D2C001A60104B1A687B6813443A699A4207D2CE
:100D3C0001F0A0FE03460C221A604FF0FF3309E0CD
:100D4C00084B1B68FB60074B1A687B681344054A09
:100D5C001360FB6818461837BD4680BD0050002054
:100D6C0000040000C40100201803002080B400AF70
:100D7C0000BFBD4680BC7047FFF7F8FF0B480C491D
:100D8C000C4A002302E0D458C4500433C4188C42DB
:100D9C00F9D3094A094C002301E013600432A24242
:100DAC00FBD301F06DFEFFF7CBF97047000000207C
:100DBC0060000020B42B0008600000201403002009
:100DCC00FEE7000080B500AF084B1B68074A43F0F4
:100DDC0010031360032000F023F90F2000F008F833
:100DEC00FFF730FE0023184680BD00BF00200240F4
:100DFC0080B582B000AF7860124B1A68124B1B782A
:100E0C0019464FF47A73B3FBF1F3B2FBF3F31846C4
:100E1C0000F03BF90346002B01D001230EE07B6868
:100E2C000F2B0AD8002279684FF0FF3000F003F93D
:100E3C00064A7B681360002300E00123184608373C
:100E4C00BD4680BD040000200C00002008000020DE
:100E5C0080B400AF054B1B781A46054B1B68134436
:100E6C00034A136000BFBD4680BC70470C000020D5
:100E7C00C801002080B400AF024B1B681846BD4669
:100E8C0080BC7047C801002080B485B000AF78608A
:100E9C007B6803F00703FB600C4BDB68BB60BA6834
:100EAC004FF6FF031340BB60FB681A02BB68134389
:100EBC0043F0BF6343F40033BB60044ABB68D360A8
:100ECC0000BF1437BD4680BC704700BF00ED00E08A
:100EDC0080B400AF044BDB681B0A03F00703184611
:100EEC00BD4680BC704700BF00ED00E080B483B00D
:100EFC0000AF0346FB7197F90730002B0BDBFB7936
:100F0C0003F01F02064997F907305B09012000FA2C
:100F1C0002F241F8232000BF0C37BD4680BC70475D
:100F2C0000E100E080B483B000AF03463960FB7190
:100F3C0097F90730002B0ADB3B68DAB20C4997F9BA
:100F4C0007301201D2B20B4483F800230AE03B684D
:100F5C00DAB20849FB7903F00F03043B1201D2B259
:100F6C000B441A7600BF0C37BD4680BC704700BFDF
:100F7C0000E100E000ED00E080B489B000AFF86063
:100F8C00B9607A60FB6803F00703FB61FB69C3F18E
:100F9C000703042B28BF0423BB61FB690433062B16
:100FAC0002D9FB69033B00E000237B614FF0FF3269
:100FBC00BB6902FA03F3DA43BB681A407B699A40B7
:100FCC004FF0FF317B6901FA03F3D9437B680B4087
:100FDC00134318462437BD4680BC704780B582B099
:100FEC0000AF78607B68013BB3F1807F01D30123B4
:100FFC000FE00A4A7B68013B53600F214FF0FF3032
:10100C00FFF790FF054B00229A60044B07221A60F1
:10101C00002318460837BD4680BD00BF10E000E035
:10102C0080B582B000AF78607868FFF72DFF00BF05
:10103C000837BD4680BD80B586B000AF0346B960A9
:10104C007A60FB7300237B61FFF742FF78617A685B
:10105C00B9687869FFF790FF024697F90F3011468F
:10106C001846FFF75FFF00BF1837BD4680BD80B53F
:10107C0082B000AF0346FB7197F907301846FFF7B3
:10108C0035FF00BF0837BD4680BD80B582B000AFCC
:10109C0078607868FFF7A2FF034618460837BD460C
:1010AC0080BD000080B48BB000AF78603960002345
:1010BC007B6200233B6269E101227B6A02FA03F343
:1010CC00FB613B681B68FA691340BB61BA69FB6939
:1010DC009A4240F058813B685B689A4A93425ED0D2
:1010EC00984A934275D8984A934258D0964A93425C
:1010FC006FD8964A934252D0944A934269D8944AF4
:10110C0093424CD0924A934263D8924A934246D02F
:10111C00904A93425DD8122B2AD8122B59D801A28F
:10112C0052F823F0AB110008851100089711000844
:10113C00D9110008DF110008DF110008DF110008C9
:10114C00DF110008DF110008DF110008DF110008B3
:10115C00DF110008DF110008DF110008DF110008A3
:10116C00DF110008DF1100088D110008A111000823
:10117C00794A934213D02CE03B68DB683B6229E050
:10118C003B68DB6804333B6224E03B68DB68083374
:10119C003B621FE03B68DB680C333B621AE03B6848
:1011AC009B68002B02D104233B6213E03B689B68D5
:1011BC00012B05D108233B627B68FA691A6109E0AF
:1011CC0008233B627B68FA695A6103E000233B62A7
:1011DC0000E000BFBB69FF2B01D87B6801E07B6896
:1011EC0004337B61BB69FF2B02D87B6A9B0002E056
:1011FC007B6A083B9B003B617B691A680F213B694A
:10120C0001FA03F3DB431A40396A3B6901FA03F331
:10121C001A437B691A603B685B6803F08053002BB0
:10122C0000F0B1804D4B9B694C4A43F00103936134
:10123C004A4B9B6903F00103BB60BB68484A7B6A5D
:10124C009B08023352F82330FB607B6A03F00303E4
:10125C009B000F2202FA03F3DB43FA681340FB6096
:10126C007B68404A934213D07B683F4A93420DD02F
:10127C007B683E4A934207D07B683D4A934201D13A
:10128C00032306E0042304E0022302E0012300E030
:10129C0000237A6A02F0030292009340FA68134327
:1012AC00FB602F497B6A9B080233FA6841F82320C4
:1012BC003B685B6803F48013002B06D02D4B9A68B7
:1012CC002C49BB6913438B6006E02A4B9A68BB69B7
:1012DC00DB43284913408B603B685B6803F40013C5
:1012EC00002B06D0234BDA682249BB691343CB6031
:1012FC0006E0204BDA68BB69DB431E491340CB6028
:10130C003B685B6803F40033002B06D0194B5A681A
:10131C001849BB6913434B6006E0164B5A68BB690E
:10132C00DB43144913404B603B685B6803F4803328
:10133C00002B21D00F4B1A680E49BB6913430B606D
:10134C0021E000BF0000321000003110000022101C
:10135C0000002110000012100000111000100240BB
:10136C000000014000080140000C01400010014049
:10137C0000140140000401400B4B1A68BB69DB43AD
:10138C00094913400B607B6A01337B623B681A6826
:10139C007B6A22FA03F3002B7FF48EAE00BF00BFF2
:1013AC002C37BD4680BC70470004014080B485B02A
:1013BC0000AF78600B467B807B689A687B88134013
:1013CC00002B02D00123FB7301E00023FB73FB7B9A
:1013DC0018461437BD4680BC704780B483B000AF4C
:1013EC0078600B467B8013467B707B78002B03D098
:1013FC007A887B681A6103E07B881A047B681A611F
:10140C0000BF0C37BD4680BC704780B485B000AFC0
:10141C0078600B467B807B68DB68FB607A88FB68B6
:10142C0013401A04FB68D9437B880B401A437B6832
:10143C001A6100BF1437BD4680BC704780B582B0BE
:10144C0000AF0346FB80084B5A69FB881340002B06
:10145C0006D0054AFB885361FB881846FFF7DEF976
:10146C0000BF0837BD4680BD0004014080B584B084
:10147C0000AF78607B68002B01D101232BE17B68E6
:10148C0093F83D30DBB2002B06D17B68002283F849
:10149C003C207868FFF708FB7B68242283F83D200A
:1014AC007B681B681A687B681B6822F001021A6053
:1014BC007B681B681A687B681B6842F400421A60E0
:1014CC007B681B681A687B681B6822F400421A60F0
:1014DC0000F0DAFCF8607B685B68814A934207D8BD
:1014EC00FB68804A934294BF01230023DBB206E0E1
:1014FC00FB687D4A934294BF01230023DBB2002B8F
:10150C0001D00123E7E0FB68784AA2FB03239B0C84
:10151C00BB607B681B685B6823F03F017B681B68C2
:10152C00BA680A435A607B681B681B6A23F03F0148
:10153C007B685B686A4A934202D8BB68013309E056
:10154C00BB684FF4967202FB03F3694AA2FB0323B8
:10155C009B0901337A6812680B4313627B681B6822
:10156C00DB6923F44F4222F0FF027B685B685C4925
:10157C008B4219D8FB68591E7B685B685B00B1FB1A
:10158C00F3F3591C40F6FC730B40002B0AD0FB689C
:10159C00591E7B685B685B00B1FBF3F30133C3F34B
:1015AC000B0351E004234FE07B689B68002B11D1A7
:1015BC00FB68581E7B6859680B465B000B44B0FBFC
:1015CC00F3F30133C3F30B03002B0CBF01230023F4
:1015DC00DBB212E0FB68581E7B6859680B469B0017
:1015EC000B4499000B44B0FBF3F30133C3F30B032F
:1015FC00002B0CBF01230023DBB2002B01D00123F5
:10160C0022E07B689B68002B0ED1FB68581E7B6820
:10161C0059680B465B000B44B0FBF3F30133C3F387
:10162C000B0343F400430FE0FB68581E7B685968BA
:10163C000B469B000B4499000B44B0FBF3F30133B6
:10164C00C3F30B0343F44043796809681343CB613C
:10165C007B681B681B6823F0C0017B68DA697B68B8
:10166C001B6A1A437B681B680A431A607B681B68F9
:10167C009B6823F4034323F0FF037A6811697A68AB
:10168C00D26811437A6812680B4393607B681B68BD
:10169C00DB6823F0FF017B685A697B689B691A43FE
:1016AC007B681B680A43DA607B681B681A687B6876
:1016BC001B6842F001021A607B6800221A647B6886
:1016CC00202283F83D207B6800221A637B6800226D
:1016DC0083F83E20002318461037BD4680BD00BF5E
:1016EC00A08601007F841E00FF083D0083DE1B43A3
:1016FC00D34D621080B586B000AF78607B68002B4C
:10170C0001D1012372E27B681B6803F00103002BFB
:10171C0000F08780924B5B6803F00C03042B0CD019
:10172C008F4B5B6803F00C03082B12D18C4B5B685E
:10173C0003F48033B3F5803F0BD1894B1B6803F462
:10174C000033002B6CD07B685B68002B68D10123C5
:10175C004CE27B685B68B3F5803F06D1804B1B681D
:10176C007F4A43F4803313602EE07B685B68002B68
:10177C000CD17B4B1B687A4A23F480331360784B73
:10178C001B68774A23F4802313601DE07B685B6839
:10179C00B3F5A02F0CD1724B1B68714A43F4802314
:1017AC0013606F4B1B686E4A43F4803313600BE07D
:1017BC006B4B1B686A4A23F480331360684B1B68BD
:1017CC00674A23F4802313607B685B68002B13D07B
:1017DC00FFF750FB386108E0FFF74CFB02463B6912
:1017EC00D31A642B01D9032300E25D4B1B6803F46D
:1017FC000033002BF0D014E0FFF73CFB386108E01D
:10180C00FFF738FB02463B69D31A642B01D903233B
:10181C00ECE1534B1B6803F40033002BF0D100E0D8
:10182C0000BF7B681B6803F00203002B63D04C4B9A
:10183C005B6803F00C03002B0BD0494B5B6803F087
:10184C000C03082B1CD1464B5B6803F48033002B34
:10185C0016D1434B1B6803F00203002B05D07B68A9
:10186C001B69012B01D00123C0E13D4B1B6823F008
:10187C00F8027B685B69DB00394913430B603AE083
:10188C007B681B69002B20D0364B01221A60FFF7B6
:10189C00F1FA386108E0FFF7EDFA02463B69D31A1A
:1018AC00022B01D90323A1E12D4B1B6803F002038A
:1018BC00002BF0D02A4B1B6823F0F8027B685B6985
:1018CC00DB00274913430B6015E0264B00221A60FE
:1018DC00FFF7D0FA386108E0FFF7CCFA02463B6913
:1018EC00D31A022B01D9032380E11D4B1B6803F093
:1018FC000203002BF0D17B681B6803F00803002B5C
:10190C003AD07B689B69002B19D0174B01221A60C7
:10191C00FFF7B0FA386108E0FFF7ACFA02463B6912
:10192C00D31A022B01D9032360E10D4B5B6A03F040
:10193C000203002BF0D0012000F0CEFA1CE00A4B81
:10194C0000221A60FFF796FA38610FE0FFF792FA5F
:10195C0002463B69D31A022B08D9032346E100BF88
:10196C00001002400000424280044242924B5B6AEB
:10197C0003F00203002BE9D17B681B6803F004031E
:10198C00002B00F0A6800023FB758B4BDB6903F06A
:10199C008053002B0DD1884BDB69874A43F0805371
:1019AC00D361854BDB6903F08053BB60BB680123BB
:1019BC00FB75824B1B6803F48073002B18D17F4B93
:1019CC001B687E4A43F480731360FFF753FA386147
:1019DC0008E0FFF74FFA02463B69D31A642B01D992
:1019EC00032303E1754B1B6803F48073002BF0D0C9
:1019FC007B68DB68012B06D16F4B1B6A6E4A43F088
:101A0C00010313622DE07B68DB68002B0CD16A4B61
:101A1C001B6A694A23F001031362674B1B6A664A0F
:101A2C0023F0040313621CE07B68DB68052B0CD1EC
:101A3C00614B1B6A604A43F0040313625E4B1B6AE2
:101A4C005D4A43F0010313620BE05B4B1B6A5A4A7D
:101A5C0023F001031362584B1B6A574A23F004030B
:101A6C0013627B68DB68002B15D0FFF703FA386133
:101A7C000AE0FFF7FFF902463B69D31A41F28832BC
:101A8C00934201D90323B1E04B4B1B6A03F00203D1
:101A9C00002BEED014E0FFF7EDF938610AE0FFF708
:101AAC00E9F902463B69D31A41F28832934201D9D3
:101ABC0003239BE0404B1B6A03F00203002BEED187
:101ACC00FB7D012B05D13C4BDB693B4A23F080535A
:101ADC00D3617B68DB69002B00F08780364B5B6839
:101AEC0003F00C03082B61D07B68DB69022B46D119
:101AFC00334B00221A60FFF7BDF9386108E0FFF79D
:101B0C00B9F902463B69D31A022B01D903236DE0C4
:101B1C00294B1B6803F00073002BF0D17B681B6A08
:101B2C00B3F5803F08D1244B5B6823F400327B680B
:101B3C009B68214913434B601F4B5B6823F4741261
:101B4C007B68196A7B685B6A0B431B4913434B60C8
:101B5C001B4B01221A60FFF78DF9386108E0FFF783
:101B6C0089F902463B69D31A022B01D903233DE0C4
:101B7C00114B1B6803F00073002BF0D035E0104BB9
:101B8C0000221A60FFF776F9386108E0FFF772F966
:101B9C0002463B69D31A022B01D9032326E0064BDC
:101BAC001B6803F00073002BF0D11EE07B68DB692F
:101BBC00012B07D1012319E00010024000700040F6
:101BCC00600042420B4B5B68FB60FB6803F48032A5
:101BDC007B681B6A9A4206D1FB6803F470127B681F
:101BEC005B6A9A4201D0012300E0002318461837A3
:101BFC00BD4680BD0010024080B584B000AF786057
:101C0C0039607B68002B01D10123D0E06A4B1B6843
:101C1C0003F007033A689A4210D9674B1B6823F00C
:101C2C00070265493B6813430B60634B1B6803F069
:101C3C0007033A689A4201D00123B8E07B681B681D
:101C4C0003F00203002B20D07B681B6803F0040315
:101C5C00002B05D0594B5B68584A43F4E063536042
:101C6C007B681B6803F00803002B05D0534B5B68A3
:101C7C00524A43F460535360504B5B6823F0F002BC
:101C8C007B689B684D4913434B607B681B6803F072
:101C9C000103002B40D07B685B68012B07D1474BBD
:101CAC001B6803F40033002B15D101237FE07B6804
:101CBC005B68022B07D1414B1B6803F00073002BB0
:101CCC0009D1012373E03D4B1B6803F00203002B89
:101CDC0001D101236BE0394B5B6823F003027B6875
:101CEC005B68364913434B60FFF7C4F8F8600AE0B1
:101CFC00FFF7C0F80246FB68D31A41F288329342D0
:101D0C0001D9032353E02D4B5B6803F00C027B6875
:101D1C005B689B009A42EBD1274B1B6803F00703CF
:101D2C003A689A4210D2244B1B6823F007022249CE
:101D3C003B6813430B60204B1B6803F007033A68A6
:101D4C009A4201D0012332E07B681B6803F0040344
:101D5C00002B08D0194B5B6823F4E0627B68DB68CE
:101D6C00164913434B607B681B6803F00803002B78
:101D7C0009D0124B5B6823F460527B681B69DB0053
:101D8C000E4913434B6000F021F802460B4B5B6885
:101D9C001B0903F00F030A49CB5C22FA03F3094A2F
:101DAC001360094B1B681846FFF722F800231846EE
:101DBC001037BD4680BD00BF00200240001002401D
:101DCC00802B0008040000200800002080B487B09D
:101DDC0000AF0023FB600023BB6000237B6100236A
:101DEC007B6000233B611E4B5B68FB60FB6803F070
:101DFC000C03042B02D0082B03D027E0194B3B61BA
:101E0C0027E0FB689B0C03F00F03174AD35C7B6045
:101E1C00FB6803F48033002B10D0114B5B685B0C18
:101E2C0003F00103114AD35CBB607B680D4A03FBD2
:101E3C0002F2BB68B2FBF3F37B6104E07B680C4AF3
:101E4C0002FB03F37B617B693B6102E0054B3B6169
:101E5C0000BF3B6918461C37BD4680BC704700BFAD
:101E6C000010024000127A00982B0008A82B0008E2
:101E7C0000093D0080B400AF024B1B681846BD46FC
:101E8C0080BC70470400002080B500AFFFF7F2FF64
:101E9C000246054B5B681B0A03F007030349CB5C46
:101EAC0022FA03F3184680BD00100240902B000864
:101EBC0080B500AFFFF7DEFF0246054B5B68DB0A1F
:101ECC0003F007030349CB5C22FA03F3184680BDE9
:101EDC0000100240902B000880B485B000AF7860F1
:101EEC000A4B1B680A4AA2FB03235B0A7A6802FBB3
:101EFC0003F3FB6000BFFB685A1EFA60002BF9D19C
:101F0C0000BF00BF1437BD4680BC704704000020E2
:101F1C00D34D621080B582B000AF78607B68002B27
:101F2C0001D1012341E07B6893F83D30DBB2002BFB
:101F3C0006D17B68002283F83C207868FEF7F2FD1E
:101F4C007B68022283F83D207B681A687B68043327
:101F5C001946104600F074FA7B68012283F846207B
:101F6C007B68012283F83E207B68012283F83F20A6
:101F7C007B68012283F840207B68012283F8412092
:101F8C007B68012283F842207B68012283F843207E
:101F9C007B68012283F844207B68012283F845206A
:101FAC007B68012283F83D20002318460837BD4684
:101FBC0080BD000080B485B000AF78607B6893F87A
:101FCC003D30DBB2012B01D001233AE07B680222C9
:101FDC0083F83D207B681B68DA687B681B6842F0DD
:101FEC000102DA607B681B68184A93420ED07B684A
:101FFC001B68B3F1804F09D07B681B68144A93426D
:10200C0004D07B681B68134A934211D17B681B6810
:10201C009B6803F00703FB60FB68062B10D07B6802
:10202C001B681A687B681B6842F001021A6007E0A3
:10203C007B681B681A687B681B6842F001021A6097
:10204C00002318461437BD4680BC7047002C014055
:10205C00000400400008004080B582B000AF7860FA
:10206C007B681B681B6903F00203022B22D17B687F
:10207C001B68DB6803F00203022B1BD17B681B6817
:10208C006FF002021A617B6801221A777B681B6869
:10209C009B6903F00303002B03D0786800F0B4F9BC
:1020AC0005E0786800F0A7F9786800F0B6F97B686D
:1020BC0000221A777B681B681B6903F00403042B4E
:1020CC0022D17B681B68DB6803F00403042B1BD153
:1020DC007B681B686FF004021A617B6802221A7716
:1020EC007B681B689B6903F44073002B03D07868F2
:1020FC0000F08AF905E0786800F07DF9786800F066
:10210C008CF97B6800221A777B681B681B6903F0CB
:10211C000803082B22D17B681B68DB6803F00803DB
:10212C00082B1BD17B681B686FF008021A617B6857
:10213C0004221A777B681B68DB6903F00303002B0E
:10214C0003D0786800F060F905E0786800F053F986
:10215C00786800F062F97B6800221A777B681B684C
:10216C001B6903F01003102B22D17B681B68DB6802
:10217C0003F01003102B1BD17B681B686FF010024F
:10218C001A617B6808221A777B681B68DB6903F489
:10219C004073002B03D0786800F036F905E07868BE
:1021AC0000F029F9786800F038F97B6800221A777A
:1021BC007B681B681B6903F00103012B0ED17B6844
:1021CC001B68DB6803F00103012B07D17B681B68DC
:1021DC006FF001021A617868FEF738FB7B681B68A8
:1021EC001B6903F08003802B0ED17B681B68DB68B6
:1021FC0003F08003802B07D17B681B686FF0800293
:10220C001A61786800F07BFA7B681B681B6903F025
:10221C004003402B0ED17B681B68DB6803F0400346
:10222C00402B07D17B681B686FF040021A617868FD
:10223C0000F0FCF87B681B681B6903F02003202B63
:10224C000ED17B681B68DB6803F02003202B07D1C1
:10225C007B681B686FF020021A61786800F046FA00
:10226C0000BF0837BD4680BD80B584B000AF786034
:10227C0039600023FB737B6893F83C30012B01D150
:10228C000223B4E07B68012283F83C207B680222A5
:10229C0083F83D207B681B689B68BB60BB6823F0A0
:1022AC007703BB60BB6823F47F43BB607B681B6810
:1022BC00BA689A603B681B68B3F5005F3ED0B3F513
:1022CC00005F00F28780B3F5805F00F08680B3F585
:1022DC00805F7FD8702B1AD0702B7BD8602B50D09E
:1022EC00602B77D8502B3CD0502B73D8402B58D028
:1022FC00402B6FD8302B64D0302B6BD8202B60D078
:10230C00202B67D8002B5CD0102B5AD062E07B6856
:10231C0018683B6899683B685A683B68DB6800F052
:10232C0068F97B681B689B68BB60BB6843F07703EC
:10233C00BB607B681B68BA689A604FE07B68186862
:10234C003B6899683B685A683B68DB6800F051F958
:10235C007B681B689A687B681B6842F480429A60B1
:10236C003CE07B6818683B6859683B68DB681A4638
:10237C0000F0C8F87B681B685021184600F01FF964
:10238C002CE07B6818683B6859683B68DB681A4628
:10239C0000F0E6F87B681B686021184600F00FF926
:1023AC001CE07B6818683B6859683B68DB681A4618
:1023BC0000F0A8F87B681B684021184600F0FFF875
:1023CC000CE07B681A683B681B681946104600F0E5
:1023DC00F6F803E00123FB7300E000BF7B680122E9
:1023EC0083F83D207B68002283F83C20FB7B184659
:1023FC001037BD4680BD80B483B000AF786000BF9D
:10240C000C37BD4680BC704780B483B000AF786099
:10241C0000BF0C37BD4680BC704780B483B000AFA2
:10242C00786000BF0C37BD4680BC704780B483B069
:10243C0000AF786000BF0C37BD4680BC7047000011
:10244C0080B485B000AF786039607B681B68FB6036
:10245C007B68294A93420BD07B68B3F1804F07D03D
:10246C007B68264A934203D07B68254A934208D165
:10247C00FB6823F07003FB603B685B68FA681343EE
:10248C00FB607B681C4A93420BD07B68B3F1804F96
:10249C0007D07B68194A934203D07B68184A934251
:1024AC0008D1FB6823F44073FB603B68DB68FA6877
:1024BC001343FB60FB6823F080023B685B691343AA
:1024CC00FB607B68FA681A603B689A687B68DA6222
:1024DC003B681A687B689A627B68074A934203D10F
:1024EC003B681A697B681A637B6801225A6100BFDA
:1024FC001437BD4680BC7047002C014000040040DE
:10250C000008004080B487B000AFF860B9607A6012
:10251C00FB681B6A7B61FB681B6A23F00102FB688A
:10252C001A62FB689B693B613B6923F0F0033B61DA
:10253C007B681B013A6913433B617B6923F00A03F7
:10254C007B617A69BB6813437B61FB683A699A616A
:10255C00FB687A691A6200BF1C37BD4680BC7047A5
:10256C0080B487B000AFF860B9607A60FB681B6A12
:10257C007B61FB681B6A23F01002FB681A62FB6824
:10258C009B693B613B6923F470433B617B681B0394
:10259C003A6913433B617B6923F0A0037B61BB6801
:1025AC001B017A6913437B61FB683A699A61FB688A
:1025BC007A691A6200BF1C37BD4680BC704780B474
:1025CC0085B000AF786039607B689B68FB60FB6806
:1025DC0023F07003FB603A68FB68134343F0070376
:1025EC00FB607B68FA689A6000BF1437BD4680BCFC
:1025FC00704780B487B000AFF860B9607A603B6018
:10260C00FB689B687B617B6923F47F437B613B6840
:10261C001A027B681A43BB6813437A6913437B61C4
:10262C00FB687A699A6000BF1C37BD4680BC704756
:10263C0080B485B000AF786039607B6893F83C302B
:10264C00012B01D1022346E07B68012283F83C2058
:10265C007B68022283F83D207B681B685B68FB600B
:10266C007B681B689B68BB60FB6823F07003FB6096
:10267C003B681B68FA681343FB607B681B68FA684D
:10268C005A607B681B68164A93420ED07B681B68A5
:10269C00B3F1804F09D07B681B68124A934204D077
:1026AC007B681B68104A93420CD1BB6823F08003F3
:1026BC00BB603B685B68BA681343BB607B681B6894
:1026CC00BA689A607B68012283F83D207B680022FF
:1026DC0083F83C20002318461437BD4680BC704755
:1026EC00002C0140000400400008004080B483B07E
:1026FC0000AF786000BF0C37BD4680BC704780B41B
:10270C0083B000AF786000BF0C37BD4680BC70470B
:10271C0080B582B000AF78607B68002B01D10123BB
:10272C0042E07B6893F84130DBB2002B06D17B682A
:10273C00002283F840207868FEF718FA7B68242280
:10274C0083F841207B681B68DA687B681B6822F47D
:10275C000052DA60786800F02BF87B681B681A6905
:10276C007B681B6822F490421A617B681B685A696B
:10277C007B681B6822F02A025A617B681B68DA6846
:10278C007B681B6842F40052DA607B6800225A6452
:10279C007B68202283F841207B68202283F842202A
:1027AC007B6800225A63002318460837BD4680BD5B
:1027BC0080B584B000AF78607B681B681B6923F41C
:1027CC0040517B68DA687B681B680A431A617B6836
:1027DC009A687B681B691A437B685B691343BB600F
:1027EC007B681B68DB6823F4B05323F00C037A6816
:1027FC001268B9680B43D3607B681B685B6923F470
:10280C0040717B689A697B681B680A435A617B68D4
:10281C001B682C4A934203D1FFF74AFBF86002E095
:10282C00FFF732FBF860FA6813469B0013449A00DA
:10283C001A447B685B689B00B2FBF3F3224AA2FB51
:10284C0003235B091901FA6813469B0013449A0091
:10285C001A447B685B689B00B2FBF3F21A4BA3FB38
:10286C0002035B09642000FB03F3D31A1B01323310
:10287C00154AA2FB03235B0903F0F0031944FA6821
:10288C0013469B0013449A001A447B685B689B00B8
:10289C00B2FBF3F20C4BA3FB02035B09642000FBBD
:1028AC0003F3D31A1B013233074AA2FB03235B0940
:1028BC0003F00F027B681B680A449A6000BF103754
:1028CC00BD4680BD003801401F85EB51024B0146CF
:1028DC00186800F02BB800BF5C000020024B0146CA
:1028EC00186800F0F3B800BF5C00002070B50E4E05
:1028FC000C463168054611B900F0ACF83060214641
:10290C00284600F0A7F8431C0AD0C41C24F003048A
:10291C00A04207D0211A284600F09CF8013001D1C2
:10292C004FF0FF34204670BDD00100202DE9F84354
:10293C00CD1C25F0030508350C2D38BF0C25002DBA
:10294C00074601DBA94205D90C2300263B60304623
:10295C00BDE8F883DFF8D08000F068F8D8F80030D4
:10296C001C465CBB29463846FFF7C0FF431C044697
:10297C0055D1D8F800402646002E45D1002C48D021
:10298C0023683146384604EB030900F063F88145AF
:10299C003FD1216838466D1A2946FFF7A7FF013051
:1029AC0037D023682B442360D8F80030002B38D064
:1029BC005A68A2422BD100225A600FE02268521BA7
:1029CC001FD40B2A17D96119A342256018BF59606F
:1029DC00636808BFC8F8001062514B60384604F1B8
:1029EC000B0600F029F826F00706231DF21AAED0CC
:1029FC009B1BA350ABE7A3426268DDD1C8F8002053
:102A0C00ECE723466468ACE734467668B4E71346D3
:102A1C00CCE70C2338463B6000F00EF897E72560B6
:102A2C00DCE75B60FFDE00BFCC010020014800F05A
:102A3C004BB800BF10030020014800F046B800BF9F
:102A4C001003002003460244934200D1704703F860
:102A5C00011BF9E738B50023054D044608462B60E9
:102A6C00FEF74EF9431C02D12B6803B1236038BD2D
:102A7C000C030020014B1868704700BF5C0000205D
:102A8C0070B500260C4D0D4C641BA410A64209D148
:102A9C0000F064F800260A4D0A4C641BA410A642F0
:102AAC0005D170BD55F8043B98470136EEE755F853
:102ABC00043B98470136F2E7AC2B0008AC2B00081E
:102ACC00AC2B0008B02B00087047704738B5054692
:102ADC00002940D051F8043C0C1F002BB8BFE4185F
:102AEC00FFF7A4FF1C4A136833B9636014602846CF
:102AFC00BDE83840FFF7A0BFA34208D920682118D1
:102B0C008B4201BF19685B6809182160EDE71A4612
:102B1C005B680BB1A342FAD911685018A0420BD1D3
:102B2C0020680144501883421160E0D118685B683A
:102B3C00084410605360DAE702D90C232B60D6E707
:102B4C00206821188B4201BF19685B680918216045
:102B5C0063605460CBE738BDCC010020F8B500BFF2
:102B6C00F8BC08BC9E467047F8B500BFF8BC08BC62
:042B7C009E467047BA
:102B8000000000000000000001020304060708091D
:102B900000000000010203040203040506070809FF
:0C2BA0000A0B0C0D0E0F101001020000BB
:042BAC0031010008EB
:042BB0000D0100080B
:102BB400FF0000000024F4001000000001000000E9
:102BC40000000000D40100203C020020A4020020E8
:102BD40000000000000000000000000000000000F1
:102BE40000000000000000000000000000000000E1
:102BF40000000000000000000000000000000000D1
:102C04000000000000000000000000001000002090
:0400000508000D855D
:00000001FF
