:020000040800F2
:10000000005000204116000851150008571500083F
:100010005D15000863150008691500080000000060
:100020000000000000000000000000006F15000844
:100030007B150008000000008715000893150008D4
:100040008916000889160008891600088916000814
:100050008916000889160008891600088916000804
:1000600089160008891600088916000889160008F4
:1000700089160008891600088916000889160008E4
:1000800089160008891600088916000889160008D4
:1000900089160008891600088916000889160008C4
:1000A00089160008891600088916000889160008B4
:1000B000A11500088916000889160008891600088D
:1000C0008916000889160008891600088916000894
:1000D00089160008B5150008891600088916000859
:1000E000891600088916000889160008000000001B
:1000F0000000000000000000000000000000000000
:0C01000000000000000000005FF808F1A3
:10010C0010B5054C237833B9044B13B10448AFF345
:10011C0000800123237010BD70000020000000003F
:10012C00CC4B000808B5034B1BB103490348AFF394
:10013C00008008BD0000000074000020CC4B0008BB
:10014C0010F8012B11F8013B012A28BF9A42F7D075
:10015C00D01A704780B500AF01F092FA00F00FF89A
:10016C0000F016F900F074F800F044F800F0BCF858
:10017C0000F0E4F801F0A6F801F0BEF8FCE780B559
:10018C0090B000AF07F1180328220021184604F0A4
:10019C0029F93B1D00221A605A609A60DA601A61D4
:1001AC000223BB610123BB621023FB6200237B6330
:1001BC0007F11803184602F0F9FA0346002B01D098
:1001CC0000F062F90F237B600023BB600023FB600F
:1001DC0000233B6100237B613B1D0021184602F08C
:1001EC0067FD0346002B01D000F04EF900BF4037ED
:1001FC00BD4680BD80B500AF124B134A1A60114B3F
:10020C00124A5A600F4B00229A600E4B0022DA60A1
:10021C000C4B4FF480421A610A4B00225A61094B75
:10022C0000229A61074B0022DA61064B00221A6207
:10023C00044801F01FFE0346002B01D000F024F906
:10024C0000BF80BD8C00002000540040A08601003F
:10025C0080B586B000AF07F1080300221A605A601F
:10026C009A60DA603B4600221A605A601D4B4FF0D0
:10027C0080421A601B4B07225A601A4B00229A606C
:10028C00184B40F2E732DA60164B00221A61154B1C
:10029C0000229A61134802F099FE0346002B01D00C
:1002AC0000F0F2F84FF48053BB6007F108031946D5
:1002BC000C4803F035F80346002B01D000F0E4F8AD
:1002CC0000233B6000237B603B461946054803F046
:1002DC000BFA0346002B01D000F0D6F800BF1837FC
:1002EC00BD4680BDE000002080B500AF114B124A26
:1002FC001A60104B4FF4E1325A600E4B00229A6098
:10030C000C4B0022DA600B4B00221A61094B0C22B9
:10031C005A61084B00229A61064B0022DA610548AB
:10032C0003F052FA0346002B01D000F0ADF800BFE9
:10033C0080BD00BF280100200038014080B500AF0F
:10034C00114B124A1A60104B4FF4E1325A600E4BAB
:10035C0000229A600C4B0022DA600B4B00221A61CF
:10036C00094B0C225A61084B00229A61064B002261
:10037C00DA61054803F028FA0346002B01D000F09F
:10038C0083F800BF80BD00BF700100200044004016
:10039C0080B588B000AF07F1100300221A605A60D4
:1003AC009A60DA60344B9B69334A43F010039361D3
:1003BC00314B9B6903F01003FB60FB682E4B9B6970
:1003CC002D4A43F0040393612B4B9B6903F0040308
:1003DC00BB60BB68284B9B69274A43F008039361B9
:1003EC00254B9B6903F008037B607B6800224FF46C
:1003FC000051224801F025FD002240F60241204820
:10040C0001F01FFD4FF400533B6101237B6100237E
:10041C00BB610223FB6107F110031946174801F079
:10042C0075FB10233B6100237B610123BB6107F14A
:10043C0010031946134801F069FB01233B610023AB
:10044C007B610123BB6107F1100319460C4801F0D5
:10045C005DFB40F602433B6101237B610023BB61E2
:10046C000223FB6107F110031946054801F04EFB0E
:10047C0000BF2037BD4680BD001002400010014077
:10048C00000C01400008014080B400AF72B600BF00
:10049C00FEE780B483B000AF0346FB71FB799B0889
:1004AC00DAB2FB7903F00303DBB21344DAB2FB7963
:1004BC009B08DBB25B00DBB21344DBB20133DBB273
:1004CC0018460C37BD4680BC7047000080B500AFA5
:1004DC00294B1B78052B4CD801A252F823F000BFF6
:1004EC000505000809050008130500083B05000870
:1004FC00650500082705000800F0B2F900F03AFD88
:10050C0000F042F835E000F0F5F90346002B01D07D
:10051C0000F0A6F900F038F82BE000F0EBF90346F8
:10052C00002B01D000F09CF900F02EF821E0134BC9
:10053C001B78032B08D9124B01221A70114B052280
:10054C001A800E4B00221A7000F0D4F90346002BCF
:10055C000CD000F085F909E000F000FD00F0CAF9BC
:10056C000346002B04D000F07BF901E000BF00E053
:10057C0000BF00BF80BD00BFB8010020B901002042
:10058C00BA0100200000002080B582B000AF00F05E
:10059C0095FA0346BB71BB790F2B00F2F18001A2D7
:1005AC0052F823F0F1050008F1050008F1050008E8
:1005BC008D070008F1050008F1050008F105000899
:1005CC008D070008F1050008F1050008F105000889
:1005DC00CB0600088D070008F1050008FB06000893
:1005EC008D0700086D4B1B78052B37D0052B60DC75
:1005FC00012B02D0022B16D05BE0BB790D2B02D164
:10060C000023FB7105E0BB791846FFF742FF034658
:10061C00FB71FB79184600F0DBFC0346002B4AD03B
:10062C0000F008F947E0BB790D2B02D10023FB71D8
:10063C0005E0BB791846FFF72CFF0346FB71FB79ED
:10064C00184600F0C5FC0346002B04D000F01CF942
:10065C0000F064FA32E000F0CFF82FE0BB790D2BFC
:10066C0002D10023FB7105E0BB791846FFF711FF9F
:10067C000346FB714A4B1B78002B0BD0FB791846B9
:10068C0000F084FC0346002B17D000F0FDF800F0BE
:10069C0085FA12E0FB79184600F09AFC0346002B11
:1006AC0004D000F0F1F800F039FA06E000F0A4F8FC
:1006BC0003E000BF67E000BF65E000BF63E0374BBD
:1006CC001B78012B5ED100F0DFF83649364800F07C
:1006DC0043FB4FF47A720021344800F003FD304B99
:1006EC0001221A702D4B02221A7000BF4AE02B4BCC
:1006FC001B78022B02D0052B1BD044E000F0ACFC85
:10070C000346002B02D100F077F838E0244B1B781D
:10071C00002B0BD000F0B8F82249254800F01CFB48
:10072C0000F0ACFC1D4B05221A7028E000F048F8D4
:10073C0025E01B4B1B78002B09D01A491D4800F0F3
:10074C000BFB00F09BFC164B00221A7016E000F01D
:10075C0071FC0346002B0FD000F09CFC00F080F8DD
:10076C0000220021144800F0BDFC00224FF47A71E5
:10077C00124800F0B7FC01E000F03EF800BF02E0C8
:10078C0000BF00E000BFBB79FF2B03D0BB7918463C
:10079C0000F0B0F900BF0837BD4680BDB80100209D
:1007AC00BB010020E44B0008E84B0008AD08000832
:1007BC00F84B0008084C0008790B0008910B000856
:1007CC0080B500AF0749084800F0C6FA074B0A226B
:1007DC001A80074B00221A70064B04221A7000BFB5
:1007EC0080BD00BFE44B0008144C00080000002042
:1007FC00B9010020B801002080B500AF084B0122E0
:10080C001A80084B1B780133DAB2064B1A70064972
:10081C00064800F0A1FA064B03221A7000BF80BDF7
:10082C0000000020B9010020244C0008344C0008C2
:10083C00B801002080B500AF00F026F800F06EF98A
:10084C004FF47A720021044800F04CFC034B022256
:10085C001A7000BF80BD00BFAD080008B8010020B1
:10086C0080B500AF00F00AFC0449054800F074FAAA
:10087C00044B01221A7000BF80BD00BF444C00081D
:10088C00544C0008B801002080B400AF034B0F2279
:10089C001A8000BFBD4680BC704700BF000000201E
:1008AC0080B586B000AF0F4B1B78012B0CD10E4BD3
:1008BC001B881A463B1D0D49184603F073FD3B1D62
:1008CC0019460B4800F048FA074B1B88002B05D043
:1008DC00054B1B88013B9AB2034B1A8000BF18379B
:1008EC00BD4680BDBA01002000000020644C000809
:1008FC00704C000880B500AF0B4B1B88002B0FD140
:10090C000A4B1B78012B06D1094B1B78032B02D108
:10091C00064B00221A70074800F0A4FC012300E0EB
:10092C000023184680BD00BF00000020BA01002043
:10093C00B8010020AD08000880B500AF0A2000F017
:10094C00E7FA094B1B88002B05D0074B1B88013B92
:10095C009AB2054B1A80044B1B88002B01D1012342
:10096C0000E00023184680BD0200002080B500AFD7
:10097C00134B41F288321A8006E0FFF7DDFF034685
:10098C00002B01D0002319E001210E4801F042FA9E
:10099C000346002BF1D106E0FFF7CEFF0346002BF8
:1009AC0001D000230AE00121064801F033FA034686
:1009BC00002BF1D00A2000F0ABFA0123184680BDC1
:1009CC0002000020000C014080B584B000AF03464B
:1009DC00FB7100220221164801F033FA022000F0CC
:1009EC0097FA0121124801F015FA0346002B0CBFAF
:1009FC0001230023DBB2FB73FB7B002B04D1FB79BF
:100A0C000C4A0021D15406E0FB790A4AD25C01322F
:100A1C00D1B2084AD15401220221054801F011FA41
:100A2C00022000F075FA00BF1037BD4680BD00BF34
:100A3C00000C0140BC01002080B582B000AF002347
:100A4C00FB7106E0FB791846FFF7BEFFFB7901331B
:100A5C00FB71FB790F2BF5D9022000F073FE00BF60
:100A6C000837BD4680BD000080B582B000AF0023C2
:100A7C00FB7106E0FB79094A0021D154FB79013363
:100A8C00FB71FB790F2BF5D901220221044801F0EF
:100A9C00D8F900BF0837BD4680BD00BFBC0100209F
:100AAC00000C014080B500AFFFF760FF0346002B40
:100ABC0001D0FFF7C1FF00BF80BD000080B483B040
:100ACC0000AF0023FB7109E0FB79094AD35C002BD2
:100ADC0001D0FB7906E0FB790133FB71FB790E2B1E
:100AEC00F2D9FF2318460C37BD4680BC704700BFB7
:100AFC00BC01002080B483B000AF0346FB71FB79CE
:100B0C000F2B04D8FB79044A0021D15400E000BF1C
:100B1C000C37BD4680BC7047BC01002080B586B048
:100B2C0000AF0023FB7508E0FB7D18333B442A2201
:100B3C0003F8182CFB7D0133FB7500F071FA0346AA
:100B4C001A46FB7D9342EFD3FB7D18333B440022C6
:100B5C0003F8182C3B461946034800F0FDF800BF7B
:100B6C001837BD4680BD00BF7C4C000880B500AF77
:100B7C000249034800F0F0F800BF80BD804C00082B
:100B8C00904C000880B500AF0249034800F0E4F82F
:100B9C0000BF80BD9C4C0008AC4C000880B586B0F2
:100BAC0000AF0023FB7508E0FB7D18333B442A2281
:100BBC0003F8182CFB7D0133FB7500F031FA03466A
:100BCC001A46FB7D9342EFD3FB7D18333B44002246
:100BDC0003F8182C3B461946034800F0BDF800BF3B
:100BEC001837BD4680BD00BFBC4C000880B500AFB7
:100BFC00304B02221A70304B08221A702F4B0822ED
:100C0C001A7000F05DF9322000F09CFD2A4B1B7825
:100C1C00184600F01BF94FF47A7000F093FD302069
:100C2C0000F003F941F2941000F072F9302000F05A
:100C3C00FCF841F2941000F06BF9302000F0F5F85C
:100C4C0041F2941000F064F9202000F0EEF86420DA
:100C5C0000F05EF9194B1B7843F02003DBB2184609
:100C6C0000F0A6F8164B04221A70154B1B7843F0B3
:100C7C000403DAB2124B1A70114B1B7843F00803C1
:100C8C00DBB2184600F094F800F01EF80D4B02226F
:100C9C001A700C4B1B7843F00403DBB2184600F0BF
:100CAC0087F841F2941000F033F900F018F800BF07
:100CBC0080BD00BFCF010020D0010020CC0100205E
:100CCC00CD010020CE01002080B500AF012000F046
:100CDC006FF84FF4FA6000F01BF900BF80BD80B5CF
:100CEC0000AF022000F064F84FF4FA6000F010F945
:100CFC0000BF80BD90B587B000AF03460A46FB71BC
:100D0C001346BB71124B07F108040FCB84E80F009C
:100D1C00104B1B78BA799A4203D30E4B1B78013BCC
:100D2C00BB71BB799B0018333B4453F8103CDAB2CF
:100D3C00FB791344DBB25BB263F07F035BB2DBB2D3
:100D4C00184600F035F800BF1C37BD4690BD00BFFB
:100D5C00CC4C0008CF01002080B582B000AF786089
:100D6C003960FFF7B1FF00210020FFF7C3FF06E059
:100D7C007B685A1C7A601B78184600F027F87B6851
:100D8C001B78002BF4D101210020FFF7B3FF06E004
:100D9C003B685A1C3A601B78184600F017F83B6801
:100DAC001B78002BF4D100BF00BF0837BD4680BDB7
:100DBC0080B582B000AF0346FB71FB790021184669
:100DCC0000F012F800BF0837BD4680BD80B582B078
:100DDC0000AF0346FB71FB790121184600F004F8C3
:100DEC0000BF0837BD4680BD80B584B000AF034658
:100DFC000A46FB711346BB71FB7923F00F03FB739F
:100E0C00FB791B01BB73FA7BBB791343DBB218462E
:100E1C0000F00BF8BA7BBB791343DBB2184600F039
:100E2C0004F800BF1037BD4680BD80B582B000AF5E
:100E3C000346FB71FB79184600F008F8FB7918465D
:100E4C0000F020F800BF0837BD4680BD80B586B0E5
:100E5C0002AF0346FB71094B1A78FB791343DBB2E3
:100E6C00FB7307F10F020A23009301237E21044830
:100E7C0001F044F900BF1037BD4680BDD001002001
:100E8C008C00002080B582B000AF0346FB71FB796B
:100E9C0043F00403DBB21846FFF7D8FF142000F030
:100EAC0037F8FB7923F00403DBB21846FFF7CEFFCB
:100EBC00142000F02DF800BF0837BD4680BD00009F
:100ECC0080B400AF104BDB680F4A23F08073D36003
:100EDC000D4BDB680C4A43F08073D3600B4B1B68E3
:100EEC000A4A23F001031360084B1B68074A43F0BE
:100EFC0001031360054B00225A6000BF00BF00BF06
:100F0C0000BFBD4680BC7047F0ED00E0001000E073
:100F1C0080B487B000AF78600D4B1B680D4AA2FB04
:100F2C0003239A0C7B6802FB03F37B610A4B5B681F
:100F3C003B61094B5A683B69D31AFB60FB687A69C1
:100F4C009A42F6D800BF00BF1C37BD4680BC704724
:100F5C001400002083DE1B43001000E080B500AFBE
:100F6C0001224FF40061024800F06BFF00BF80BD0E
:100F7C00000C014080B500AF00224FF40061024824
:100F8C0000F05FFF00BF80BD000C014080B483B057
:100F9C0000AF0346FB710C4B1B78042B01D90023CB
:100FAC000CE0094B1B785A1CD1B2074A11701A4637
:100FBC00FB793033D9B2054B9954012318460C37C1
:100FCC00BD4680BC704700BFE50100200C0000202E
:100FDC0080B483B000AF0346FB710F4B1B780F2B13
:100FEC0001D9002312E00C4B1B785A1CD1B20A4ACF
:100FFC0011701A46FB793033D9B2084B9954064B11
:10100C001B781A46054B00219954012318460C37BE
:10101C00BD4680BC704700BFE5010020D401002014
:10102C0080B400AF024B1B781846BD4680BC70479D
:10103C00E501002080B500AF05490648FFF780F8B0
:10104C000346002B0CBF01230023DBB2184680BDE6
:10105C00D40100200C00002080B500AF05490648E3
:10106C00FFF76EF80346002B0CBF01230023DBB205
:10107C00184680BDD40100200400002080B400AFCD
:10108C00034B00221A7000BFBD4680BC704700BFE6
:10109C00E501002080B500AF0249034803F0E6F9F2
:1010AC0000BF80BD0C0000200400002080B500AF04
:1010BC00024801F0DBFF00BF80BD00BFE000002054
:1010CC0080B582B000AF78607B681A68044B1B68EF
:1010DC009A4201D100F068F800BF0837BD4680BDC8
:1010EC00E000002080B586B000AF78600B467B80B6
:1010FC0013463B800C2003F099F80346FB60FB6819
:10110C007A681A60FB687A889A80FB683A88DA8079
:10111C00FB6800229A60234B1B68002B04D1214AE8
:10112C00FB681360012339E01E4B1B687B611D4B70
:10113C001B683B610CE0FB689A883B699B88D31A5F
:10114C009AB2FB689A803B697B613B699B683B6107
:10115C003B69002B05D0FB689A883B699B889A42B7
:10116C00E9D27A693B699A4206D07B69FA689A603F
:10117C00FB683A699A6005E0FB683A699A60094A2B
:10118C00FB6813603B69002B07D03B699A88FB68AE
:10119C009B88D31A9AB23B699A8001231846183758
:1011AC00BD4680BDE801002080B400AF094B1B6830
:1011BC00002B0BD0074B1B689B88002B07D0054BD3
:1011CC001B689A88013A92B29A8000E000BFBD4633
:1011DC0080BC7047E801002080B582B000AF786019
:1011EC007B68002B03D0786803F028F800E000BF80
:1011FC000837BD4680BD000080B582B000AF184BEB
:10120C001B68002B01D1002326E0154B1B689B8823
:10121C00002B20D1124B1B681B689847104B1B6886
:10122C007B600F4B1B689B680D4A13607B68002228
:10123C009A607B68DB88002B08D07B6818687B6819
:10124C00D9887B68DB881A46FFF74CFF7868FFF774
:10125C00C3FF012300E0002318460837BD4680BDBC
:10126C00E801002080B584B000AF7860144B1B6897
:10127C00FB60FB68BB601BE0FB681B687A689A42EA
:10128C0011D1BA68FB689A4205D10D4B1B689B685B
:10129C000B4A136003E0FB689A68BB689A60F868B5
:1012AC00FFF79AFF08E0FB68BB60FB689B68FB607C
:1012BC00FB68002BE0D100BF1037BD4680BD00BFDE
:1012CC00E801002080B500AFFFF7F0FEFFF78EFCC1
:1012DC00FFF7FAFCFFF7C8FB4B2200210448FFF78D
:1012EC0001FF0A2200210348FFF7FCFE00BF80BD6E
:1012FC00B10A0008D904000880B500AFFFF77CFFE5
:10130C0000BF80BD80B485B000AF154B9B69144AFB
:10131C0043F001039361124B9B6903F00103BB6023
:10132C00BB680F4BDB690E4A43F08053D3610C4B07
:10133C00DB6903F080537B607B680A4B5B68FB6066
:10134C00FB6823F0E063FB60FB6843F00073FB6019
:10135C00044AFB68536000BF1437BD4680BC70471D
:10136C00001002400000014080B588B000AF7860EA
:10137C0007F1100300221A605A609A60DA607B68E9
:10138C001B68154A934223D1144B9B69134A43F0B3
:10139C0008039361114B9B6903F00803FB60FB6826
:1013AC00C0233B6112237B610323FB6107F1100314
:1013BC0019460B4800F0AAFB084BDB69074A43F4BB
:1013CC000013D361054BDB6903F40013BB60BB68EE
:1013DC0000BF2037BD4680BD0054004000100240C5
:1013EC00000C014080B584B000AF78607B681B684E
:1013FC00B3F1804F13D10C4BDB690B4A43F0010363
:10140C00D361094BDB6903F00103FB60FB6800222D
:10141C0000211C2000F091FA1C2000F0AAFA00BF59
:10142C001037BD4680BD00BF0010024080B58AB0A9
:10143C0000AF786007F1180300221A605A609A60B6
:10144C00DA607B681B683B4A93423AD13A4B9B6902
:10145C00394A43F480439361374B9B6903F48043CF
:10146C007B617B69344B9B69334A43F00403936182
:10147C00314B9B6903F004033B613B694FF40073F0
:10148C00BB610223FB6103237B6207F1180319463E
:10149C002A4800F03BFB4FF48063BB610023FB61E7
:1014AC0000233B6207F118031946244800F02EFB79
:1014BC0000220021252000F040FA252000F059FAE6
:1014CC0034E07B681B681E4A93422FD11A4BDB69B0
:1014DC00194A43F40033D361174BDB6903F400332F
:1014EC00FB60FB68144B9B69134A43F00403936144
:1014FC00114B9B6903F00403BB60BB680423BB6105
:10150C000223FB6103237B6207F1180319460B4886
:10151C0000F0FCFA0823BB610023FB6100233B6253
:10152C0007F118031946054800F0F0FA00BF2837F8
:10153C00BD4680BD0038014000100240000801404B
:10154C000044004080B400AFFEE780B400AFFEE77B
:10155C0080B400AFFEE780B400AFFEE780B400AF0C
:10156C00FEE780B400AF00BFBD4680BC704780B4BE
:10157C0000AF00BFBD4680BC704780B400AF00BF59
:10158C00BD4680BC704780B500AF00F0BFF800BF0F
:10159C0080BD000080B500AF024801F0B9FD00BF6E
:1015AC0080BD00BFE000002080B500AF024802F013
:1015BC005BF900BF80BD00BF2801002080B586B05C
:1015CC0000AF7860144A154BD31A7B617B693B6181
:1015DC00134B1B68002B02D1114B124A1A60104B93
:1015EC001A687B6813443A699A4207D202F012FFD8
:1015FC0003460C221A604FF0FF3309E0084B1B68BE
:10160C00FB60074B1A687B681344054A1360FB6840
:10161C0018461837BD4680BD00500020000400005D
:10162C00EC0100204003002080B400AF00BFBD4699
:10163C0080BC7047FFF7F8FF0B480C490C4A00239D
:10164C0002E0D458C4500433C4188C42F9D3094A6C
:10165C00094C002301E013600432A242FBD302F0D8
:10166C00DFFEFEF777FD70470000002070000020C1
:10167C00444D0008700000203C030020FEE70000F1
:10168C0080B500AF084B1B68074A43F0100313608A
:10169C00032000F047F90F2000F008F8FFF732FEA6
:1016AC000023184680BD00BF0020024080B582B0E8
:1016BC0000AF7860124B1A68124B1B7819464FF426
:1016CC007A73B3FBF1F3B2FBF3F3184600F05FF956
:1016DC000346002B01D001230EE07B680F2B0AD8A8
:1016EC00002279684FF0FF3000F027F9064A7B683A
:1016FC001360002300E0012318460837BD4680BD67
:10170C00140000201C0000201800002080B400AF42
:10171C00054B1B781A46054B1B681344034A136090
:10172C0000BFBD4680BC70471C000020F0010020AB
:10173C0080B400AF024B1B681846BD4680BC704796
:10174C00F001002080B584B000AF7860FFF7F0FFA7
:10175C00B8607B68FB60FB68B3F1FF3F05D00A4BB8
:10176C001B781A46FB681344FB6000BFFFF7E0FFD1
:10177C000246BB68D31AFA689A42F7D800BF00BF7A
:10178C001037BD4680BD00BF1C00002080B485B062
:10179C0000AF78607B6803F00703FB600C4BDB68E1
:1017AC00BB60BA684FF6FF031340BB60FB681A02BC
:1017BC00BB68134343F0BF6343F40033BB60044A7C
:1017CC00BB68D36000BF1437BD4680BC704700BFF8
:1017DC0000ED00E080B400AF044BDB681B0A03F0A3
:1017EC0007031846BD4680BC704700BF00ED00E003
:1017FC0080B483B000AF0346FB7197F90730002B20
:10180C000BDBFB7903F01F02064997F907305B09E4
:10181C00012000FA02F241F8232000BF0C37BD462C
:10182C0080BC704700E100E080B483B000AF034699
:10183C003960FB7197F90730002B0ADB3B68DAB291
:10184C000C4997F907301201D2B20B4483F80023EC
:10185C000AE03B68DAB20849FB7903F00F03043B5A
:10186C001201D2B20B441A7600BF0C37BD4680BCB5
:10187C00704700BF00E100E000ED00E080B489B0EB
:10188C0000AFF860B9607A60FB6803F00703FB6196
:10189C00FB69C3F10703042B28BF0423BB61FB695D
:1018AC000433062B02D9FB69033B00E000237B6168
:1018BC004FF0FF32BB6902FA03F3DA43BB681A40FC
:1018CC007B699A404FF0FF317B6901FA03F3D943EE
:1018DC007B680B40134318462437BD4680BC7047C9
:1018EC0080B582B000AF78607B68013BB3F1807F3C
:1018FC0001D301230FE00A4A7B68013B53600F219F
:10190C004FF0FF30FFF790FF054B00229A60044B1D
:10191C0007221A60002318460837BD4680BD00BF59
:10192C0010E000E080B582B000AF78607868FFF717
:10193C002DFF00BF0837BD4680BD80B586B000AF17
:10194C000346B9607A60FB7300237B61FFF742FFAB
:10195C0078617A68B9687869FFF790FF024697F961
:10196C000F3011461846FFF75FFF00BF1837BD4612
:10197C0080BD80B582B000AF0346FB7197F907308C
:10198C001846FFF735FF00BF0837BD4680BD80B550
:10199C0082B000AF78607868FFF7A2FF0346184664
:1019AC000837BD4680BD80B485B000AF7860002399
:1019BC00FB737B6893F82130DBB2022B08D07B6879
:1019CC0004229A637B68002283F82020012320E004
:1019DC007B681B681A687B681B6822F00E021A6011
:1019EC007B681B681A687B681B6822F001021A600E
:1019FC007B681A6C7B68DB6B012101FA02F25A607E
:101A0C007B68012283F821207B68002283F8202048
:101A1C00FB7B18461437BD4680BC704780B584B03C
:101A2C0000AF78600023FB737B6893F82130DBB246
:101A3C00022B05D07B6804229A630123FB7351E0CF
:101A4C007B681B681A687B681B6822F00E021A60A0
:101A5C007B681B681A687B681B6822F001021A609D
:101A6C007B681B68224A934229D07B681B68214AF9
:101A7C00934222D07B681B681F4A93421AD07B6822
:101A8C001B681E4A934212D07B681B681C4A934207
:101A9C000AD07B681B681B4A934202D14FF4801317
:101AAC000EE04FF080730BE04FF4803308E04FF4FE
:101ABC00805305E04FF4807302E0102300E0012313
:101ACC00114A53607B68012283F821207B68002235
:101ADC0083F820207B685B6B002B03D07B685B6BEF
:101AEC0078689847FB7B18461037BD4680BD00BF11
:101AFC00080002401C00024030000240440002403A
:101B0C00580002406C0002400000024080B48BB0D0
:101B1C0000AF7860396000237B6200233B6269E18F
:101B2C0001227B6A02FA03F3FB613B681B68FA69CA
:101B3C001340BB61BA69FB699A4240F058813B681B
:101B4C005B689A4A93425ED0984A934275D8984AF9
:101B5C00934258D0964A93426FD8964A934252D0A9
:101B6C00944A934269D8944A93424CD0924A9342F5
:101B7C0063D8924A934246D0904A93425DD8122B36
:101B8C002AD8122B59D801A252F823F0131C0008A2
:101B9C00ED1B0008FF1B0008411C0008471C000837
:101BAC00471C0008471C0008471C0008471C00087D
:101BBC00471C0008471C0008471C0008471C00086D
:101BCC00471C0008471C0008471C0008471C00085D
:101BDC00F51B0008091C0008794A934213D02CE02D
:101BEC003B68DB683B6229E03B68DB6804333B62A3
:101BFC0024E03B68DB6808333B621FE03B68DB6832
:101C0C000C333B621AE03B689B68002B02D1042327
:101C1C003B6213E03B689B68012B05D108233B62B8
:101C2C007B68FA691A6109E008233B627B68FA69F0
:101C3C005A6103E000233B6200E000BFBB69FF2B4D
:101C4C0001D87B6801E07B6804337B61BB69FF2BA7
:101C5C0002D87B6A9B0002E07B6A083B9B003B61DD
:101C6C007B691A680F213B6901FA03F3DB431A40C5
:101C7C00396A3B6901FA03F31A437B691A603B68C2
:101C8C005B6803F08053002B00F0B1804D4B9B69D7
:101C9C004C4A43F0010393614A4B9B6903F00103E7
:101CAC00BB60BB68484A7B6A9B08023352F82330FE
:101CBC00FB607B6A03F003039B000F2202FA03F321
:101CCC00DB43FA681340FB607B68404A934213D0B5
:101CDC007B683F4A93420DD07B683E4A934207D0C3
:101CEC007B683D4A934201D1032306E0042304E0C0
:101CFC00022302E0012300E000237A6A02F00302CF
:101D0C0092009340FA681343FB602F497B6A9B084F
:101D1C000233FA6841F823203B685B6803F48013B4
:101D2C00002B06D02D4B9A682C49BB6913438B6052
:101D3C0006E02A4B9A68BB69DB43284913408B6049
:101D4C003B685B6803F40013002B06D0234BDA6866
:101D5C002249BB691343CB6006E0204BDA68BB69B0
:101D6C00DB431E491340CB603B685B6803F40033D4
:101D7C00002B06D0194B5A681849BB6913434B60AA
:101D8C0006E0164B5A68BB69DB43144913404B60A1
:101D9C003B685B6803F48033002B21D00F4B1A682F
:101DAC000E49BB6913430B6021E000BF00003210E9
:101DBC000000311000002210000021100000121051
:101DCC00000011100010024000000140000801400A
:101DDC00000C0140001001400014014000040140BF
:101DEC000B4B1A68BB69DB43094913400B607B6AD8
:101DFC0001337B623B681A687B6A22FA03F3002B7F
:101E0C007FF48EAE00BF00BF2C37BD4680BC704740
:101E1C000004014080B485B000AF78600B467B8035
:101E2C007B689A687B881340002B02D00123FB73DC
:101E3C0001E00023FB73FB7B18461437BD4680BCC6
:101E4C00704780B483B000AF78600B467B8013463C
:101E5C007B707B78002B03D07A887B681A6103E057
:101E6C007B881A047B681A6100BF0C37BD4680BCA6
:101E7C007047000080B584B000AF78607B68002BA1
:101E8C0001D101232BE17B6893F83D30DBB2002BB1
:101E9C0006D17B68002283F83C207868FFF764FA4F
:101EAC007B68242283F83D207B681B681A687B685A
:101EBC001B6822F001021A607B681B681A687B6839
:101ECC001B6842F400421A607B681B681A687B68C6
:101EDC001B6822F400421A6001F032F8F8607B684B
:101EEC005B68814A934207D8FB68804A934294BF4F
:101EFC0001230023DBB206E0FB687D4A934294BFCA
:101F0C0001230023DBB2002B01D00123E7E0FB68A7
:101F1C00784AA2FB03239B0CBB607B681B685B6845
:101F2C0023F03F017B681B68BA680A435A607B68E0
:101F3C001B681B6A23F03F017B685B686A4A93420B
:101F4C0002D8BB68013309E0BB684FF4967202FB00
:101F5C0003F3694AA2FB03239B0901337A681268D5
:101F6C000B4313627B681B68DB6923F44F4222F03E
:101F7C00FF027B685B685C498B4219D8FB68591E71
:101F8C007B685B685B00B1FBF3F3591C40F6FC7398
:101F9C000B40002B0AD0FB68591E7B685B685B000A
:101FAC00B1FBF3F30133C3F30B0351E004234FE014
:101FBC007B689B68002B11D1FB68581E7B685968A5
:101FCC000B465B000B44B0FBF3F30133C3F30B0381
:101FDC00002B0CBF01230023DBB212E0FB68581E60
:101FEC007B6859680B469B000B4499000B44B0FB73
:101FFC00F3F30133C3F30B03002B0CBF01230023BA
:10200C00DBB2002B01D0012322E07B689B68002B04
:10201C000ED1FB68581E7B6859680B465B000B445D
:10202C00B0FBF3F30133C3F30B0343F400430FE0B2
:10203C00FB68581E7B6859680B469B000B44990043
:10204C000B44B0FBF3F30133C3F30B0343F44043F2
:10205C00796809681343CB617B681B681B6823F0A4
:10206C00C0017B68DA697B681B6A1A437B681B6852
:10207C000A431A607B681B689B6823F4034323F0B4
:10208C00FF037A6811697A68D26811437A6812681A
:10209C000B4393607B681B68DB6823F0FF017B6854
:1020AC005A697B689B691A437B681B680A43DA6030
:1020BC007B681B681A687B681B6842F001021A6017
:1020CC007B6800221A647B68202283F83D207B68A1
:1020DC0000221A637B68002283F83E2000231846F6
:1020EC001037BD4680BD00BFA08601007F841E0056
:1020FC00FF083D0083DE1B43D34D621080B588B0D2
:10210C0002AFF8607A601A460B467B8113463B811E
:10211C00FFF70EFB7861FB6893F83D30DBB2202BA8
:10212C0040F0E0807B690093192301227049F86824
:10213C0000F064F90346002B01D00223D3E0FB68C6
:10214C0093F83C30012B01D10223CCE0FB68012237
:10215C0083F83C20FB681B681B6803F00103012B10
:10216C0007D0FB681B681A68FB681B6842F0010209
:10217C001A60FB681B681A68FB681B6822F4006213
:10218C001A60FB68212283F83D20FB68102283F83B
:10219C003E20FB6800221A64FB687A685A62FB686E
:1021AC003A895A85FB685B8D9AB2FB681A85FB6885
:1021BC00504ADA6279897B693A6AF86800F09CF8CF
:1021CC000346002B01D001238DE000233B61FB680B
:1021DC001B685B693B61FB681B689B693B613B69E6
:1021EC0066E07A69396AF86800F022FA0346002B37
:1021FC000DD0FB681B6C042B07D1FB681B681A689D
:10220C00FB681B6842F400721A6001236BE0FB68E8
:10221C005B6A1A78FB681B681A61FB685B6A5A1C5C
:10222C00FB685A62FB685B8D9BB2013B9AB2FB6800
:10223C005A85FB681B8D013B9AB2FB681A85FB68BB
:10224C001B685B6903F00403042B1BD1FB681B8D1B
:10225C00002B17D0FB685B6A1A78FB681B681A6145
:10226C00FB685B6A5A1CFB685A62FB685B8D9BB20D
:10227C00013B9AB2FB685A85FB681B8D013B9AB2F5
:10228C00FB681A857A69396AF86800F019FA03460E
:10229C00002B0DD0FB681B6C042B07D1FB681B6853
:1022AC001A68FB681B6842F400721A6001231AE07A
:1022BC00FB681B8D002B94D1FB681B681A68FB68AC
:1022CC001B6842F400721A60FB68202283F83D20E0
:1022DC00FB68002283F83E20FB68002283F83C2038
:1022EC00002300E0022318461837BD4680BD00BF0E
:1022FC00020010000000FFFF80B588B002AFF8604C
:10230C007A603B600B467B81FB68DB6A7B617B6997
:10231C00082B06D07B69012B03D07B6913F5803F1A
:10232C0008D1FB681B681A68FB681B6842F4807252
:10233C001A600BE0FB681B6B122B07D1FB681B6848
:10234C001A68FB681B6842F480721A603B68009341
:10235C007B6800224FF00111F86800F04FF803463B
:10236C00002B0DD0FB681B681B6803F48073B3F55E
:10237C00807F03D1FB684FF400721A64032335E0AD
:10238C00FB681B69B3F5804F08D17B89DBB21A4619
:10239C00FB681B6802F0FE021A611BE07B89DB11F3
:1023AC00DBB203F00603DBB263F00F03DAB2FB68B7
:1023BC001B681A613B687A680E49F86800F098F857
:1023CC000346002B01D0012310E07B89DAB2FB68B5
:1023DC001B681A613B687A680749F86800F088F84E
:1023EC000346002B01D0012300E0002318461837C8
:1023FC00BD4680BD080001000200010080B584B01C
:10240C0000AFF860B9603B601346FB7148E03B6875
:10241C00B3F1FF3F44D0FFF78BF90246BB69D31AE7
:10242C003A689A4202D33B68002B39D1BB681B0C2B
:10243C00DBB2012B0DD1FB681B685B69DA43BB680F
:10244C0013409BB2002B0CBF01230023DBB21A46B6
:10245C000CE0FB681B689B69DA43BB6813409BB2BA
:10246C00002B0CBF01230023DBB21A46FB799A42E6
:10247C0016D1FB6800221A63FB68202283F83D20EA
:10248C00FB68002283F83E20FB681B6C43F02002A3
:10249C00FB681A64FB68002283F83C20012323E0CC
:1024AC00BB681B0CDBB2012B0DD1FB681B685B6995
:1024BC00DA43BB6813409BB2002B0CBF01230023F3
:1024CC00DBB21A460CE0FB681B689B69DA43BB68FD
:1024DC0013409BB2002B0CBF01230023DBB21A4626
:1024EC00FB799A4293D0002318461037BD4680BD25
:1024FC0080B584B000AFF860B9607A603B6071E081
:10250C00FB681B685B6903F48063B3F5806F23D1B0
:10251C00FB681B681A68FB681B6842F400721A603F
:10252C00FB681B686FF480625A61FB6800221A63B7
:10253C00FB68202283F83D20FB68002283F83E20B4
:10254C00FB681B6C43F00402FB681A64FB680022F6
:10255C0083F83C20012367E07B68B3F1FF3F41D057
:10256C00FFF7E6F802463B68D31A7A689A4202D320
:10257C007B68002B36D1BB681B0CDBB2012B0CD15A
:10258C00FB681B685B69DA43BB6813409BB2002B8A
:10259C0014BF01230023DBB20BE0FB681B689B69B3
:1025AC00DA43BB6813409BB2002B14BF01230023FA
:1025BC00DBB2002B16D0FB6800221A63FB682022CA
:1025CC0083F83D20FB68002283F83E20FB681B6CDF
:1025DC0043F02002FB681A64FB68002283F83C205D
:1025EC00012321E0BB681B0CDBB2012B0CD1FB6877
:1025FC001B685B69DA43BB6813409BB2002B14BFAA
:10260C0001230023DBB20BE0FB681B689B69DA43F8
:10261C00BB6813409BB2002B14BF01230023DBB219
:10262C00002B7FF46DAF002318461037BD4680BDDC
:10263C0080B584B000AFF860B9607A6034E0F868B7
:10264C0000F086F80346002B01D0012334E0BB6870
:10265C00B3F1FF3F28D0FFF76BF802467B68D31A23
:10266C00BA689A4202D3BB68002B1DD1FB681B6869
:10267C005B6903F08003802B16D0FB6800221A6381
:10268C00FB68202283F83D20FB68002283F83E2063
:10269C00FB681B6C43F02002FB681A64FB68002289
:1026AC0083F83C20012307E0FB681B685B6903F09F
:1026BC008003802BC3D1002318461037BD4680BD44
:1026CC0080B584B000AFF860B9607A6034E0F86827
:1026DC0000F03EF80346002B01D0012334E0BB6828
:1026EC00B3F1FF3F28D0FFF723F802467B68D31ADB
:1026FC00BA689A4202D3BB68002B1DD1FB681B68D9
:10270C005B6903F00403042B16D0FB6800221A63E8
:10271C00FB68202283F83D20FB68002283F83E20D2
:10272C00FB681B6C43F02002FB681A64FB680022F8
:10273C0083F83C20012307E0FB681B685B6903F00E
:10274C000403042BC3D1002318461037BD4680BDAB
:10275C0080B483B000AF78607B681B685B6903F45E
:10276C008063B3F5806F1BD17B681B686FF480624C
:10277C005A617B6800221A637B68202283F83D2013
:10278C007B68002283F83E207B681B6C43F00402BC
:10279C007B681A647B68002283F83C20012300E0EC
:1027AC00002318460C37BD4680BC704780B586B0F8
:1027BC0000AF78607B68002B01D1012372E27B684B
:1027CC001B6803F00103002B00F08780924B5B68C1
:1027DC0003F00C03042B0CD08F4B5B6803F00C0341
:1027EC00082B12D18C4B5B6803F48033B3F5803F1C
:1027FC000BD1894B1B6803F40033002B6CD07B6826
:10280C005B68002B68D101234CE27B685B68B3F5F5
:10281C00803F06D1804B1B687F4A43F480331360A2
:10282C002EE07B685B68002B0CD17B4B1B687A4AD3
:10283C0023F480331360784B1B68774A23F480238E
:10284C0013601DE07B685B68B3F5A02F0CD1724B55
:10285C001B68714A43F4802313606F4B1B686E4AEC
:10286C0043F4803313600BE06B4B1B686A4A23F410
:10287C0080331360684B1B68674A23F48023136012
:10288C007B685B68002B13D0FEF752FF386108E0C1
:10289C00FEF74EFF02463B69D31A642B01D9032382
:1028AC0000E25D4B1B6803F40033002BF0D014E006
:1028BC00FEF73EFF386108E0FEF73AFF02463B693F
:1028CC00D31A642B01D90323ECE1534B1B6803F49B
:1028DC000033002BF0D100E000BF7B681B6803F0D5
:1028EC000203002B63D04C4B5B6803F00C03002BF2
:1028FC000BD0494B5B6803F00C03082B1CD1464BE7
:10290C005B6803F48033002B16D1434B1B6803F038
:10291C000203002B05D07B681B69012B01D001231E
:10292C00C0E13D4B1B6823F0F8027B685B69DB0060
:10293C00394913430B603AE07B681B69002B20D0AC
:10294C00364B01221A60FEF7F3FE386108E0FEF701
:10295C00EFFE02463B69D31A022B01D90323A1E1F6
:10296C002D4B1B6803F00203002BF0D02A4B1B6885
:10297C0023F0F8027B685B69DB00274913430B608B
:10298C0015E0264B00221A60FEF7D2FE386108E0F3
:10299C00FEF7CEFE02463B69D31A022B01D9032364
:1029AC0080E11D4B1B6803F00203002BF0D17B6808
:1029BC001B6803F00803002B3AD07B689B69002B43
:1029CC0019D0174B01221A60FEF7B2FE386108E0ED
:1029DC00FEF7AEFE02463B69D31A022B01D9032344
:1029EC0060E10D4B5B6A03F00203002BF0D0012079
:1029FC0000F0CEFA1CE00A4B00221A60FEF798FE9B
:102A0C0038610FE0FEF794FE02463B69D31A022BA5
:102A1C0008D9032346E100BF0010024000004242E7
:102A2C0080044242924B5B6A03F00203002BE9D113
:102A3C007B681B6803F00403002B00F0A6800023C6
:102A4C00FB758B4BDB6903F08053002B0DD1884B4E
:102A5C00DB69874A43F08053D361854BDB6903F014
:102A6C008053BB60BB680123FB75824B1B6803F46E
:102A7C008073002B18D17F4B1B687E4A43F4807304
:102A8C001360FEF755FE386108E0FEF751FE024672
:102A9C003B69D31A642B01D9032303E1754B1B68E3
:102AAC0003F48073002BF0D07B68DB68012B06D11C
:102ABC006F4B1B6A6E4A43F0010313622DE07B6877
:102ACC00DB68002B0CD16A4B1B6A694A23F00103AB
:102ADC001362674B1B6A664A23F0040313621CE003
:102AEC007B68DB68052B0CD1614B1B6A604A43F099
:102AFC00040313625E4B1B6A5D4A43F001031362CD
:102B0C000BE05B4B1B6A5A4A23F001031362584BD0
:102B1C001B6A574A23F0040313627B68DB68002BA3
:102B2C0015D0FEF705FE38610AE0FEF701FE0246FD
:102B3C003B69D31A41F28832934201D90323B1E0A5
:102B4C004B4B1B6A03F00203002BEED014E0FEF794
:102B5C00EFFD38610AE0FEF7EBFD02463B69D31A44
:102B6C0041F28832934201D903239BE0404B1B6A0C
:102B7C0003F00203002BEED1FB7D012B05D13C4B66
:102B8C00DB693B4A23F08053D3617B68DB69002B04
:102B9C0000F08780364B5B6803F00C03082B61D088
:102BAC007B68DB69022B46D1334B00221A60FEF79F
:102BBC00BFFD386108E0FEF7BBFD02463B69D31A46
:102BCC00022B01D903236DE0294B1B6803F0007322
:102BDC00002BF0D17B681B6AB3F5803F08D1244BE6
:102BEC005B6823F400327B689B68214913434B607C
:102BFC001F4B5B6823F474127B68196A7B685B6AF1
:102C0C000B431B4913434B601B4B01221A60FEF70D
:102C1C008FFD386108E0FEF78BFD02463B69D31A45
:102C2C00022B01D903233DE0114B1B6803F0007309
:102C3C00002BF0D035E0104B00221A60FEF778FD27
:102C4C00386108E0FEF774FD02463B69D31A022B8B
:102C5C0001D9032326E0064B1B6803F00073002BFD
:102C6C00F0D11EE07B68DB69012B07D1012319E051
:102C7C000010024000700040600042420B4B5B6849
:102C8C00FB60FB6803F480327B681B6A9A4206D1B6
:102C9C00FB6803F470127B685B6A9A4201D00123D3
:102CAC0000E0002318461837BD4680BD00100240D6
:102CBC0080B584B000AF786039607B68002B01D19F
:102CCC000123D0E06A4B1B6803F007033A689A4271
:102CDC0010D9674B1B6823F0070265493B68134307
:102CEC000B60634B1B6803F007033A689A4201D0F0
:102CFC000123B8E07B681B6803F00203002B20D093
:102D0C007B681B6803F00403002B05D0594B5B68F0
:102D1C00584A43F4E06353607B681B6803F0080374
:102D2C00002B05D0534B5B68524A43F460535360FD
:102D3C00504B5B6823F0F0027B689B684D49134352
:102D4C004B607B681B6803F00103002B40D07B6851
:102D5C005B68012B07D1474B1B6803F40033002B36
:102D6C0015D101237FE07B685B68022B07D1414BB7
:102D7C001B6803F00073002B09D1012373E03D4B5A
:102D8C001B6803F00203002B01D101236BE0394BCC
:102D9C005B6823F003027B685B68364913434B6026
:102DAC00FEF7C6FCF8600AE0FEF7C2FC0246FB68C0
:102DBC00D31A41F28832934201D9032353E02D4BAD
:102DCC005B6803F00C027B685B689B009A42EBD15A
:102DDC00274B1B6803F007033A689A4210D2244B26
:102DEC001B6823F0070222493B6813430B60204BFE
:102DFC001B6803F007033A689A4201D0012332E0C2
:102E0C007B681B6803F00403002B08D0194B5B682C
:102E1C0023F4E0627B68DB68164913434B607B68E4
:102E2C001B6803F00803002B09D0124B5B6823F4DA
:102E3C0060527B681B69DB000E4913434B6000F04A
:102E4C0021F802460B4B5B681B0903F00F030A4980
:102E5C00CB5C22FA03F3094A1360094B1B68184632
:102E6C00FEF724FC002318461037BD4680BD00BF7A
:102E7C000020024000100240DC4C0008140000202E
:102E8C001800002080B487B000AF0023FB60002343
:102E9C00BB6000237B6100237B6000233B611E4BE6
:102EAC005B68FB60FB6803F00C03042B02D0082B5F
:102EBC0003D027E0194B3B6127E0FB689B0C03F028
:102ECC000F03174AD35C7B60FB6803F48033002B41
:102EDC0010D0114B5B685B0C03F00103114AD35CFF
:102EEC00BB607B680D4A03FB02F2BB68B2FBF3F3D9
:102EFC007B6104E07B680C4A02FB03F37B617B691A
:102F0C003B6102E0054B3B6100BF3B6918461C3737
:102F1C00BD4680BC704700BF0010024000127A0012
:102F2C00F44C0008044D000800093D0080B400AFCB
:102F3C00024B1B681846BD4680BC7047140000202D
:102F4C0080B500AFFFF7F2FF0246054B5B681B0A2A
:102F5C0003F007030349CB5C22FA03F3184680BD48
:102F6C0000100240EC4C000880B500AFFFF7DEFF0C
:102F7C000246054B5B68DB0A03F007030349CB5C95
:102F8C0022FA03F3184680BD00100240EC4C0008F6
:102F9C0080B485B000AF78600A4B1B680A4AA2FB6C
:102FAC0003235B0A7A6802FB03F3FB6000BFFB6838
:102FBC005A1EFA60002BF9D100BF00BF1437BD4672
:102FCC0080BC704714000020D34D621080B582B0D5
:102FDC0000AF78607B68002B01D1012341E07B6856
:102FEC0093F83D30DBB2002B06D17B68002283F8CE
:102FFC003C207868FEF7F6F97B68022283F83D20C6
:10300C007B681A687B6804331946104600F074FA22
:10301C007B68012283F846207B68012283F83E20DE
:10302C007B68012283F83F207B68012283F84020D3
:10303C007B68012283F841207B68012283F84220BF
:10304C007B68012283F843207B68012283F84420AB
:10305C007B68012283F845207B68012283F83D20A0
:10306C00002318460837BD4680BD000080B485B0EB
:10307C0000AF78607B6893F83D30DBB2012B01D058
:10308C0001233AE07B68022283F83D207B681B68B1
:10309C00DA687B681B6842F00102DA607B681B68A7
:1030AC00184A93420ED07B681B68B3F1804F09D04D
:1030BC007B681B68144A934204D07B681B68134AD4
:1030CC00934211D17B681B689B6803F00703FB607C
:1030DC00FB68062B10D07B681B681A687B681B6822
:1030EC0042F001021A6007E07B681B681A687B6873
:1030FC001B6842F001021A60002318461437BD46C3
:10310C0080BC7047002C01400004004000080040C7
:10311C0080B582B000AF78607B681B681B6903F0D8
:10312C000203022B22D17B681B68DB6803F00203CD
:10313C00022B1BD17B681B686FF002021A617B6843
:10314C0001221A777B681B689B6903F00303002B31
:10315C0003D0786800F0B4F905E0786800F0A7F9BE
:10316C00786800F0B6F97B6800221A777B681B68D8
:10317C001B6903F00403042B22D17B681B68DB68FA
:10318C0003F00403042B1BD17B681B686FF0040253
:10319C001A617B6802221A777B681B689B6903F4AF
:1031AC004073002B03D0786800F08AF905E078684A
:1031BC0000F07DF9786800F08CF97B6800221A77B2
:1031CC007B681B681B6903F00803082B22D17B6802
:1031DC001B68DB6803F00803082B1BD17B681B689A
:1031EC006FF008021A617B6804221A777B681B68EF
:1031FC00DB6903F00303002B03D0786800F060F95F
:10320C0005E0786800F053F9786800F062F97B68A3
:10321C0000221A777B681B681B6903F01003102BC4
:10322C0022D17B681B68DB6803F01003102B1BD1C9
:10323C007B681B686FF010021A617B6808221A7792
:10324C007B681B68DB6903F44073002B03D0786840
:10325C0000F036F905E0786800F029F9786800F09C
:10326C0038F97B6800221A777B681B681B6903F0AE
:10327C000103012B0ED17B681B68DB6803F0010393
:10328C00012B07D17B681B686FF001021A6178680B
:10329C00FDF716FF7B681B681B6903F08003802B0E
:1032AC000ED17B681B68DB6803F08003802B07D191
:1032BC007B681B686FF080021A61786800F07BFAFB
:1032CC007B681B681B6903F04003402B0ED17B68A5
:1032DC001B68DB6803F04003402B07D17B681B683D
:1032EC006FF040021A61786800F0FCF87B681B688C
:1032FC001B6903F02003202B0ED17B681B68DB6855
:10330C0003F02003202B07D17B681B686FF0200291
:10331C001A61786800F046FA00BF0837BD4680BDD8
:10332C0080B584B000AF786039600023FB737B6894
:10333C0093F83C30012B01D10223B4E07B680122CD
:10334C0083F83C207B68022283F83D207B681B6855
:10335C009B68BB60BB6823F07703BB60BB6823F43E
:10336C007F43BB607B681B68BA689A603B681B68CC
:10337C00B3F5005F3ED0B3F5005F00F28780B3F584
:10338C00805F00F08680B3F5805F7FD8702B1AD0F9
:10339C00702B7BD8602B50D0602B77D8502B3CD027
:1033AC00502B73D8402B58D0402B6FD8302B64D077
:1033BC00302B6BD8202B60D0202B67D8002B5CD007
:1033CC00102B5AD062E07B6818683B6899683B68A0
:1033DC005A683B68DB6800F068F97B681B689B687F
:1033EC00BB60BB6843F07703BB607B681B68BA6843
:1033FC009A604FE07B6818683B6899683B685A682C
:10340C003B68DB6800F051F97B681B689A687B6845
:10341C001B6842F480429A603CE07B6818683B6809
:10342C0059683B68DB681A4600F0C8F87B681B6873
:10343C005021184600F01FF92CE07B6818683B6897
:10344C0059683B68DB681A4600F0E6F87B681B6835
:10345C006021184600F00FF91CE07B6818683B6887
:10346C0059683B68DB681A4600F0A8F87B681B6853
:10347C004021184600F0FFF80CE07B681A683B68A6
:10348C001B681946104600F0F6F803E00123FB73A5
:10349C0000E000BF7B68012283F83D207B6800229E
:1034AC0083F83C20FB7B18461037BD4680BD80B4AA
:1034BC0083B000AF786000BF0C37BD4680BC70474E
:1034CC0080B483B000AF786000BF0C37BD4680BCC1
:1034DC00704780B483B000AF786000BF0C37BD4636
:1034EC0080BC704780B483B000AF786000BF0C37ED
:1034FC00BD4680BC7047000080B485B000AF7860DA
:10350C0039607B681B68FB607B68294A93420BD04F
:10351C007B68B3F1804F07D07B68264A934203D077
:10352C007B68254A934208D1FB6823F07003FB604B
:10353C003B685B68FA681343FB607B681C4A9342E8
:10354C000BD07B68B3F1804F07D07B68194A93424C
:10355C0003D07B68184A934208D1FB6823F440736C
:10356C00FB603B68DB68FA681343FB60FB6823F085
:10357C0080023B685B691343FB607B68FA681A60E6
:10358C003B689A687B68DA623B681A687B689A6267
:10359C007B68074A934203D13B681A697B681A63BC
:1035AC007B6801225A6100BF1437BD4680BC70474E
:1035BC00002C0140000400400008004080B487B09B
:1035CC0000AFF860B9607A60FB681B6A7B61FB68CE
:1035DC001B6A23F00102FB681A62FB689B693B6162
:1035EC003B6923F0F0033B617B681B013A69134391
:1035FC003B617B6923F00A037B617A69BB681343E7
:10360C007B61FB683A699A61FB687A691A6200BF50
:10361C001C37BD4680BC704780B487B000AFF860E3
:10362C00B9607A60FB681B6A7B61FB681B6A23F0DC
:10363C001002FB681A62FB689B693B613B6923F4CF
:10364C0070433B617B681B033A6913433B617B69A5
:10365C0023F0A0037B61BB681B017A6913437B6178
:10366C00FB683A699A61FB687A691A6200BF1C3779
:10367C00BD4680BC704780B485B000AF78603960BF
:10368C007B689B68FB60FB6823F07003FB603A6807
:10369C00FB68134343F00703FB607B68FA689A608E
:1036AC0000BF1437BD4680BC704780B487B000AFF4
:1036BC00F860B9607A603B60FB689B687B617B69F2
:1036CC0023F47F437B613B681A027B681A43BB6817
:1036DC0013437A6913437B61FB687A699A6000BF74
:1036EC001C37BD4680BC704780B485B000AF786095
:1036FC0039607B6893F83C30012B01D1022346E002
:10370C007B68012283F83C207B68022283F83D20F1
:10371C007B681B685B68FB607B681B689B68BB6095
:10372C00FB6823F07003FB603B681B68FA6813436B
:10373C00FB607B681B68FA685A607B681B68164ADA
:10374C0093420ED07B681B68B3F1804F09D07B6825
:10375C001B68124A934204D07B681B68104A934240
:10376C000CD1BB6823F08003BB603B685B68BA6814
:10377C001343BB607B681B68BA689A607B68012244
:10378C0083F83D207B68002283F83C2000231846F8
:10379C001437BD4680BC7047002C0140000400402B
:1037AC000008004080B483B000AF786000BF0C37D5
:1037BC00BD4680BC704780B483B000AF786000BF5A
:1037CC000C37BD4680BC704780B582B000AF7860C6
:1037DC007B68002B01D1012342E07B6893F84130D8
:1037EC00DBB2002B06D17B68002283F8402078687E
:1037FC00FDF71CFE7B68242283F841207B681B6844
:10380C00DA687B681B6822F40052DA60786800F092
:10381C007FFC7B681B681A697B681B6822F49042EA
:10382C001A617B681B685A697B681B6822F02A0244
:10383C005A617B681B68DA687B681B6842F400522B
:10384C00DA607B6800225A647B68202283F841206E
:10385C007B68202283F842207B6800225A63002375
:10386C0018460837BD4680BD80B5BAB000AF786049
:10387C007B681B681B68C7F8E4307B681B68DB68D7
:10388C00C7F8E0307B681B685B69C7F8DC30002345
:10389C00C7F8D8300023C7F8D430D7F8E43003F099
:1038AC000F03C7F8D830D7F8D830002B0FD1D7F882
:1038BC00E43003F02003002B09D0D7F8E03003F0FC
:1038CC002003002B03D0786800F063FB5BE2D7F891
:1038DC00D830002B00F0DE80D7F8DC3003F0010389
:1038EC00002B06D1D7F8E03003F49073002B00F0D6
:1038FC00D180D7F8E43003F00103002B0BD0D7F8BC
:10390C00E03003F48073002B05D07B685B6C43F0D4
:10391C0001027B685A64D7F8E43003F00403002BEF
:10392C000BD0D7F8DC3003F00103002B05D07B68FB
:10393C005B6C43F002027B685A64D7F8E43003F006
:10394C000203002B0BD0D7F8DC3003F00103002B63
:10395C0005D07B685B6C43F004027B685A64D7F833
:10396C00E43003F00803002B11D0D7F8E03003F05B
:10397C002003002B05D1D7F8DC3003F00103002B1A
:10398C0005D07B685B6C43F008027B685A647B68EB
:10399C005B6C002B00F0F281D7F8E43003F02003CD
:1039AC00002B08D0D7F8E03003F02003002B02D016
:1039BC00786800F0EEFA7B681B685B6903F04003E3
:1039CC00002B14BF01230023DBB2C7F8D4307B6873
:1039DC005B6C03F00803002B03D1D7F8D430002B19
:1039EC004FD0786800F0F8F97B681B685B6903F0CE
:1039FC004003002B41D07B681B681433C7F89C3004
:103A0C00D7F89C3053E8003FC7F89830D7F8983077
:103A1C0023F04003C7F8D0307B681B681433D7F809
:103A2C00D020C7F8A820C7F8A430D7F8A410D7F82E
:103A3C00A82041E80023C7F8A030D7F8A030002B0D
:103A4C00D9D17B68DB6B002B13D07B68DB6B7E4A98
:103A5C005A637B68DB6B1846FDF7E0FF0346002BCF
:103A6C0016D07B68DB6B5B6B7A68D26B1046984721
:103A7C000EE0786800F09CF90AE0786800F098F99C
:103A8C0006E0786800F094F97B6800225A6475E1CE
:103A9C0000BF73E17B681B6B012B40F04F81D7F8A3
:103AAC00E43003F01003002B00F04881D7F8E0302D
:103ABC0003F01003002B00F041810023BB607B68F6
:103ACC001B681B68BB607B681B685B68BB60BB6862
:103ADC007B681B685B6903F04003002B00F0B68029
:103AEC007B68DB6B1B685B68A7F8BE30B7F8BE3031
:103AFC00002B00F045817B689B8DB7F8BE209A4265
:103B0C0080F03E817B68B7F8BE20DA857B68DB6B82
:103B1C009B69202B00F088807B681B680C33C7F8EE
:103B2C008830D7F8883053E8003FC7F88430D7F88E
:103B3C00843023F48073C7F8B8307B681B680C336F
:103B4C00D7F8B820C7F89420C7F89030D7F8901061
:103B5C00D7F8942041E80023C7F88C30D7F88C3084
:103B6C00002BD9D17B681B6814337B677B6F53E8C0
:103B7C00003F3B673B6F23F00103C7F8B4307B6811
:103B8C001B681433D7F8B420C7F88020FB67F96F93
:103B9C00D7F8802041E80023BB67BB6F002BE1D135
:103BAC007B681B6814333B663B6E53E8003FFB6538
:103BBC00FB6D23F04003C7F8B0307B681B681433EF
:103BCC00D7F8B020FA66BB66B96EFA6E41E80023EE
:103BDC007B667B6E002BE3D17B68202283F842202E
:103BEC007B6800221A637B681B680C33FB64FB6CDC
:103BFC0053E8003FBB64BB6C23F01003C7F8AC3038
:103C0C007B681B680C33D7F8AC20BA657B65796D83
:103C1C00BA6D41E800233B653B6D002BE3D17B681B
:103C2C00DB6B1846FDF7BFFE7B6802225A637B688C
:103C3C009A8D7B68DB8D9BB2D31A9BB21946786840
:103C4C0000F0BFF89CE000BFA93E00087B689A8D8D
:103C5C007B68DB8D9BB2D31AA7F8CE307B68DB8DEB
:103C6C009BB2002B00F08E80B7F8CE30002B00F00A
:103C7C0089807B681B680C33BB63BB6B53E8003FCC
:103C8C007B637B6B23F49073C7F8C8307B681B682D
:103C9C000C33D7F8C8207A643B64396C7A6C41E8F1
:103CAC000023FB63FB6B002BE3D17B681B68143395
:103CBC007B627B6A53E8003F3B623B6A23F0010363
:103CCC00C7F8C4307B681B681433D7F8C4203A6338
:103CDC00FB62F96A3A6B41E80023BB62BB6A002BBA
:103CEC00E3D17B68202283F842207B6800221A6390
:103CFC007B681B680C333B613B6953E8003FFB60FE
:103D0C00FB6823F01003C7F8C0307B681B680C33CA
:103D1C00D7F8C020FA61BB61B969FA6941E80023A0
:103D2C007B617B69002BE3D17B6802225A63B7F875
:103D3C00CE301946786800F044F823E0D7F8E43028
:103D4C0003F08003002B09D0D7F8E03003F0800398
:103D5C00002B03D0786800F0B5F814E0D7F8E43005
:103D6C0003F04003002B0ED0D7F8E03003F04003F3
:103D7C00002B08D0786800F0F4F804E000BF02E0F3
:103D8C0000BF00E000BFE837BD4680BD80B483B003
:103D9C0000AF786000BF0C37BD4680BC704780B464
:103DAC0083B000AF786000BF0C37BD4680BC704755
:103DBC0080B483B000AF786000BF0C37BD4680BCC8
:103DCC00704780B483B000AF78600B467B8000BF37
:103DDC000C37BD4680BC704780B495B000AF78609E
:103DEC007B681B680C337B637B6B53E8003F3B6346
:103DFC003B6B23F49073FB647B681B680C33FA6C8D
:103E0C003A64FB63F96B3A6C41E80023BB63BB6B10
:103E1C00002BE5D17B681B6814333B623B6A53E88B
:103E2C00003FFB61FB6923F00103BB647B681B68EB
:103E3C001433BA6CFA62BB62B96AFA6A41E80023BD
:103E4C007B627B6A002BE5D17B681B6B012B19D144
:103E5C007B681B680C33FB60FB6853E8003FBB605E
:103E6C00BB6823F010037B647B681B680C337A6C93
:103E7C00BA617B617969BA6941E800233B613B69AE
:103E8C00002BE5D17B68202283F842207B6800223E
:103E9C001A6300BF5437BD4680BC704780B584B0F0
:103EAC0000AF78607B685B6AFB60FB680022DA8598
:103EBC00FB680022DA84F868FFF77AFF00BF10373E
:103ECC00BD4680BD80B485B000AF78607B6893F848
:103EDC004130DBB2212B3ED17B689B68B3F5805F10
:103EEC0014D17B681B69002B10D17B681B6AFB60AB
:103EFC00FB681B881A467B681B68C2F308025A6071
:103F0C007B681B6A9A1C7B681A6208E07B681B6AD8
:103F1C00591C7A6811621A787B681B685A607B6836
:103F2C00DB8C9BB2013B9BB27A681946D184002B87
:103F3C000FD17B681B68DA687B681B6822F08002F3
:103F4C00DA607B681B68DA687B681B6842F04002A9
:103F5C00DA60002300E0022318461437BD4680BC0B
:103F6C00704780B582B000AF78607B681B68DA68F8
:103F7C007B681B6822F04002DA607B68202283F8A1
:103F8C0041207868FFF702FF002318460837BD462A
:103F9C0080BD80B58CB000AF78607B6893F8423000
:103FAC00DBB2222B40F0AE807B689B68B3F5805F60
:103FBC0017D17B681B69002B13D10023FB627B6834
:103FCC009B6ABB627B681B685B689BB2C3F308038C
:103FDC009AB2BB6A1A807B689B6A9A1C7B689A624D
:103FEC0026E07B689B6AFB620023BB627B689B6854
:103FFC00B3F5805F07D07B689B68002B0AD17B6888
:10400C001B69002B06D17B681B685B68DAB2FB6A04
:10401C001A7008E07B681B685B68DBB203F07F03F7
:10402C00DAB2FB6A1A707B689B6A5A1C7B689A62CC
:10403C007B68DB8D9BB2013B9BB27A681946D185BC
:10404C00002B5DD17B681B68DA687B681B6822F0EB
:10405C002002DA607B681B68DA687B681B6822F4D4
:10406C008072DA607B681B685A697B681B6822F077
:10407C0001025A617B68202283F842207B6800226F
:10408C005A637B681B6B012B35D17B6800221A634A
:10409C007B681B680C337B617B6953E8003F3B6199
:1040AC003B6923F010037B627B681B680C337A6AD4
:1040BC003A62FB61F9693A6A41E80023BB61BB696A
:1040CC00002BE5D17B681B681B6803F01003102BD9
:1040DC000AD10023FB607B681B681B68FB607B6854
:1040EC001B685B68FB60FB687B689B8D1946786876
:1040FC00FFF767FE02E07868FFF751FE002302E04D
:10410C00002300E0022318463037BD4680BD000076
:10411C0080B584B000AF78607B681B681B6923F4A2
:10412C0040517B68DA687B681B680A431A617B68BC
:10413C009A687B681B691A437B685B691343BB6095
:10414C007B681B68DB6823F4B05323F00C037A689C
:10415C001268B9680B43D3607B681B685B6923F4F6
:10416C0040717B689A697B681B680A435A617B685B
:10417C001B682C4A934203D1FEF7F6FEF86002E06E
:10418C00FEF7DEFEF860FA6813469B0013449A00B3
:10419C001A447B685B689B00B2FBF3F3224AA2FBD8
:1041AC0003235B091901FA6813469B0013449A0018
:1041BC001A447B685B689B00B2FBF3F21A4BA3FBBF
:1041CC0002035B09642000FB03F3D31A1B01323397
:1041DC00154AA2FB03235B0903F0F0031944FA68A8
:1041EC0013469B0013449A001A447B685B689B003F
:1041FC00B2FBF3F20C4BA3FB02035B09642000FB44
:10420C0003F3D31A1B013233074AA2FB03235B09C6
:10421C0003F00F027B681B680A449A6000BF1037DA
:10422C00BD4680BD003801401F85EB51024B014655
:10423C00186800F02BB800BF6C000020024B014640
:10424C00186800F01BB900BF6C00002070B50E4E52
:10425C000C463168054611B900F0CCF830602146A7
:10426C00284600F0C7F8431C0AD0C41C24F00304F1
:10427C00A04207D0211A284600F0BCF8013001D129
:10428C004FF0FF34204670BDF80100202DE9F843B3
:10429C00CD1C25F0030508350C2D38BF0C25002D41
:1042AC00074601DBA94205D90C2300263B603046AA
:1042BC00BDE8F883DFF8D08000F068F8D8F800305B
:1042CC001C465CBB29463846FFF7C0FF431C04461E
:1042DC0055D1D8F800402646002E45D1002C48D0A8
:1042EC0023683146384604EB030900F083F8814516
:1042FC003FD1216838466D1A2946FFF7A7FF0130D8
:10430C0037D023682B442360D8F80030002B38D0EA
:10431C005A68A2422BD100225A600FE02268521B2D
:10432C001FD40B2A17D96119A342256018BF5960F5
:10433C00636808BFC8F8001062514B60384604F13E
:10434C000B0600F029F826F00706231DF21AAED052
:10435C009B1BA350ABE7A3426268DDD1C8F80020D9
:10436C00ECE723466468ACE734467668B4E713465A
:10437C00CCE70C2338463B6000F00EF897E725603D
:10438C00DCE75B60FFDE00BFF4010020014800F0B9
:10439C006BB800BF38030020014800F066B800BFBE
:1043AC00380300200EB46FF0004100B59CB01DAB7B
:1043BC0002900690079104910848094953F8042B80
:1043CC000591006802A9019300F0FAF80022029B03
:1043DC001A701CB05DF804EB03B070476C00002041
:1043EC000802FFFF03460244934200D1704703F8D2
:1043FC00011BF9E738B50023054D044608462B6030
:10440C00FDF7DCF8431C02D12B6803B1236038BDE7
:10441C0034030020014B1868704700BF6C0000206B
:10442C0070B500260C4D0D4C641BA410A64209D18E
:10443C0000F0C6FB00260A4D0A4C641BA410A642D1
:10444C0005D170BD55F8043B98470136EEE755F899
:10445C00043B98470136F2E73C4D00083C4D000800
:10446C003C4D0008404D000870477047034611F85A
:10447C00012B03F8012B002AF9D1704738B50546FA
:10448C00002940D051F8043C0C1F002BB8BFE41895
:10449C00FFF77CFF1C4A136833B96360146028462D
:1044AC00BDE83840FFF778BFA34208D9206821182F
:1044BC008B4201BF19685B6809182160EDE71A4649
:1044CC005B680BB1A342FAD911685018A0420BD10A
:1044DC0020680144501883421160E0D118685B6871
:1044EC00084410605360DAE702D90C232B60D6E73E
:1044FC00206821188B4201BF19685B68091821607C
:10450C0063605460CBE738BDF40100202DE9F0471F
:10451C001F468E688246BE420C4690460B682CD8CD
:10452C008A8912F4906F26D06569096905EB4505F7
:10453C00A3EB010905EBD5757B1C4B446D109D421B
:10454C0038BF1D46530527D52946FFF79FFE064663
:10455C0060B34A46216900F0EDFAA38923F4906315
:10456C0043F08003A38126614E4426603E4665617C
:10457C00A5EB0905A560BE4200D93E463246414630
:10458C00206800F0AFFA0020A3689B1BA36023688F
:10459C0033442360BDE8F0872A4600F0D9FA06467A
:1045AC000028E0D150462169FFF768FF0C23CAF8B8
:1045BC000030A3894FF0FF3043F04003A381E9E7BB
:1045CC002DE9F04F98468B8907461B060D4614467D
:1045DC009DB00ED50B6963B94021FFF757FE2860DB
:1045EC00286120B90C233B604FF0FF30D0E0402312
:1045FC006B610023099320238DF8293030234FF071
:10460C000109CDF80C80DFF8A0818DF82A30234603
:10461C009A4613F8012B0AB1252AF9D1BAEB040BEF
:10462C000BD05B46224629463846FFF76FFF013018
:10463C0000F0A980099A5A4409929AF80030002B8C
:10464C0000F0A18000234FF0FF32CDE905230AF1E1
:10465C00010A049307938DF853301A93544605229C
:10466C0014F8011B504800F057FA049AD8B9D00638
:10467C0044BF20238DF85330110744BF2B238DF8F2
:10468C0053309AF800302A2B15D0544600204FF0A6
:10469C000A0C079A214611F8013B303B092B4DD9E6
:1046AC00B0B1079214E0A0EB080309FA03F313432B
:1046BC00A2460493D2E7039B191D1B680391002BA0
:1046CC00BBBF5B4242F0020207930793B8BF049250
:1046DC0023782E2B0CD163782A2B34D1039B0234F4
:1046EC001A1D1B680392002BB8BF4FF0FF330593C4
:1046FC00DFF8B8A003225046217800F00DFA38B14B
:10470C004022049BA0EB0A00824013430134049323
:10471C0014F8011B062226488DF8281000F0FCF92D
:10472C00002838D0234B1BBB039B073323F0070314
:10473C0008330393099B3344099368E70C46012023
:10474C000CFB0232A6E700234FF00A0C1946013489
:10475C000593204610F8012B303A092A03D9002B77
:10476C00C6D00591C4E7044601230CFB0121F0E7F8
:10477C0003AB00932A4638460F4B04A9AFF30080D5
:10478C00421C0646D6D1AB895B063FF52DAF099886
:10479C001DB0BDE8F08F03AB00932A463846064B9C
:1047AC0004A900F07DF8EBE7064D00080C4D00085D
:1047BC00104D000800000000194500082DE9F047D5
:1047CC00164699468A680B6907469342B8BF13464A
:1047DC00336091F843200C46DDF820800AB1013398
:1047EC0033602368990642BF33680233336025680F
:1047FC0015F0060506D104F1190AE36832689B1A14
:10480C00AB422BDC94F84320131E226818BF012303
:10481C00920630D44946384604F14302C047013071
:10482C0023D02368226903F00603042B14BF002550
:10483C0033684FF0000608BFE56804F11A0408BF9E
:10484C00ED1A54F8123C08BF25EAE5759342C4BF33
:10485C009B1AED18B5421AD1002008E001235246EC
:10486C0049463846C047013003D14FF0FF30BDE810
:10487C00F0870135C1E73020E11881F843005A1C5C
:10488C0094F845102244023382F84310C2E7012306
:10489C00224649463846C0470130E6D00136D9E7B2
:1048AC002DE9FF470F7E9146782F80460C469A469D
:1048BC000C9D01F1430207D8622F0AD8002F00F09B
:1048CC00D580582F00F0C18004F1420584F8427065
:1048DC003AE0A7F16303152BF6D801A151F823F0A8
:1048EC004549000859490008D5480008D548000832
:1048FC00D5480008D548000859490008D548000893
:10490C00D5480008D5480008D54800085F4A00087B
:10491C0085490008194A0008D5480008D548000800
:10492C00814A0008D548000885490008D548000888
:10493C00D5480008214A00082B681A1D1B682A60FC
:10494C0004F1420584F842300123A0E020682B6872
:10495C00070603F10401296001D51E6803E0460631
:10496C00FBD5B3F90060002E03DA2D23764284F8D0
:10497C0043300A23594812E02B682068191D29601E
:10498C00050601D51E6802E04106FBD51E886F2F77
:10499C000CBF08230A235148002184F84310656892
:1049AC00002DA8BF2168A560A4BF21F004012160DF
:1049BC000EB9002D4BD01546B6FBF3F103FB116776
:1049CC00C75D05F8017D3746BB420E46F4D9082B6E
:1049DC000BD12368DE0708D5236961689942DEBFD5
:1049EC00302305F8013C05F1FF35521B22614B4683
:1049FC0021464046CDF800A003AAFFF7DFFE0130A8
:104A0C004AD14FF0FF3004B0BDE8F087236843F083
:104A1C00200323607827324884F84570236829687E
:104A2C001F0651F8046B02D45F0648BFB6B2DF070D
:104A3C0048BF43F02003296048BF23601EB9236898
:104A4C0023F0200323601023A6E72448E4E715464F
:104A5C00BDE72B682668181D6169286035061B6840
:104A6C0001D5196002E07006FBD5198000231546AC
:104A7C002361BCE72B6800211A1D2A601D6862683F
:104A8C00284600F049F808B1401B60606368236158
:104A9C00002384F84330AAE72A4649464046236956
:104AAC00D0470130ADD023689B0713D4E068039B3B
:104ABC009842B8BF1846A6E70123324649464046FD
:104ACC00D04701309DD00135E36803995B1AAB42A6
:104ADC00F2DCEBE7002504F11906F5E7174D0008A9
:104AEC00284D0008884210B501EB020402D984421B
:104AFC00234607D8431EA14208D011F8012B03F816
:104B0C00012FF8E7014602448A4200D110BD13F888
:104B1C00014D02F8014DF7E7034610B5C9B2024446
:104B2C009342184601D1002003E0047801338C42F3
:104B3C00F6D110BD0A44914200F1FF3300D1704709
:104B4C0010B511F8014B914203F8014FF9D110BD8A
:104B5C002DE9F041804614460E4621B91146BDE8B8
:104B6C00F041FFF793BB2AB9FFF788FC254628468E
:104B7C00BDE8F08100F01BF88442074602D8B4EB84
:104B8C00500F12D821464046FFF780FB05460028FF
:104B9C00EDD0BC422246314628BF3A46FFF7CAFF49
:104BAC0031464046FFF76AFCE1E73546DFE751F84E
:104BBC00043C181F002BBCBF0B58C01870470000DA
:104BCC00F8B500BFF8BC08BC9E467047F8B500BFEE
:084BDC00F8BC08BC9E467047BE
:104BE4000000000046494C4C204F4C442050415397
:104BF4005300000046494C4C204E45572050415329
:104C040053000000524546494C4C20504153530038
:104C140020202020554E4C4F434B20444F4F5200F0
:104C2400504C4541534520524546494C4C000000E8
:104C3400494E56414C494420494E505554000000B9
:104C440020202020204D5920524F4F4D00000000BD
:104C54002020202057454C434F4D4520544F000001
:104C640052454D41494E202564730000424C4F4348
:104C74004B20494E5055540050494E002020535566
:104C8400434345535346554C4C59000020202020A3
:104C9400204348414E47450020202020204D5920E4
:104CA400524F4F4D000000002020202057454C4318
:104CB4004F4D4520544F000050494E203520444963
:104CC4004749545300000000000000004000000069
:104CD4001400000054000000000000000000000068
:104CE400010203040607080900000000010203048E
:104CF40002030405060708090A0B0C0D0E0F101019
:104D04000102232D302B2000686C4C00656667453A
:104D1400464700303132333435363738394142432F
:104D240044454600303132333435363738396162E0
:084D34006364656600000000E5
:044D3C003101000839
:044D40000D01000859
:104D44000F008813373436363400000037343636D3
:104D5400340000000024F4001000000001000000F2
:104D640000000000FC01002064020020CC020020AE
:104D7400000000000000000000000000000000002F
:104D8400000000000000000000000000000000001F
:104D9400000000000000000000000000000000000F
:104DA40000000000000000000000000020000020BF
:040000050800164198
:00000001FF
