:020000040800F2
:1000000000500020090F0008F10D0008F70D00084E
:10001000FD0D0008030E0008090E00080000000096
:100020000000000000000000000000000F0E0008AB
:100030001B0E000800000000270E0008330E000809
:10004000510F0008510F0008510F0008510F000810
:10005000510F0008510F0008510F0008510F000800
:10006000510F0008510F0008510F0008510F0008F0
:10007000510F0008510F0008510F0008510F0008E0
:10008000510F0008510F0008510F0008510F0008D0
:10009000510F0008510F0008510F00083F0E0008D3
:1000A000510F0008510F0008510F0008510F0008B0
:1000B000590E0008510F0008510F0008510F000899
:1000C000510F0008510F0008510F0008510F000890
:1000D000510F00086D0E0008510F0008510F000865
:1000E000810E0008510F0008510F000800000000A9
:1000F0000000000000000000000000000000000000
:0C01000000000000000000005FF808F1A3
:10010C0010B5054C237833B9044B13B10448AFF345
:10011C0000800123237010BD680000200000000047
:10012C00D03F000808B5034B1BB103490348AFF39C
:10013C00008008BD000000006C000020D03F0008CB
:10014C0080B500AF00F000FF00F00FF800F016F9DA
:10015C0000F074F800F044F800F0BCF800F0E4F89B
:10016C0000F0CEFC00F0DAFCFCE780B590B000AFFC
:10017C0007F1180328220021184603F03DFB3B1D14
:10018C0000221A605A609A60DA601A610223BB611D
:10019C000123BB621023FB6200237B6307F118036E
:1001AC00184601F01BFC0346002B01D000F076F939
:1001BC000F237B600023BB600023FB6000233B61AB
:1001CC0000237B613B1D0021184601F089FE03468C
:1001DC00002B01D000F062F900BF4037BD4680BD56
:1001EC0080B500AF124B134A1A60114B124A5A6079
:1001FC000F4B00229A600E4B0022DA600C4B4FF42E
:10020C0080421A610A4B00225A61094B00229A6102
:10021C00074B0022DA61064B00221A62044801F0F7
:10022C0099FA0346002B01D000F038F900BF80BDCD
:10023C008400002000540040A086010080B586B0E8
:10024C0000AF07F1080300221A605A609A60DA6066
:10025C003B4600221A605A601D4B4FF080421A60D8
:10026C001B4B07225A601A4B00229A60184B40F223
:10027C00E732DA60164B00221A61154B00229A61A4
:10028C00134801F0BBFF0346002B01D000F006F928
:10029C004FF48053BB6007F1080319460C4802F079
:1002AC0057F90346002B01D000F0F8F800233B600F
:1002BC0000237B603B461946054802F02DFB0346A4
:1002CC00002B01D000F0EAF800BF1837BD4680BD06
:1002DC00D800002080B500AF114B124A1A60104BA9
:1002EC004FF4E1325A600E4B00229A600C4B002204
:1002FC00DA600B4B00221A61094B0C225A61084B35
:10030C0000229A61064B0022DA61054802F074FB68
:10031C000346002B01D000F0C1F800BF80BD00BF28
:10032C00200100200038014080B500AF114B124A6B
:10033C001A60104B4FF4E1325A600E4B00229A6057
:10034C000C4B0022DA600B4B00221A61094B0C2279
:10035C005A61084B00229A61064B0022DA6105486B
:10036C0002F04AFB0346002B01D000F097F800BFC7
:10037C0080BD00BF680100200044004080B588B0FB
:10038C0000AF07F1100300221A605A609A60DA601D
:10039C003D4B9B693C4A43F0100393613A4B9B697C
:1003AC0003F01003FB60FB68374B9B69364A43F044
:1003BC0004039361344B9B6903F00403BB60BB687B
:1003CC00314B9B69304A43F0080393612E4B9B6978
:1003DC0003F008037B607B6800224FF400512B482C
:1003EC0001F06FF9002240F61B41294801F069F930
:1003FC004FF400533B6101237B610023BB6102235B
:10040C00FB6107F110031946204800F0BFFF1023D1
:10041C003B6100237B610023BB6107F1100319468C
:10042C001C4800F0B3FF4FF487533B611A4B7B61C0
:10043C000123BB6107F110031946164800F0A6FF13
:10044C0040F61B433B6101237B610023BB6102230C
:10045C00FB6107F1100319460D4800F097FF0022CD
:10046C000021172000F0A9FE172000F0C2FE002288
:10047C000021282000F0A1FE282000F0BAFE00BFC9
:10048C002037BD4680BD00BF001002400010014067
:10049C00000C0140000801400000211080B400AFA6
:1004AC0072B600BFFEE7000080B582B000AF034615
:1004BC00FB8000F0A1FD0346A14A1360A04B1A6813
:1004CC00A04B1B68D31AB3F57A7F40F274819E4B14
:1004DC004FF487521A609C4B00225A609A4B0122AF
:1004EC009A60994B0222DA609749984800F04EFFC7
:1004FC0000221021964801F0E4F8012208219448CA
:10050C0001F0DFF801220221914801F0DAF8012212
:10051C0001218F4801F0D5F8FB88B3F5805F0BD132
:10052C004FF48051894801F0B5F80346002B03D1F4
:10053C00884B0F221A7028E0FB88802B0AD180216F
:10054C00824801F0A7F80346002B03D1814B0B2204
:10055C001A701AE0FB88402B0AD140217B4801F02D
:10056C0099F80346002B03D17A4B07221A700CE042
:10057C00FB88202B09D12021744801F08BF803460D
:10058C00002B02D1734B03221A70012210217048E8
:10059C0001F097F8002208216D4801F092F8012231
:1005AC0002216B4801F08DF801220121684801F00D
:1005BC0088F8FB88B3F5805F0BD14FF4805163480A
:1005CC0001F068F80346002B03D1624B0E221A701F
:1005DC0028E0FB88802B0AD180215C4801F05AF876
:1005EC000346002B03D15B4B0A221A701AE0FB88DE
:1005FC00402B0AD14021554801F04CF80346002B02
:10060C0003D1544B06221A700CE0FB88202B09D125
:10061C0020214E4801F03EF80346002B02D14D4BF1
:10062C0002221A7001221021494801F04AF80122D5
:10063C000821474801F045F800220221444801F006
:10064C0040F801220121424801F03BF8FB88B3F548
:10065C00805F0BD14FF480513C4801F01BF80346EE
:10066C00002B03D13B4B0D221A7028E0FB88802B0A
:10067C000AD18021354801F00DF80346002B03D137
:10068C00344B09221A701AE0FB88402B0AD1402106
:10069C002E4800F0FFFF0346002B03D12D4B052203
:1006AC001A700CE0FB88202B09D12021274800F080
:1006BC00F1FF0346002B02D1264B01221A700122B6
:1006CC001021234800F0FDFF01220821204800F0F2
:1006DC00F8FF012202211E4800F0F3FF0022012145
:1006EC001B4800F0EEFFFB88B3F5805F0BD14FF495
:1006FC008051164800F0CEFF0346002B03D1154B5A
:10070C000C221A7035E0FB88802B0AD180210F480F
:10071C0000F0C0FF0346002B03D10E4B08221A70C9
:10072C0027E0FB88402B17D14021084800F0B2FF8E
:10073C000346002B10D1074B04221A7019E000BF9E
:10074C00C4010020C0010020B001002000080140BD
:10075C00000C014000000020FB88202B09D1202137
:10076C00174800F097FF0346002B02D1154B0022CF
:10077C001A7000221021144800F0A3FF0022082157
:10078C00114800F09EFF002202210F4800F099FF53
:10079C00002201210C4800F094FF0C4B0C4A5A60CB
:1007AC000A4B01229A600949054800F0EFFD094BFC
:1007BC001B68094A136000BF0837BD4680BD00BFE7
:1007CC000008014000000020000C0140B001002096
:1007DC0000002110C4010020C001002080B500AF32
:1007EC0000221021094800F06CFF00220821074864
:1007FC0000F067FF00220221044800F062FF002293
:10080C000121024800F05DFF00BF80BD000C0140DB
:10081C0080B400AF024B1B781846BD4680BC7047B5
:10082C000000002080B400AF034BFF221A7000BF01
:10083C00BD4680BC704700BF0000002080B582B070
:10084C0000AF0346FB80FB881846FFF72DFE00BF68
:10085C000837BD4680BD000080B500AF01224FF4C3
:10086C000061024800F02DFF00BF80BD000C01406C
:10087C0080B500AF00224FF40061024800F021FF68
:10088C0000BF80BD000C014080B400AF024B184685
:10089C00BD4680BC704700BF0400002080B500AF8F
:1008AC00034801F0FBFCFFF799FF00BF80BD00BFC0
:1008BC00D800002080B582B000AF78607B681A68E1
:1008CC00044B1B689A4201D100F068F800BF08374E
:1008DC00BD4680BDD800002080B586B000AF7860E2
:1008EC000B467B8013463B800C2002F0A9FE03468E
:1008FC00FB60FB687A681A60FB687A889A80FB68F0
:10090C003A88DA80FB6800229A60234B1B68002B24
:10091C0004D1214AFB681360012339E01E4B1B688C
:10092C007B611D4B1B683B610CE0FB689A883B6943
:10093C009B88D31A9AB2FB689A803B697B613B69AE
:10094C009B683B613B69002B05D0FB689A883B692F
:10095C009B889A42E9D27A693B699A4206D07B69B4
:10096C00FA689A60FB683A699A6005E0FB683A6934
:10097C009A60094AFB6813603B69002B07D03B69FE
:10098C009A88FB689B88D31A9AB23B699A80012398
:10099C0018461837BD4680BDC801002080B400AF92
:1009AC00094B1B68002B0BD0074B1B689B88002B3B
:1009BC0007D0054B1B689A88013A92B29A8000E0E6
:1009CC0000BFBD4680BC7047C801002080B582B016
:1009DC0000AF78607B68002B03D0786802F038FE9B
:1009EC0000E000BF0837BD4680BD000080B582B076
:1009FC0000AF184B1B68002B01D1002326E0154BD0
:100A0C001B689B88002B20D1124B1B681B689847D6
:100A1C00104B1B687B600F4B1B689B680D4A136067
:100A2C007B6800229A607B68DB88002B08D07B688F
:100A3C0018687B68D9887B68DB881A46FFF74CFFFF
:100A4C007868FFF7C3FF012300E00023184608373E
:100A5C00BD4680BDC801002080B500AF4FF40051E9
:100A6C00024800F046FE00BF80BD00BF00100140F0
:100A7C0080B483B000AF0346FB7100BF0C37BD469A
:100A8C0080BC704780B582B000AF0346FB71FB7928
:100A9C00184600F067F800F049F800BF0837BD466B
:100AAC0080BD80B582B000AFFFF7B2FE0346FB718C
:100ABC00FB79FF2B0BD0FFF7CFFFFB791846FFF725
:100ACC00D7FFFB791846FFF7DDFFFFF7ABFE00BF42
:100ADC000837BD4680BD000080B500AF0022002164
:100AEC000548FFF7F9FE002241F288310348FFF771
:100AFC00F3FE00BF80BD00BF650800087D0800083C
:100B0C0080B500AFFFF7CAFE41F65832002102480B
:100B1C00FFF7E2FE00BF80BDE50A000880B500AF1C
:100B2C00FFF764FFFFF7BDFF00BF80BD80B588B045
:100B3C0000AFFFF7A9FE02463B460849184602F0F3
:100B4C003BFE0346FB77FB7F9AB239460A230448E7
:100B5C0001F0A2FF00BF2037BD4680BDE83F000872
:100B6C006801002080B58AB000AF0346FB71FA1D06
:100B7C0007F108030949184602F01EFE034687F8E0
:100B8C00273097F827309AB207F108010A23044856
:100B9C0001F082FF00BF2837BD4680BDF43F00083E
:100BAC006801002080B485B000AF154B9B69144AD6
:100BBC0043F001039361124B9B6903F00103BB608B
:100BCC00BB680F4BDB690E4A43F08053D3610C4B6F
:100BDC00DB6903F080537B607B680A4B5B68FB60CE
:100BEC00FB6823F0E063FB60FB6843F00073FB6081
:100BFC00044AFB68536000BF1437BD4680BC704785
:100C0C00001002400000014080B588B000AF786051
:100C1C0007F1100300221A605A609A60DA607B6850
:100C2C001B68154A934223D1144B9B69134A43F01A
:100C3C0008039361114B9B6903F00803FB60FB688D
:100C4C00C0233B6112237B610323FB6107F110037B
:100C5C0019460B4800F09AFB084BDB69074A43F432
:100C6C000013D361054BDB6903F40013BB60BB6855
:100C7C0000BF2037BD4680BD00540040001002402C
:100C8C00000C014080B584B000AF78607B681B68B5
:100C9C00B3F1804F13D10C4BDB690B4A43F00103CA
:100CAC00D361094BDB6903F00103FB60FB68002295
:100CBC0000211C2000F081FA1C2000F09AFA00BFE1
:100CCC001037BD4680BD00BF0010024080B58AB011
:100CDC0000AF786007F1180300221A605A609A601E
:100CEC00DA607B681B683B4A93423AD13A4B9B696A
:100CFC00394A43F480439361374B9B6903F4804337
:100D0C007B617B69344B9B69334A43F004039361E9
:100D1C00314B9B6903F004033B613B694FF4007357
:100D2C00BB610223FB6103237B6207F118031946A5
:100D3C002A4800F02BFB4FF48063BB610023FB615E
:100D4C0000233B6207F118031946244800F01EFBF0
:100D5C0000220021252000F030FA252000F049FA6D
:100D6C0034E07B681B681E4A93422FD11A4BDB6917
:100D7C00194A43F40033D361174BDB6903F4003396
:100D8C00FB60FB68144B9B69134A43F004039361AB
:100D9C00114B9B6903F00403BB60BB680423BB616C
:100DAC000223FB6103237B6207F1180319460B48EE
:100DBC0000F0ECFA0823BB610023FB6100233B62CB
:100DCC0007F118031946054800F0E0FA00BF283770
:100DDC00BD4680BD003801400010024000080140B3
:100DEC000044004080B400AFFEE780B400AFFEE7E3
:100DFC0080B400AFFEE780B400AFFEE780B400AF74
:100E0C00FEE780B400AF00BFBD4680BC704780B425
:100E1C0000AF00BFBD4680BC704780B400AF00BFC0
:100E2C00BD4680BC704780B500AF00F0D3F800BF62
:100E3C0080BD80B500AF202000F074FC402000F095
:100E4C0071FC802000F06EFC00BF80BD80B500AF4F
:100E5C00024801F075FA00BF80BD00BFD800002029
:100E6C0080B500AF024801F09BFE00BF80BD00BF03
:100E7C002001002080B500AF4FF4805000F052FCF0
:100E8C0000BF80BD80B586B000AF7860144A154BAA
:100E9C00D31A7B617B693B61134B1B68002B02D11E
:100EAC00114B124A1A60104B1A687B6813443A694A
:100EBC009A4207D202F0B8FC03460C221A604FF09B
:100ECC00FF3309E0084B1B68FB60074B1A687B6813
:100EDC001344054A1360FB6818461837BD4680BD9D
:100EEC000050002000040000CC0100202003002052
:100EFC0080B400AF00BFBD4680BC7047FFF7F8FF61
:100F0C000B480C490C4A002302E0D458C45004335B
:100F1C00C4188C42F9D3094A094C002301E0136030
:100F2C000432A242FBD302F085FCFFF709F97047AB
:100F3C0000000020680000206840000868000020C5
:100F4C001C030020FEE7000080B500AF084B1B68B7
:100F5C00074A43F010031360032000F023F90F201D
:100F6C0000F008F8FFF71EFE0023184680BD00BFF6
:100F7C000020024080B582B000AF7860124B1A6836
:100F8C00124B1B7819464FF47A73B3FBF1F3B2FB97
:100F9C00F3F3184600F03BF90346002B01D0012374
:100FAC000EE07B680F2B0AD8002279684FF0FF30D7
:100FBC0000F003F9064A7B681360002300E001236C
:100FCC0018460837BD4680BD0C00002014000020D8
:100FDC001000002080B400AF054B1B781A46054B5F
:100FEC001B681344034A136000BFBD4680BC7047A6
:100FFC0014000020D001002080B400AF024B1B680D
:10100C001846BD4680BC7047D001002080B485B026
:10101C0000AF78607B6803F00703FB600C4BDB6868
:10102C00BB60BA684FF6FF031340BB60FB681A0243
:10103C00BB68134343F0BF6343F40033BB60044A03
:10104C00BB68D36000BF1437BD4680BC704700BF7F
:10105C0000ED00E080B400AF044BDB681B0A03F02A
:10106C0007031846BD4680BC704700BF00ED00E08A
:10107C0080B483B000AF0346FB7197F90730002BA7
:10108C000BDBFB7903F01F02064997F907305B096C
:10109C00012000FA02F241F8232000BF0C37BD46B4
:1010AC0080BC704700E100E080B483B000AF034621
:1010BC003960FB7197F90730002B0ADB3B68DAB219
:1010CC000C4997F907301201D2B20B4483F8002374
:1010DC000AE03B68DAB20849FB7903F00F03043BE2
:1010EC001201D2B20B441A7600BF0C37BD4680BC3D
:1010FC00704700BF00E100E000ED00E080B489B073
:10110C0000AFF860B9607A60FB6803F00703FB611D
:10111C00FB69C3F10703042B28BF0423BB61FB69E4
:10112C000433062B02D9FB69033B00E000237B61EF
:10113C004FF0FF32BB6902FA03F3DA43BB681A4083
:10114C007B699A404FF0FF317B6901FA03F3D94375
:10115C007B680B40134318462437BD4680BC704750
:10116C0080B582B000AF78607B68013BB3F1807FC3
:10117C0001D301230FE00A4A7B68013B53600F2126
:10118C004FF0FF30FFF790FF054B00229A60044BA5
:10119C0007221A60002318460837BD4680BD00BFE1
:1011AC0010E000E080B582B000AF78607868FFF79F
:1011BC002DFF00BF0837BD4680BD80B586B000AF9F
:1011CC000346B9607A60FB7300237B61FFF742FF33
:1011DC0078617A68B9687869FFF790FF024697F9E9
:1011EC000F3011461846FFF75FFF00BF1837BD469A
:1011FC0080BD80B582B000AF0346FB7197F9073014
:10120C001846FFF735FF00BF0837BD4680BD80B5D7
:10121C0082B000AF78607868FFF7A2FF03461846EB
:10122C000837BD4680BD80B485B000AF7860002320
:10123C00FB737B6893F82130DBB2022B08D07B6800
:10124C0004229A637B68002283F82020012320E08B
:10125C007B681B681A687B681B6822F00E021A6098
:10126C007B681B681A687B681B6822F001021A6095
:10127C007B681A6C7B68DB6B012101FA02F25A6005
:10128C007B68012283F821207B68002283F82020D0
:10129C00FB7B18461437BD4680BC704780B584B0C4
:1012AC0000AF78600023FB737B6893F82130DBB2CE
:1012BC00022B05D07B6804229A630123FB7351E057
:1012CC007B681B681A687B681B6822F00E021A6028
:1012DC007B681B681A687B681B6822F001021A6025
:1012EC007B681B68224A934229D07B681B68214A81
:1012FC00934222D07B681B681F4A93421AD07B68AA
:10130C001B681E4A934212D07B681B681C4A93428E
:10131C000AD07B681B681B4A934202D14FF480139E
:10132C000EE04FF080730BE04FF4803308E04FF485
:10133C00805305E04FF4807302E0102300E001239A
:10134C00114A53607B68012283F821207B680022BC
:10135C0083F820207B685B6B002B03D07B685B6B76
:10136C0078689847FB7B18461037BD4680BD00BF98
:10137C00080002401C0002403000024044000240C1
:10138C00580002406C0002400000024080B48BB058
:10139C0000AF7860396000237B6200233B6269E117
:1013AC0001227B6A02FA03F3FB613B681B68FA6952
:1013BC001340BB61BA69FB699A4240F058813B68A3
:1013CC005B689A4A93425ED0984A934275D8984A81
:1013DC00934258D0964A93426FD8964A934252D031
:1013EC00944A934269D8944A93424CD0924A93427D
:1013FC0063D8924A934246D0904A93425DD8122BBE
:10140C002AD8122B59D801A252F823F093140008B1
:10141C006D1400087F140008C1140008C7140008DC
:10142C00C7140008C7140008C7140008C714000824
:10143C00C7140008C7140008C7140008C714000814
:10144C00C7140008C7140008C7140008C714000804
:10145C007514000889140008794A934213D02CE0C3
:10146C003B68DB683B6229E03B68DB6804333B622A
:10147C0024E03B68DB6808333B621FE03B68DB68B9
:10148C000C333B621AE03B689B68002B02D10423AF
:10149C003B6213E03B689B68012B05D108233B6240
:1014AC007B68FA691A6109E008233B627B68FA6978
:1014BC005A6103E000233B6200E000BFBB69FF2BD5
:1014CC0001D87B6801E07B6804337B61BB69FF2B2F
:1014DC0002D87B6A9B0002E07B6A083B9B003B6165
:1014EC007B691A680F213B6901FA03F3DB431A404D
:1014FC00396A3B6901FA03F31A437B691A603B684A
:10150C005B6803F08053002B00F0B1804D4B9B695E
:10151C004C4A43F0010393614A4B9B6903F001036E
:10152C00BB60BB68484A7B6A9B08023352F8233085
:10153C00FB607B6A03F003039B000F2202FA03F3A8
:10154C00DB43FA681340FB607B68404A934213D03C
:10155C007B683F4A93420DD07B683E4A934207D04A
:10156C007B683D4A934201D1032306E0042304E047
:10157C00022302E0012300E000237A6A02F0030256
:10158C0092009340FA681343FB602F497B6A9B08D7
:10159C000233FA6841F823203B685B6803F480133C
:1015AC00002B06D02D4B9A682C49BB6913438B60DA
:1015BC0006E02A4B9A68BB69DB43284913408B60D1
:1015CC003B685B6803F40013002B06D0234BDA68EE
:1015DC002249BB691343CB6006E0204BDA68BB6938
:1015EC00DB431E491340CB603B685B6803F400335C
:1015FC00002B06D0194B5A681849BB6913434B6032
:10160C0006E0164B5A68BB69DB43144913404B6028
:10161C003B685B6803F48033002B21D00F4B1A68B6
:10162C000E49BB6913430B6021E000BF0000321070
:10163C0000003110000022100000211000001210D8
:10164C000000111000100240000001400008014091
:10165C00000C014000100140001401400004014046
:10166C000B4B1A68BB69DB43094913400B607B6A5F
:10167C0001337B623B681A687B6A22FA03F3002B06
:10168C007FF48EAE00BF00BF2C37BD4680BC7047C8
:10169C000004014080B485B000AF78600B467B80BD
:1016AC007B689A687B881340002B02D00123FB7364
:1016BC0001E00023FB73FB7B18461437BD4680BC4E
:1016CC00704780B483B000AF78600B467B801346C4
:1016DC007B707B78002B03D07A887B681A6103E0DF
:1016EC007B881A047B681A6100BF0C37BD4680BC2E
:1016FC00704780B485B000AF78600B467B807B6808
:10170C00DB68FB607A88FB6813401A04FB68D943DA
:10171C007B880B401A437B681A6100BF1437BD46A7
:10172C0080BC704780B582B000AF0346FB80084B8D
:10173C005A69FB881340002B06D0054AFB8853617D
:10174C00FB881846FFF77AF800BF0837BD4680BD06
:10175C000004014080B584B000AF78607B68002B3A
:10176C0001D101232BE17B6893F83D30DBB2002BD8
:10177C0006D17B68002283F83C207868FFF744FA96
:10178C007B68242283F83D207B681B681A687B6881
:10179C001B6822F001021A607B681B681A687B6860
:1017AC001B6842F400421A607B681B681A687B68ED
:1017BC001B6822F400421A6000F0DAFCF8607B68C7
:1017CC005B68814A934207D8FB68804A934294BF76
:1017DC0001230023DBB206E0FB687D4A934294BFF1
:1017EC0001230023DBB2002B01D00123E7E0FB68CF
:1017FC00784AA2FB03239B0CBB607B681B685B686D
:10180C0023F03F017B681B68BA680A435A607B6807
:10181C001B681B6A23F03F017B685B686A4A934232
:10182C0002D8BB68013309E0BB684FF4967202FB27
:10183C0003F3694AA2FB03239B0901337A681268FC
:10184C000B4313627B681B68DB6923F44F4222F065
:10185C00FF027B685B685C498B4219D8FB68591E98
:10186C007B685B685B00B1FBF3F3591C40F6FC73BF
:10187C000B40002B0AD0FB68591E7B685B685B0031
:10188C00B1FBF3F30133C3F30B0351E004234FE03B
:10189C007B689B68002B11D1FB68581E7B685968CC
:1018AC000B465B000B44B0FBF3F30133C3F30B03A8
:1018BC00002B0CBF01230023DBB212E0FB68581E87
:1018CC007B6859680B469B000B4499000B44B0FB9A
:1018DC00F3F30133C3F30B03002B0CBF01230023E1
:1018EC00DBB2002B01D0012322E07B689B68002B2C
:1018FC000ED1FB68581E7B6859680B465B000B4485
:10190C00B0FBF3F30133C3F30B0343F400430FE0D9
:10191C00FB68581E7B6859680B469B000B4499006A
:10192C000B44B0FBF3F30133C3F30B0343F4404319
:10193C00796809681343CB617B681B681B6823F0CB
:10194C00C0017B68DA697B681B6A1A437B681B6879
:10195C000A431A607B681B689B6823F4034323F0DB
:10196C00FF037A6811697A68D26811437A68126841
:10197C000B4393607B681B68DB6823F0FF017B687B
:10198C005A697B689B691A437B681B680A43DA6057
:10199C007B681B681A687B681B6842F001021A603E
:1019AC007B6800221A647B68202283F83D207B68C8
:1019BC0000221A637B68002283F83E20002318461D
:1019CC001037BD4680BD00BFA08601007F841E007D
:1019DC00FF083D0083DE1B43D34D621080B586B0FB
:1019EC0000AF78607B68002B01D1012372E27B6829
:1019FC001B6803F00103002B00F08780924B5B689F
:101A0C0003F00C03042B0CD08F4B5B6803F00C031E
:101A1C00082B12D18C4B5B6803F48033B3F5803FF9
:101A2C000BD1894B1B6803F40033002B6CD07B6803
:101A3C005B68002B68D101234CE27B685B68B3F5D3
:101A4C00803F06D1804B1B687F4A43F48033136080
:101A5C002EE07B685B68002B0CD17B4B1B687A4AB1
:101A6C0023F480331360784B1B68774A23F480236C
:101A7C0013601DE07B685B68B3F5A02F0CD1724B33
:101A8C001B68714A43F4802313606F4B1B686E4ACA
:101A9C0043F4803313600BE06B4B1B686A4A23F4EE
:101AAC0080331360684B1B68674A23F480231360F0
:101ABC007B685B68002B13D0FFF79EFA386108E057
:101ACC00FFF79AFA02463B69D31A642B01D9032318
:101ADC0000E25D4B1B6803F40033002BF0D014E0E4
:101AEC00FFF78AFA386108E0FFF786FA02463B698D
:101AFC00D31A642B01D90323ECE1534B1B6803F479
:101B0C000033002BF0D100E000BF7B681B6803F0B2
:101B1C000203002B63D04C4B5B6803F00C03002BCF
:101B2C000BD0494B5B6803F00C03082B1CD1464BC4
:101B3C005B6803F48033002B16D1434B1B6803F016
:101B4C000203002B05D07B681B69012B01D00123FC
:101B5C00C0E13D4B1B6823F0F8027B685B69DB003E
:101B6C00394913430B603AE07B681B69002B20D08A
:101B7C00364B01221A60FFF73FFA386108E0FFF795
:101B8C003BFA02463B69D31A022B01D90323A1E18C
:101B9C002D4B1B6803F00203002BF0D02A4B1B6863
:101BAC0023F0F8027B685B69DB00274913430B6069
:101BBC0015E0264B00221A60FFF71EFA386108E088
:101BCC00FFF71AFA02463B69D31A022B01D90323F9
:101BDC0080E11D4B1B6803F00203002BF0D17B68E6
:101BEC001B6803F00803002B3AD07B689B69002B21
:101BFC0019D0174B01221A60FFF7FEF9386108E083
:101C0C00FFF7FAF902463B69D31A022B01D90323D9
:101C1C0060E10D4B5B6A03F00203002BF0D0012056
:101C2C0000F0CEFA1CE00A4B00221A60FFF7E4F930
:101C3C0038610FE0FFF7E0F902463B69D31A022B3B
:101C4C0008D9032346E100BF0010024000004242C5
:101C5C0080044242924B5B6A03F00203002BE9D1F1
:101C6C007B681B6803F00403002B00F0A6800023A4
:101C7C00FB758B4BDB6903F08053002B0DD1884B2C
:101C8C00DB69874A43F08053D361854BDB6903F0F2
:101C9C008053BB60BB680123FB75824B1B6803F44C
:101CAC008073002B18D17F4B1B687E4A43F48073E2
:101CBC001360FFF7A1F9386108E0FFF79DF90246C0
:101CCC003B69D31A642B01D9032303E1754B1B68C1
:101CDC0003F48073002BF0D07B68DB68012B06D1FA
:101CEC006F4B1B6A6E4A43F0010313622DE07B6855
:101CFC00DB68002B0CD16A4B1B6A694A23F0010389
:101D0C001362674B1B6A664A23F0040313621CE0E0
:101D1C007B68DB68052B0CD1614B1B6A604A43F076
:101D2C00040313625E4B1B6A5D4A43F001031362AA
:101D3C000BE05B4B1B6A5A4A23F001031362584BAE
:101D4C001B6A574A23F0040313627B68DB68002B81
:101D5C0015D0FFF751F938610AE0FFF74DF902464B
:101D6C003B69D31A41F28832934201D90323B1E083
:101D7C004B4B1B6A03F00203002BEED014E0FFF771
:101D8C003BF938610AE0FFF737F902463B69D31A91
:101D9C0041F28832934201D903239BE0404B1B6AEA
:101DAC0003F00203002BEED1FB7D012B05D13C4B44
:101DBC00DB693B4A23F08053D3617B68DB69002BE2
:101DCC0000F08780364B5B6803F00C03082B61D066
:101DDC007B68DB69022B46D1334B00221A60FFF77C
:101DEC000BF9386108E0FFF707F902463B69D31A93
:101DFC00022B01D903236DE0294B1B6803F0007300
:101E0C00002BF0D17B681B6AB3F5803F08D1244BC3
:101E1C005B6823F400327B689B68214913434B6059
:101E2C001F4B5B6823F474127B68196A7B685B6ACE
:101E3C000B431B4913434B601B4B01221A60FFF7EA
:101E4C00DBF8386108E0FFF7D7F802463B69D31A94
:101E5C00022B01D903233DE0114B1B6803F00073E7
:101E6C00002BF0D035E0104B00221A60FFF7C4F8BD
:101E7C00386108E0FFF7C0F802463B69D31A022B21
:101E8C0001D9032326E0064B1B6803F00073002BDB
:101E9C00F0D11EE07B68DB69012B07D1012319E02F
:101EAC000010024000700040600042420B4B5B6827
:101EBC00FB60FB6803F480327B681B6A9A4206D194
:101ECC00FB6803F470127B685B6A9A4201D00123B1
:101EDC0000E0002318461837BD4680BD00100240B4
:101EEC0080B584B000AF786039607B68002B01D17D
:101EFC000123D0E06A4B1B6803F007033A689A424F
:101F0C0010D9674B1B6823F0070265493B681343E4
:101F1C000B60634B1B6803F007033A689A4201D0CD
:101F2C000123B8E07B681B6803F00203002B20D070
:101F3C007B681B6803F00403002B05D0594B5B68CE
:101F4C00584A43F4E06353607B681B6803F0080352
:101F5C00002B05D0534B5B68524A43F460535360DB
:101F6C00504B5B6823F0F0027B689B684D49134330
:101F7C004B607B681B6803F00103002B40D07B682F
:101F8C005B68012B07D1474B1B6803F40033002B14
:101F9C0015D101237FE07B685B68022B07D1414B95
:101FAC001B6803F00073002B09D1012373E03D4B38
:101FBC001B6803F00203002B01D101236BE0394BAA
:101FCC005B6823F003027B685B68364913434B6004
:101FDC00FFF712F8F8600AE0FFF70EF80246FB680C
:101FEC00D31A41F28832934201D9032353E02D4B8B
:101FFC005B6803F00C027B685B689B009A42EBD138
:10200C00274B1B6803F007033A689A4210D2244B03
:10201C001B6823F0070222493B6813430B60204BDB
:10202C001B6803F007033A689A4201D0012332E09F
:10203C007B681B6803F00403002B08D0194B5B680A
:10204C0023F4E0627B68DB68164913434B607B68C2
:10205C001B6803F00803002B09D0124B5B6823F4B8
:10206C0060527B681B69DB000E4913434B6000F028
:10207C0021F802460B4B5B681B0903F00F030A495E
:10208C00CB5C22FA03F3094A1360094B1B68184610
:10209C00FEF770FF002318461037BD4680BD00BF09
:1020AC000020024000100240004000080C000020FC
:1020BC001000002080B487B000AF0023FB60002329
:1020CC00BB6000237B6100237B6000233B611E4BC4
:1020DC005B68FB60FB6803F00C03042B02D0082B3D
:1020EC0003D027E0194B3B6127E0FB689B0C03F006
:1020FC000F03174AD35C7B60FB6803F48033002B1F
:10210C0010D0114B5B685B0C03F00103114AD35CDC
:10211C00BB607B680D4A03FB02F2BB68B2FBF3F3B6
:10212C007B6104E07B680C4A02FB03F37B617B69F7
:10213C003B6102E0054B3B6100BF3B6918461C3715
:10214C00BD4680BC704700BF0010024000127A00F0
:10215C00184000082840000800093D0080B400AF7A
:10216C00024B1B681846BD4680BC70470C00002013
:10217C0080B500AFFFF7F2FF0246054B5B681B0A08
:10218C0003F007030349CB5C22FA03F3184680BD26
:10219C00001002401040000880B500AFFFF7DEFFD2
:1021AC000246054B5B68DB0A03F007030349CB5C73
:1021BC0022FA03F3184680BD0010024010400008BC
:1021CC0080B485B000AF78600A4B1B680A4AA2FB4A
:1021DC0003235B0A7A6802FB03F3FB6000BFFB6816
:1021EC005A1EFA60002BF9D100BF00BF1437BD4650
:1021FC0080BC70470C000020D34D621080B582B0BB
:10220C0000AF78607B68002B01D1012341E07B6833
:10221C0093F83D30DBB2002B06D17B68002283F8AB
:10222C003C207868FEF72EFD7B68022283F83D2067
:10223C007B681A687B6804331946104600F074FA00
:10224C007B68012283F846207B68012283F83E20BC
:10225C007B68012283F83F207B68012283F84020B1
:10226C007B68012283F841207B68012283F842209D
:10227C007B68012283F843207B68012283F8442089
:10228C007B68012283F845207B68012283F83D207E
:10229C00002318460837BD4680BD000080B485B0C9
:1022AC0000AF78607B6893F83D30DBB2012B01D036
:1022BC0001233AE07B68022283F83D207B681B688F
:1022CC00DA687B681B6842F00102DA607B681B6885
:1022DC00184A93420ED07B681B68B3F1804F09D02B
:1022EC007B681B68144A934204D07B681B68134AB2
:1022FC00934211D17B681B689B6803F00703FB605A
:10230C00FB68062B10D07B681B681A687B681B68FF
:10231C0042F001021A6007E07B681B681A687B6850
:10232C001B6842F001021A60002318461437BD46A0
:10233C0080BC7047002C01400004004000080040A5
:10234C0080B582B000AF78607B681B681B6903F0B6
:10235C000203022B22D17B681B68DB6803F00203AB
:10236C00022B1BD17B681B686FF002021A617B6821
:10237C0001221A777B681B689B6903F00303002B0F
:10238C0003D0786800F0B4F905E0786800F0A7F99C
:10239C00786800F0B6F97B6800221A777B681B68B6
:1023AC001B6903F00403042B22D17B681B68DB68D8
:1023BC0003F00403042B1BD17B681B686FF0040231
:1023CC001A617B6802221A777B681B689B6903F48D
:1023DC004073002B03D0786800F08AF905E0786828
:1023EC0000F07DF9786800F08CF97B6800221A7790
:1023FC007B681B681B6903F00803082B22D17B68E0
:10240C001B68DB6803F00803082B1BD17B681B6877
:10241C006FF008021A617B6804221A777B681B68CC
:10242C00DB6903F00303002B03D0786800F060F93C
:10243C0005E0786800F053F9786800F062F97B6881
:10244C0000221A777B681B681B6903F01003102BA2
:10245C0022D17B681B68DB6803F01003102B1BD1A7
:10246C007B681B686FF010021A617B6808221A7770
:10247C007B681B68DB6903F44073002B03D078681E
:10248C0000F036F905E0786800F029F9786800F07A
:10249C0038F97B6800221A777B681B681B6903F08C
:1024AC000103012B0ED17B681B68DB6803F0010371
:1024BC00012B07D17B681B686FF001021A617868E9
:1024CC00FEF7F8F97B681B681B6903F08003802B0F
:1024DC000ED17B681B68DB6803F08003802B07D16F
:1024EC007B681B686FF080021A61786800F07BFAD9
:1024FC007B681B681B6903F04003402B0ED17B6883
:10250C001B68DB6803F04003402B07D17B681B681A
:10251C006FF040021A61786800F0FCF87B681B6869
:10252C001B6903F02003202B0ED17B681B68DB6832
:10253C0003F02003202B07D17B681B686FF020026F
:10254C001A61786800F046FA00BF0837BD4680BDB6
:10255C0080B584B000AF786039600023FB737B6872
:10256C0093F83C30012B01D10223B4E07B680122AB
:10257C0083F83C207B68022283F83D207B681B6833
:10258C009B68BB60BB6823F07703BB60BB6823F41C
:10259C007F43BB607B681B68BA689A603B681B68AA
:1025AC00B3F5005F3ED0B3F5005F00F28780B3F562
:1025BC00805F00F08680B3F5805F7FD8702B1AD0D7
:1025CC00702B7BD8602B50D0602B77D8502B3CD005
:1025DC00502B73D8402B58D0402B6FD8302B64D055
:1025EC00302B6BD8202B60D0202B67D8002B5CD0E5
:1025FC00102B5AD062E07B6818683B6899683B687E
:10260C005A683B68DB6800F068F97B681B689B685C
:10261C00BB60BB6843F07703BB607B681B68BA6820
:10262C009A604FE07B6818683B6899683B685A6809
:10263C003B68DB6800F051F97B681B689A687B6823
:10264C001B6842F480429A603CE07B6818683B68E7
:10265C0059683B68DB681A4600F0C8F87B681B6851
:10266C005021184600F01FF92CE07B6818683B6875
:10267C0059683B68DB681A4600F0E6F87B681B6813
:10268C006021184600F00FF91CE07B6818683B6865
:10269C0059683B68DB681A4600F0A8F87B681B6831
:1026AC004021184600F0FFF80CE07B681A683B6884
:1026BC001B681946104600F0F6F803E00123FB7383
:1026CC0000E000BF7B68012283F83D207B6800227C
:1026DC0083F83C20FB7B18461037BD4680BD80B488
:1026EC0083B000AF786000BF0C37BD4680BC70472C
:1026FC0080B483B000AF786000BF0C37BD4680BC9F
:10270C00704780B483B000AF786000BF0C37BD4613
:10271C0080BC704780B483B000AF786000BF0C37CA
:10272C00BD4680BC7047000080B485B000AF7860B7
:10273C0039607B681B68FB607B68294A93420BD02D
:10274C007B68B3F1804F07D07B68264A934203D055
:10275C007B68254A934208D1FB6823F07003FB6029
:10276C003B685B68FA681343FB607B681C4A9342C6
:10277C000BD07B68B3F1804F07D07B68194A93422A
:10278C0003D07B68184A934208D1FB6823F440734A
:10279C00FB603B68DB68FA681343FB60FB6823F063
:1027AC0080023B685B691343FB607B68FA681A60C4
:1027BC003B689A687B68DA623B681A687B689A6245
:1027CC007B68074A934203D13B681A697B681A639A
:1027DC007B6801225A6100BF1437BD4680BC70472C
:1027EC00002C0140000400400008004080B487B079
:1027FC0000AFF860B9607A60FB681B6A7B61FB68AC
:10280C001B6A23F00102FB681A62FB689B693B613F
:10281C003B6923F0F0033B617B681B013A6913436E
:10282C003B617B6923F00A037B617A69BB681343C4
:10283C007B61FB683A699A61FB687A691A6200BF2E
:10284C001C37BD4680BC704780B487B000AFF860C1
:10285C00B9607A60FB681B6A7B61FB681B6A23F0BA
:10286C001002FB681A62FB689B693B613B6923F4AD
:10287C0070433B617B681B033A6913433B617B6983
:10288C0023F0A0037B61BB681B017A6913437B6156
:10289C00FB683A699A61FB687A691A6200BF1C3757
:1028AC00BD4680BC704780B485B000AF786039609D
:1028BC007B689B68FB60FB6823F07003FB603A68E5
:1028CC00FB68134343F00703FB607B68FA689A606C
:1028DC0000BF1437BD4680BC704780B487B000AFD2
:1028EC00F860B9607A603B60FB689B687B617B69D0
:1028FC0023F47F437B613B681A027B681A43BB68F5
:10290C0013437A6913437B61FB687A699A6000BF51
:10291C001C37BD4680BC704780B485B000AF786072
:10292C0039607B6893F83C30012B01D1022346E0DF
:10293C007B68012283F83C207B68022283F83D20CF
:10294C007B681B685B68FB607B681B689B68BB6073
:10295C00FB6823F07003FB603B681B68FA68134349
:10296C00FB607B681B68FA685A607B681B68164AB8
:10297C0093420ED07B681B68B3F1804F09D07B6803
:10298C001B68124A934204D07B681B68104A93421E
:10299C000CD1BB6823F08003BB603B685B68BA68F2
:1029AC001343BB607B681B68BA689A607B68012222
:1029BC0083F83D207B68002283F83C2000231846D6
:1029CC001437BD4680BC7047002C01400004004009
:1029DC000008004080B483B000AF786000BF0C37B3
:1029EC00BD4680BC704780B483B000AF786000BF38
:1029FC000C37BD4680BC704780B582B000AF7860A4
:102A0C007B68002B01D1012342E07B6893F84130B5
:102A1C00DBB2002B06D17B68002283F8402078685B
:102A2C00FEF754F97B68242283F841207B681B68ED
:102A3C00DA687B681B6822F40052DA60786800F070
:102A4C0071FD7B681B681A697B681B6822F49042D5
:102A5C001A617B681B685A697B681B6822F02A0222
:102A6C005A617B681B68DA687B681B6842F4005209
:102A7C00DA607B6800225A647B68202283F841204C
:102A8C007B68202283F842207B6800225A63002353
:102A9C0018460837BD4680BD80B58AB002AFF860D5
:102AAC00B9603B601346FB8000237B61FB6893F8A5
:102ABC004130DBB2202B6DD1BB68002B02D0FB88E0
:102ACC00002B01D1012366E0FB6800225A64FB68ED
:102ADC00212283F84120FEF78FFA7861FB68FA888F
:102AEC009A84FB68FA88DA84FB689B68B3F5805F8C
:102AFC0008D1FB681B69002B04D10023FB61BB6868
:102B0C00BB6103E0BB68FB610023BB612AE03B684F
:102B1C0000937B6900228021F86800F0F9FA0346E3
:102B2C00002B01D0032336E0FB69002B0BD1BB69D2
:102B3C001B881A46FB681B68C2F308025A60BB6903
:102B4C000233BB6107E0FB691A78FB681B685A60AB
:102B5C00FB690133FB61FB68DB8C9BB2013B9AB2D6
:102B6C00FB68DA84FB68DB8C9BB2002BCFD13B6813
:102B7C0000937B6900224021F86800F0C9FA0346F3
:102B8C00002B01D0032306E0FB68202283F84120B0
:102B9C00002300E0022318462037BD4680BD00000C
:102BAC0080B5BAB000AF78607B681B681B68C7F84B
:102BBC00E4307B681B68DB68C7F8E0307B681B6817
:102BCC005B69C7F8DC300023C7F8D8300023C7F89E
:102BDC00D430D7F8E43003F00F03C7F8D830D7F867
:102BEC00D830002B0FD1D7F8E43003F02003002BA2
:102BFC0009D0D7F8E03003F02003002B03D078681D
:102C0C0000F0D1FB5BE2D7F8D830002B00F0DE806F
:102C1C00D7F8DC3003F00103002B06D1D7F8E030F5
:102C2C0003F49073002B00F0D180D7F8E43003F05C
:102C3C000103002B0BD0D7F8E03003F48073002B8A
:102C4C0005D07B685B6C43F001027B685A64D7F853
:102C5C00E43003F00403002B0BD0D7F8DC3003F086
:102C6C000103002B05D07B685B6C43F002027B6890
:102C7C005A64D7F8E43003F00203002B0BD0D7F8DA
:102C8C00DC3003F00103002B05D07B685B6C43F058
:102C9C0004027B685A64D7F8E43003F00803002B75
:102CAC0011D0D7F8E03003F02003002B05D1D7F872
:102CBC00DC3003F00103002B05D07B685B6C43F028
:102CCC0008027B685A647B685B6C002B00F0F28115
:102CDC00D7F8E43003F02003002B08D0D7F8E0300D
:102CEC0003F02003002B02D0786800F05CFB7B68BB
:102CFC001B685B6903F04003002B14BF0123002306
:102D0C00DBB2C7F8D4307B685B6C03F00803002B94
:102D1C0003D1D7F8D430002B4FD0786800F066FA86
:102D2C007B681B685B6903F04003002B41D07B6818
:102D3C001B681433C7F89C30D7F89C3053E8003F1D
:102D4C00C7F89830D7F8983023F04003C7F8D03044
:102D5C007B681B681433D7F8D020C7F8A820C7F8B5
:102D6C00A430D7F8A410D7F8A82041E80023C7F85E
:102D7C00A030D7F8A030002BD9D17B68DB6B002BAF
:102D8C0013D07B68DB6B7E4A5A637B68DB6B18461F
:102D9C00FEF784FA0346002B16D07B68DB6B5B6B6B
:102DAC007A68D26B104698470EE0786800F09CF970
:102DBC000AE0786800F098F906E0786800F094F979
:102DCC007B6800225A6475E100BF73E17B681B6B62
:102DDC00012B40F04F81D7F8E43003F01003002BA7
:102DEC0000F04881D7F8E03003F01003002B00F01E
:102DFC0041810023BB607B681B681B68BB607B68E0
:102E0C001B685B68BB60BB687B681B685B6903F015
:102E1C004003002B00F0B6807B68DB6B1B685B68A3
:102E2C00A7F8BE30B7F8BE30002B00F045817B68A8
:102E3C009B8DB7F8BE209A4280F03E817B68B7F834
:102E4C00BE20DA857B68DB6B9B69202B00F08880C9
:102E5C007B681B680C33C7F88830D7F8883053E888
:102E6C00003FC7F88430D7F8843023F48073C7F858
:102E7C00B8307B681B680C33D7F8B820C7F894209F
:102E8C00C7F89030D7F89010D7F8942041E8002379
:102E9C00C7F88C30D7F88C30002BD9D17B681B68E5
:102EAC0014337B677B6F53E8003F3B673B6F23F02A
:102EBC000103C7F8B4307B681B681433D7F8B4200F
:102ECC00C7F88020FB67F96FD7F8802041E8002312
:102EDC00BB67BB6F002BE1D17B681B6814333B666F
:102EEC003B6E53E8003FFB65FB6D23F04003C7F8D6
:102EFC00B0307B681B681433D7F8B020FA66BB6619
:102F0C00B96EFA6E41E800237B667B6E002BE3D131
:102F1C007B68202283F842207B6800221A637B683E
:102F2C001B680C33FB64FB6C53E8003FBB64BB6C4D
:102F3C0023F01003C7F8AC307B681B680C33D7F850
:102F4C00AC20BA657B65796DBA6D41E800233B65B1
:102F5C003B6D002BE3D17B68DB6B1846FEF763F906
:102F6C007B6802225A637B689A8D7B68DB8D9BB2EF
:102F7C00D31A9BB21946786800F0BFF89CE000BFEA
:102F8C00BD3200087B689A8D7B68DB8D9BB2D31AAF
:102F9C00A7F8CE307B68DB8D9BB2002B00F08E80C7
:102FAC00B7F8CE30002B00F089807B681B680C339F
:102FBC00BB63BB6B53E8003F7B637B6B23F4907369
:102FCC00C7F8C8307B681B680C33D7F8C8207A6404
:102FDC003B64396C7A6C41E80023FB63FB6B002B80
:102FEC00E3D17B681B6814337B627B6A53E8003F38
:102FFC003B623B6A23F00103C7F8C4307B681B6853
:10300C001433D7F8C4203A63FB62F96A3A6B41E88F
:10301C000023BB62BB6A002BE3D17B68202283F8C0
:10302C0042207B6800221A637B681B680C333B616F
:10303C003B6953E8003FFB60FB6823F01003C7F8C3
:10304C00C0307B681B680C33D7F8C020FA61BB61B9
:10305C00B969FA6941E800237B617B69002BE3D1F4
:10306C007B6802225A63B7F8CE301946786800F0B4
:10307C0044F823E0D7F8E43003F08003002B09D0A8
:10308C00D7F8E03003F08003002B03D0786800F011
:10309C0023F914E0D7F8E43003F04003002B0ED0F2
:1030AC00D7F8E03003F04003002B08D0786800F02C
:1030BC0062F904E000BF02E000BF00E000BFE837A7
:1030CC00BD4680BD80B483B000AF786000BF0C37C4
:1030DC00BD4680BC704780B483B000AF786000BF41
:1030EC000C37BD4680BC704780B483B000AF7860AD
:1030FC0000BF0C37BD4680BC704780B483B000AFB6
:10310C0078600B467B8000BF0C37BD4680BC704797
:10311C0080B590B000AFF860B9603B601346FB71AE
:10312C0050E0BB6CB3F1FF3F4CD0BB6C002B07D015
:10313C00FDF762FF02463B68D31ABA6C9A4241D241
:10314C00FB681B680C33BB62BB6A53E8003F7B62B5
:10315C007B6A23F4D073FB63FB681B680C33FA6B3C
:10316C007A633B63396B7A6B41E80023FB62FB6A41
:10317C00002BE5D1FB681B6814337B617B6953E83A
:10318C00003F3B613B6923F00103BB63FB681B6899
:10319C001433BA6B3A62FB61F9693A6A41E800236D
:1031AC00BB61BB69002BE5D1FB68202283F8412071
:1031BC00FB68202283F84220FB68002283F8402021
:1031CC0003230FE0FB681B681A68BB681340BA68DE
:1031DC009A420CBF01230023DBB21A46FB799A42B8
:1031EC009FD0002318464037BD4680BD80B495B0B3
:1031FC0000AF78607B681B680C337B637B6B53E898
:10320C00003F3B633B6B23F49073FB647B681B6850
:10321C000C33FA6C3A64FB63F96B3A6C41E80023AB
:10322C00BB63BB6B002BE5D17B681B6814333B6223
:10323C003B6A53E8003FFB61FB6923F00103BB646D
:10324C007B681B681433BA6CFA62BB62B96AFA6A9F
:10325C0041E800237B627B6A002BE5D17B681B6B0A
:10326C00012B19D17B681B680C33FB60FB6853E89E
:10327C00003FBB60BB6823F010037B647B681B685A
:10328C000C337A6CBA617B617969BA6941E80023C5
:10329C003B613B69002BE5D17B68202283F84220FF
:1032AC007B6800221A6300BF5437BD4680BC704750
:1032BC0080B584B000AF78607B685B6AFB60FB68AC
:1032CC000022DA85FB680022DA84F868FFF70CFF2D
:1032DC0000BF1037BD4680BD80B485B000AF7860AC
:1032EC007B6893F84130DBB2212B3ED17B689B6825
:1032FC00B3F5805F14D17B681B69002B10D17B6800
:10330C001B6AFB60FB681B881A467B681B68C2F350
:10331C0008025A607B681B6A9A1C7B681A6208E078
:10332C007B681B6A591C7A6811621A787B681B6867
:10333C005A607B68DB8C9BB2013B9BB27A68194666
:10334C00D184002B0FD17B681B68DA687B681B6803
:10335C0022F08002DA607B681B68DA687B681B6885
:10336C0042F04002DA60002300E0022318461437D2
:10337C00BD4680BC704780B582B000AF78607B687A
:10338C001B68DA687B681B6822F04002DA607B6895
:10339C00202283F841207868FFF794FE002318461A
:1033AC000837BD4680BD80B58CB000AF78607B68B7
:1033BC0093F84230DBB2222B40F0AE807B689B68E6
:1033CC00B3F5805F17D17B681B69002B13D10023E9
:1033DC00FB627B689B6ABB627B681B685B689BB209
:1033EC00C3F308039AB2BB6A1A807B689B6A9A1C67
:1033FC007B689A6226E07B689B6AFB620023BB6257
:10340C007B689B68B3F5805F07D07B689B68002B5B
:10341C000AD17B681B69002B06D17B681B685B6833
:10342C00DAB2FB6A1A7008E07B681B685B68DBB277
:10343C0003F07F03DAB2FB6A1A707B689B6A5A1C32
:10344C007B689A627B68DB8D9BB2013B9BB27A688E
:10345C001946D185002B5DD17B681B68DA687B68C7
:10346C001B6822F02002DA607B681B68DA687B68D4
:10347C001B6822F48072DA607B681B685A697B686F
:10348C001B6822F001025A617B68202283F84220DB
:10349C007B6800225A637B681B6B012B35D17B68E0
:1034AC0000221A637B681B680C337B617B6953E8D1
:1034BC00003F3B613B6923F010037B627B681B6818
:1034CC000C337A6A3A62FB61F9693A6A41E8002383
:1034DC00BB61BB69002BE5D17B681B681B6803F0E3
:1034EC001003102B0AD10023FB607B681B681B6840
:1034FC00FB607B681B685B68FB60FB687B689B8D73
:10350C0019467868FFF7F9FD02E07868FFF7E3FDEC
:10351C00002302E0002300E0022318463037BD46AA
:10352C0080BD000080B584B000AF78607B681B68FC
:10353C001B6923F440517B68DA687B681B680A437B
:10354C001A617B689A687B681B691A437B685B69A4
:10355C001343BB607B681B68DB6823F4B05323F018
:10356C000C037A681268B9680B43D3607B681B68DC
:10357C005B6923F440717B689A697B681B680A431A
:10358C005A617B681B682C4A934203D1FEF704FEF8
:10359C00F86002E0FEF7ECFDF860FA6813469B0059
:1035AC0013449A001A447B685B689B00B2FBF3F3EC
:1035BC00224AA2FB03235B091901FA6813469B00FC
:1035CC0013449A001A447B685B689B00B2FBF3F2CD
:1035DC001A4BA3FB02035B09642000FB03F3D31A11
:1035EC001B013233154AA2FB03235B0903F0F003E2
:1035FC001944FA6813469B0013449A001A447B68DA
:10360C005B689B00B2FBF3F20C4BA3FB02035B0960
:10361C00642000FB03F3D31A1B013233074AA2FBCD
:10362C0003235B0903F00F027B681B680A449A6052
:10363C0000BF1037BD4680BD003801401F85EB51DF
:10364C00024B0146186800F02BB800BF6400002044
:10365C00024B0146186800F013B900BF640000204B
:10366C0070B50E4E0C463168054611B900F0CCF819
:10367C0030602146284600F0C7F8431C0AD0C41C11
:10368C0024F00304A04207D0211A284600F0BCF80D
:10369C00013001D14FF0FF34204670BDD80100201D
:1036AC002DE9F843CD1C25F0030508350C2D38BF4A
:1036BC000C25002D074601DBA94205D90C23002659
:1036CC003B603046BDE8F883DFF8D08000F068F846
:1036DC00D8F800301C465CBB29463846FFF7C0FFC3
:1036EC00431C044655D1D8F800402646002E45D13F
:1036FC00002C48D023683146384604EB030900F00F
:10370C0083F881453FD1216838466D1A2946FFF769
:10371C00A7FF013037D023682B442360D8F8003042
:10372C00002B38D05A68A2422BD100225A600FE0ED
:10373C002268521B1FD40B2A17D96119A34225608A
:10374C0018BF5960636808BFC8F8001062514B601D
:10375C00384604F10B0600F029F826F00706231D65
:10376C00F21AAED09B1BA350ABE7A3426268DDD12B
:10377C00C8F80020ECE723466468ACE7344676686A
:10378C00B4E71346CCE70C2338463B6000F00EF848
:10379C0097E72560DCE75B60FFDE00BFD40100200B
:1037AC00014800F06BB800BF18030020014800F07E
:1037BC0066B800BF180300200EB46FF0004100B5CE
:1037CC009CB01DAB029006900791049108480949E2
:1037DC0053F8042B0591006802A9019300F0F2F84C
:1037EC000022029B1A701CB05DF804EB03B070470A
:1037FC00640000200802FFFF03460244934200D1FC
:10380C00704703F8011BF9E738B50023054D044652
:10381C0008462B60FDF736FB431C02D12B6803B125
:10382C00236038BD14030020014B1868704700BF9B
:10383C006400002070B500260C4D0D4C641BA410C8
:10384C00A64209D100F0BEFB00260A4D0A4C641BAF
:10385C00A410A64205D170BD55F8043B984701361B
:10386C00EEE755F8043B98470136F2E76040000854
:10387C0060400008604000086440000870477047D2
:10388C0038B50546002940D051F8043C0C1F002BDC
:10389C00B8BFE418FFF784FF1C4A136833B96360A0
:1038AC0014602846BDE83840FFF780BFA34208D912
:1038BC00206821188B4201BF19685B6809182160C8
:1038CC00EDE71A465B680BB1A342FAD911685018A0
:1038DC00A0420BD120680144501883421160E0D102
:1038EC0018685B68084410605360DAE702D90C234F
:1038FC002B60D6E7206821188B4201BF19685B68E2
:10390C000918216063605460CBE738BDD4010020F6
:10391C002DE9F0471F468E688246BE420C46904603
:10392C000B682CD88A8912F4906F26D065690969C6
:10393C0005EB4505A3EB010905EBD5757B1C4B4449
:10394C006D109D4238BF1D46530527D52946FFF7FC
:10395C00A7FE064660B34A46216900F0EDFAA3893A
:10396C0023F4906343F08003A38126614E442660C8
:10397C003E466561A5EB0905A560BE4200D93E46F1
:10398C0032464146206800F0AFFA0020A3689B1B2A
:10399C00A360236833442360BDE8F0872A4600F017
:1039AC00D9FA06460028E0D150462169FFF768FF96
:1039BC000C23CAF80030A3894FF0FF3043F04003CA
:1039CC00A381E9E72DE9F04F98468B8907461B0642
:1039DC000D4614469DB00ED50B6963B94021FFF717
:1039EC005FFE2860286120B90C233B604FF0FF304C
:1039FC00D0E040236B610023099320238DF82930FC
:103A0C0030234FF00109CDF80C80DFF8A0818DF840
:103A1C002A3023469A4613F8012B0AB1252AF9D1EC
:103A2C00BAEB040B0BD05B46224629463846FFF70F
:103A3C006FFF013000F0A980099A5A4409929AF854
:103A4C000030002B00F0A18000234FF0FF32CDE9B5
:103A5C0005230AF1010A049307938DF853301A9346
:103A6C005446052214F8011B504800F057FA049AEA
:103A7C00D8B9D00644BF20238DF85330110744BF6A
:103A8C002B238DF853309AF800302A2B15D054463E
:103A9C0000204FF00A0C079A214611F8013B303BED
:103AAC00092B4DD9B0B1079214E0A0EB080309FA29
:103ABC0003F31343A2460493D2E7039B191D1B681F
:103ACC000391002BBBBF5B4242F0020207930793AA
:103ADC00B8BF049223782E2B0CD163782A2B34D1C7
:103AEC00039B02341A1D1B680392002BB8BF4FF0C6
:103AFC00FF330593DFF8B8A003225046217800F07D
:103B0C000DFA38B14022049BA0EB0A00824013430B
:103B1C000134049314F8011B062226488DF8281052
:103B2C0000F0FCF9002838D0234B1BBB039B073358
:103B3C0023F0070308330393099B3344099368E785
:103B4C000C4601200CFB0232A6E700234FF00A0CB6
:103B5C00194601340593204610F8012B303A092AF6
:103B6C0003D9002BC6D00591C4E7044601230CFBF6
:103B7C000121F0E703AB00932A4638460F4B04A90A
:103B8C00AFF30080421C0646D6D1AB895B063FF5ED
:103B9C002DAF09981DB0BDE8F08F03AB00932A46FA
:103BAC003846064B04A900F07DF8EBE72A400008E4
:103BBC003040000834400008000000001D390008A7
:103BCC002DE9F047164699468A680B6907469342D9
:103BDC00B8BF1346336091F843200C46DDF82080C3
:103BEC000AB1013333602368990642BF336802334C
:103BFC003360256815F0060506D104F1190AE3684F
:103C0C0032689B1AAB422BDC94F84320131E2268BB
:103C1C0018BF0123920630D44946384604F14302BA
:103C2C00C047013023D02368226903F00603042B1C
:103C3C0014BF002533684FF0000608BFE56804F197
:103C4C001A0408BFED1A54F8123C08BF25EAE575B2
:103C5C009342C4BF9B1AED18B5421AD1002008E05C
:103C6C000123524649463846C047013003D14FF034
:103C7C00FF30BDE8F0870135C1E73020E11881F84D
:103C8C0043005A1C94F845102244023382F8431026
:103C9C00C2E70123224649463846C0470130E6D0E8
:103CAC000136D9E72DE9FF470F7E9146782F8046E4
:103CBC000C469A460C9D01F1430207D8622F0AD894
:103CCC00002F00F0D580582F00F0C18004F1420580
:103CDC0084F842703AE0A7F16303152BF6D801A1E2
:103CEC0051F823F0493D00085D3D0008D93C00081F
:103CFC00D93C0008D93C0008D93C00085D3D0008BF
:103D0C00D93C0008D93C0008D93C0008D93C000833
:103D1C00633E0008893D00081D3E0008D93C0008A0
:103D2C00D93C0008853E0008D93C0008893D0008B4
:103D3C00D93C0008D93C0008253E00082B681A1D08
:103D4C001B682A6004F1420584F842300123A0E08C
:103D5C0020682B68070603F10401296001D51E6851
:103D6C0003E04606FBD5B3F90060002E03DA2D23E1
:103D7C00764284F843300A23594812E02B682068B5
:103D8C00191D2960050601D51E6802E04106FBD508
:103D9C001E886F2F0CBF08230A235148002184F87A
:103DAC0043106568002DA8BF2168A560A4BF21F051
:103DBC00040121600EB9002D4BD01546B6FBF3F172
:103DCC0003FB1167C75D05F8017D3746BB420E4604
:103DDC00F4D9082B0BD12368DE0708D52369616859
:103DEC009942DEBF302305F8013C05F1FF35521B2B
:103DFC0022614B4621464046CDF800A003AAFFF7AE
:103E0C00DFFE01304AD14FF0FF3004B0BDE8F0873F
:103E1C00236843F0200323607827324884F84570E8
:103E2C00236829681F0651F8046B02D45F0648BF4B
:103E3C00B6B2DF0748BF43F02003296048BF2360B8
:103E4C001EB9236823F0200323601023A6E724481F
:103E5C00E4E71546BDE72B682668181D61692860E4
:103E6C0035061B6801D5196002E07006FBD5198078
:103E7C00002315462361BCE72B6800211A1D2A601C
:103E8C001D686268284600F049F808B1401B606064
:103E9C0063682361002384F84330AAE72A46494625
:103EAC0040462369D0470130ADD023689B0713D41B
:103EBC00E068039B9842B8BF1846A6E70123324638
:103ECC0049464046D04701309DD00135E3680399FF
:103EDC005B1AAB42F2DCEBE7002504F11906F5E7BF
:103EEC003B4000084C400008884210B501EB02042E
:103EFC0002D98442234607D8431EA14208D011F8A8
:103F0C00012B03F8012FF8E7014602448A4200D145
:103F1C0010BD13F8014D02F8014DF7E7034610B53B
:103F2C00C9B202449342184601D1002003E0047840
:103F3C0001338C42F6D110BD0A44914200F1FF339B
:103F4C0000D1704710B511F8014B914203F8014FA5
:103F5C00F9D110BD2DE9F041804614460E4621B929
:103F6C001146BDE8F041FFF79BBB2AB9FFF788FC6F
:103F7C0025462846BDE8F08100F01BF88442074630
:103F8C0002D8B4EB500F12D821464046FFF788FBFD
:103F9C0005460028EDD0BC422246314628BF3A46A1
:103FAC00FFF7CAFF31464046FFF76AFCE1E73546AA
:103FBC00DFE751F8043C181F002BBCBF0B58C0188E
:103FCC0070470000F8B500BFF8BC08BC9E467047AF
:0C3FDC00F8B500BFF8BC08BC9E4670475A
:103FE80023496E50573A2573210A0000234B6579FF
:103FF8003A2575210A0000000000000000000000BA
:104008000102030406070809000000000102030476
:1040180002030405060708090A0B0C0D0E0F101001
:104028000102232D302B2000686C4C006566674523
:104038004647003031323334353637383941424318
:1040480044454600303132333435363738396162C9
:084058006364656600000000CE
:044060003101000822
:044064000D01000842
:10406800FF00000030303030300000000024F40041
:10407800100000000100000000000000DC0100202A
:1040880044020020AC0200200000000000000000F4
:104098000000000000000000000000000000000018
:1040A8000000000000000000000000000000000008
:1040B80000000000000000000000000000000000F8
:0840C8000000000018000020B8
:0400000508000F09D7
:00000001FF
