:020000040800F2
:1000000000500020A53400088D3300089333000809
:10001000993300089F330008A53300080000000052
:10002000000000000000000000000000AB330008EA
:10003000B733000800000000C3330008CF330008C6
:10004000ED340008ED340008ED340008ED3400080C
:10005000ED340008ED340008ED340008ED340008FC
:10006000ED340008ED340008ED340008ED340008EC
:10007000ED340008ED340008ED340008ED340008DC
:10008000ED340008ED340008ED340008ED340008CC
:10009000ED340008ED340008ED340008ED340008BC
:1000A000ED340008ED340008ED340008DD330008BD
:1000B000F1330008ED340008ED340008ED34000899
:1000C000ED340008ED340008ED340008ED3400088C
:1000D000ED34000805340008ED3400081934000838
:1000E000ED340008ED340008ED3400080000000095
:1000F0000000000000000000000000000000000000
:0C01000000000000000000005FF808F1A3
:1001100010B5054C237833B9044B13B10448AFF341
:1001200000800123237010BD740000200000000037
:100130000474000808B5034B1BB103490348AFF32F
:10014000008008BD00000000780000200474000852
:1001500010F8012B11F8013B012A28BF9A42F7D071
:10016000D01A704781F0004102E000BF83F00043E5
:1001700030B54FEA41044FEA430594EA050F08BF42
:1001800090EA020F1FBF54EA000C55EA020C7FEA06
:10019000645C7FEA655C00F0E2804FEA5454D4EB83
:1001A0005555B8BF6D420CDD2C4480EA020281EA4D
:1001B000030382EA000083EA010180EA020281EA85
:1001C0000303362D88BF30BD11F0004F4FEA0131D7
:1001D0004FF4801C4CEA113102D0404261EB4101E6
:1001E00013F0004F4FEA03334CEA133302D052426C
:1001F00063EB430394EA050F00F0A780A4F1010428
:10020000D5F1200E0DDB02FA0EFC22FA05F2801861
:1002100041F1000103FA0EF2801843FA05F3594147
:100220000EE0A5F120050EF1200E012A03FA0EFCC6
:1002300028BF4CF0020C43FA05F3C01851EBE371F0
:1002400001F0004507D54FF0000EDCF1000C7EEB0D
:1002500000006EEB0101B1F5801F1BD3B1F5001F4B
:100260000CD349085FEA30004FEA3C0C04F101046A
:100270004FEA445212F5800F80F09A80BCF1004F93
:1002800008BF5FEA500C50F1000041EB045141EA15
:10029000050130BD5FEA4C0C404141EB0101013CDE
:1002A00028BFB1F5801FE9D291F0000F04BF0146CD
:1002B0000020B1FA81F308BF2033A3F10B03B3F19F
:1002C00020020CDA0C3208DD02F1140CC2F10C022F
:1002D00001FA0CF021FA02F10CE002F11402D8BF8D
:1002E000C2F1200C01FA02F120FA0CFCDCBF41EA59
:1002F0000C019040E41AA2BF01EB0451294330BD28
:100300006FEA04041F3C1CDA0C340EDC04F1140404
:10031000C4F1200220FA04F001FA02F340EA0300DB
:1003200021FA04F345EA030130BDC4F10C04C4F121
:10033000200220FA02F001FA04F340EA0300294601
:1003400030BD21FA04F0294630BD94F0000F83F44B
:10035000801306BF81F480110134013D4EE77FEA2E
:10036000645C18BF7FEA655C29D094EA050F08BF7A
:1003700090EA020F05D054EA000C04BF194610465B
:1003800030BD91EA030F1EBF0021002030BD5FEA9F
:10039000545C05D14000494128BF41F0004130BDC7
:1003A00014F580043CBF01F5801130BD01F000451B
:1003B00045F0FE4141F470014FF0000030BD7FEA8E
:1003C000645C1ABF194610467FEA655C1CBF0B4689
:1003D000024650EA013406BF52EA033591EA030FA0
:1003E00041F4002130BD00BF90F0000F04BF002198
:1003F000704730B54FF4806404F132044FF00005CB
:100400004FF0000150E700BF90F0000F04BF002143
:10041000704730B54FF4806404F1320410F00045A9
:1004200048BF40424FF000013EE700BF42004FEAA4
:10043000E2014FEA31014FEA02701FBF12F07F4321
:1004400093F07F4F81F06051704732F07F4208BFD8
:10045000704793F07F4F04BF41F40021704730B5DF
:100460004FF4607401F0004521F000411CE700BF2B
:1004700050EA010208BF704730B54FF000050AE0AE
:1004800050EA010208BF704730B511F0004502D5AF
:10049000404261EB41014FF4806404F132045FEAB1
:1004A000915C3FF4D8AE4FF003025FEADC0C18BF5A
:1004B00003325FEADC0C18BF033202EBDC02C2F14C
:1004C000200300FA03FC20FA02F001FA03FE40EADE
:1004D0000E0021FA02F11444BDE600BF70B54FF0E2
:1004E000FF0C4CF4E06C1CEA11541DBF1CEA1355C0
:1004F00094EA0C0F95EA0C0F00F0DEF82C4481EA28
:10050000030621EA4C5123EA4C5350EA013518BF47
:1005100052EA033541F4801143F4801338D0A0FB34
:1005200002CE4FF00005E1FB02E506F00042E0FBE1
:1005300003E54FF00006E1FB03569CF0000F18BFE7
:100540004EF0010EA4F1FF04B6F5007F64F540748F
:1005500004D25FEA4E0E6D4146EB060642EAC62122
:1005600041EA55514FEAC52040EA5E504FEACE2E8F
:10057000B4F1FD0C88BFBCF5E06F1ED8BEF1004F92
:1005800008BF5FEA500E50F1000041EB045170BD0E
:1005900006F0004646EA010140EA020081EA030152
:1005A000B4EB5C04C2BFD4EB0C0541EA045170BD4E
:1005B00041F480114FF0000E013C00F3AB8014F1C8
:1005C000360FDEBF002001F0004170BDC4F1000411
:1005D000203C35DA0C341BDC04F11404C4F1200592
:1005E00000FA05F320FA04F001FA05F240EA0200ED
:1005F00001F0004221F0004110EBD37021FA04F623
:1006000042EB06015EEA430E08BF20EAD37070BDDC
:10061000C4F10C04C4F1200500FA04F320FA05F03B
:1006200001FA04F240EA020001F0004110EBD3703D
:1006300041F100015EEA430E08BF20EAD37070BDAD
:10064000C4F1200500FA05F24EEA020E20FA04F386
:1006500001FA05F243EA020321FA04F001F0004135
:1006600021FA04F220EA020000EBD3705EEA430EA6
:1006700008BF20EAD37070BD94F0000F0FD101F0D5
:100680000046400041EB010111F4801F08BF013C0E
:10069000F7D041EA060195F0000F18BF704703F04C
:1006A0000046520043EB030313F4801F08BF013DD3
:1006B000F7D043EA0603704794EA0C0F0CEA13558F
:1006C00018BF95EA0C0F0CD050EA410618BF52EA49
:1006D0004306D1D181EA030101F000414FF000004F
:1006E00070BD50EA410606BF1046194652EA43065D
:1006F00019D094EA0C0F02D150EA013613D195EAD1
:100700000C0F05D152EA03361CBF104619460AD118
:1007100081EA030101F0004141F0FE4141F4700122
:100720004FF0000070BD41F0FE4141F4780170BD12
:1007300070B54FF0FF0C4CF4E06C1CEA11541DBF77
:100740001CEA135594EA0C0F95EA0C0F00F0A7F879
:10075000A4EB050481EA030E52EA03354FEA0131A6
:1007600000F088804FEA03334FF0805545EA1313B9
:1007700043EA12634FEA022245EA111545EA106581
:100780004FEA00260EF000419D4208BF964244F118
:10079000FD0404F5407402D25B084FEA3202B61A37
:1007A00065EB03055B084FEA32024FF480104FF40B
:1007B000002CB6EB020E75EB030E22BFB61A75467F
:1007C00040EA0C005B084FEA3202B6EB020E75EB12
:1007D000030E22BFB61A754640EA5C005B084FEA7A
:1007E0003202B6EB020E75EB030E22BFB61A754647
:1007F00040EA9C005B084FEA3202B6EB020E75EB52
:10080000030E22BFB61A754640EADC0055EA060E12
:1008100018D04FEA051545EA16754FEA06164FEA55
:10082000C30343EA52734FEAC2025FEA1C1CC0D101
:1008300011F4801F0BD141EA00014FF000004FF08E
:10084000004CB6E711F4801F04BF01430020B4F14F
:10085000FD0C88BFBCF5E06F3FF6AFAEB5EB030C07
:1008600004BFB6EB020C5FEA500C50F1000041EB04
:10087000045170BD0EF0004E4EEA113114EB5C04D1
:10088000C2BFD4EB0C0541EA045170BD41F48011A4
:100890004FF0000E013C90E645EA060E8DE60CEAAC
:1008A000135594EA0C0F08BF95EA0C0F3FF43BAFC9
:1008B00094EA0C0F0AD150EA01347FF434AF95EA80
:1008C0000C0F7FF425AF104619462CE795EA0C0F64
:1008D00006D152EA03353FF4FDAE1046194622E731
:1008E00050EA410618BF52EA43067FF4C5AE50EA0B
:1008F00041047FF40DAF52EA43057FF4EBAE12E7FB
:100900004A0011D212F5001211D20DD56FF478738E
:10091000B3EB62520ED44FEAC12343F0004343EAE3
:10092000505323FA02F070474FF00000704750EA2E
:10093000013002D14FF0FF3070474FF00000704798
:1009400080B500AF02F0D4FD00F013F800F0B0F96C
:1009500000F0E4F800F052F800F02CF900F054F93F
:1009600000F07CF900F078F802F0C0FA02F0FEFA2C
:10097000FCE780B590B000AF07F1180328220021F2
:10098000184606F03BF93B1D00221A605A609A6037
:10099000DA601A610123BB614FF48033FB610023ED
:1009A0003B620123BB6202237B634FF48033BB6352
:1009B0004FF4E013FB6307F11803184603F046FEFB
:1009C0000346002B01D000F003FA0F237B600223C3
:1009D000BB600023FB604FF480633B6100237B61BD
:1009E0003B1D0221184604F0B3F80346002B01D04A
:1009F00000F0EEF900BF4037BD4680BD80B500AFC6
:100A0000124B134A1A60114B124A5A600F4B0022C4
:100A10009A600E4B0022DA600C4B4FF480421A6150
:100A20000A4B00225A61094B00229A61074B0022AF
:100A3000DA61064B00221A62044803F06BF90346A0
:100A4000002B01D000F0C4F900BF80BD9000002051
:100A500000540040A086010080B586B000AF07F1C9
:100A6000100300221A605A603B4600221A605A6046
:100A70009A60DA60274B284A1A60264B47225A6050
:100A8000244B00229A60234B4FF6FF72DA60214B11
:100A900000221A611F4B00225A611E4B00229A61EC
:100AA0001C4804F085FA0346002B01D000F090F9B1
:100AB00000233B6100237B6107F1100319461548B1
:100AC00005F0C8F80346002B01D000F081F900239F
:100AD0003B6001237B600023BB600023FB603B463F
:100AE000002219460B4804F0C7FC0346002B01D036
:100AF00000F06EF93B460C221946064804F0BCFC97
:100B00000346002B01D000F063F900BF1837BD4643
:100B100080BD00BFE4000020002C014080B586B0FD
:100B200000AF07F1080300221A605A609A60DA6089
:100B30003B4600221A605A601D4B4FF080421A60FB
:100B40001B4B63225A601A4B00229A60184B4722B3
:100B5000DA60174B00221A61154B00229A61144883
:100B600004F084F90346002B01D000F031F94FF472
:100B70008053BB6007F1080319460D4804F018FDC7
:100B80000346002B01D000F023F900233B60002333
:100B90007B603B461946064805F05CF80346002B8F
:100BA00001D000F015F900BF1837BD4680BD00BF69
:100BB0002C01002080B500AF114B124A1A60104B77
:100BC0004FF461425A600E4B00229A600C4B4FF476
:100BD0000052DA600A4B00221A61094B0C225A615A
:100BE000074B00229A61064B0022DA61044805F0A7
:100BF000A1F80346002B01D000F0EAF800BF80BD49
:100C0000740100200038014080B500AF114B124A3A
:100C10001A60104B4FF461425A600E4B00229A60EA
:100C20000C4B0022DA600B4B00221A61094B0C229C
:100C30005A61084B00229A61064B0022DA6105488E
:100C400005F078F80346002B01D000F0C1F800BF92
:100C500080BD00BFBC0100200044004080B500AF53
:100C6000114B124A1A60104B4FF4E1325A600E4B8E
:100C700000229A600C4B0022DA600B4B00221A61B2
:100C8000094B0C225A61084B00229A61064B002244
:100C9000DA61054805F04EF80346002B01D000F05C
:100CA00097F800BF80BD00BF04020020004800404C
:100CB00080B588B000AF07F1100300221A605A60B7
:100CC0009A60DA603E4B9B693D4A43F010039361A2
:100CD0003B4B9B6903F01003FB60FB68384B9B693F
:100CE000374A43F020039361354B9B6903F020039F
:100CF000BB60BB68324B9B69314A43F0040393618C
:100D00002F4B9B6903F004037B607B682C4B9B6932
:100D10002B4A43F008039361294B9B6903F00803B6
:100D20003B603B6800224FF40051264802F0C1FFAF
:100D300000226221244802F0BCFF00224FF44051FF
:100D4000224802F0B6FF4FF400533B6101237B6160
:100D50000023BB610223FB6107F110031946194808
:100D600002F00CFE11233B6100237B610123BB6178
:100D700007F110031946144802F000FE62233B619C
:100D800001237B610023BB610223FB6107F1100398
:100D900019460D4802F0F2FD4FF440533B61012328
:100DA0007B610023BB610223FB6107F1100319463D
:100DB000064802F0E3FD00BF2037BD4680BD00BFFE
:100DC000001002400010014000080140000C0140EA
:100DD00080B400AF72B600BFFEE7000080B483B0FD
:100DE00000AF00237B604FE02E497A6813469B00DA
:100DF00013449B000B44023301221A7029497A687C
:100E000013469B0013449B000B440233187825497A
:100E10007A6813469B0013449B000B44013302463F
:100E20001A7020497A6813469B0013449B000B44B8
:100E3000013318781B497A6813469B0013449B00C2
:100E40000B4402461A7017497A6813469B001344F4
:100E50009B000B44043300221A7012497A6813462F
:100E60009B0013449B000B44033300221A700D496E
:100E70007A6813469B0013449B000B440833962268
:100E80001A607B6801337B607B68002BACDD054B0F
:100E9000054ADA60034B10221A8200BF0C37BD46A8
:100EA00080BC70474C0200200008014080B582B031
:100EB00000AF00237B60D5E06F497A6813469B0042
:100EC00013449B000B44013318786B497A6813462E
:100ED0009B0013449B000B4402461A7066497A68D3
:100EE00013469B0013449B000B440233187862495D
:100EF0007A6813469B0013449B000B44013302465F
:100F00001A705D497A6813469B0013449B000B449A
:100F10000C33186858497A6813469B0013449B00A9
:100F20000B4410331B88194602F0ACFE03461846EA
:100F300051497A6813469B0013449B000B440233CB
:100F400002461A704C497A6813469B0013449B0072
:100F50000B44197848487A6813469B0013449B0059
:100F6000034401331B78994279D143497A68134687
:100F70009B0013449B000B44013319783E487A6868
:100F800013469B0013449B00034402331B78994291
:100F900065D139497A6813469B0013449B000B4482
:100FA00002331B78002B33D133497A6813469B00F8
:100FB00013449B000B44033301221A702E497A68B4
:100FC00013469B0013449B000B4408331B68002B03
:100FD00013D029497A6813469B0013449B000B44A5
:100FE00008331B68591E24487A6813469B00134433
:100FF0009B0003440833196031E01F497A681346A7
:101000009B0013449B000B44043301221A7026E01A
:1010100019497A6813469B0013449B000B44033321
:1010200000221A7014497A6813469B0013449B00EF
:101030000B440333187810497A6813469B00134415
:101040009B000B44043302461A700B497A6813461E
:101050009B0013449B000B44083396221A607B6864
:1010600001337B607B68002B3FF426AF00BF00BFDD
:101070000837BD4680BD00BF4C02002080B483B05D
:1010800000AF78607B68002B01D0012308E007499E
:101090007A6813469B0013449B000B4403331B7870
:1010A00018460C37BD4680BC704700BF4C0200207C
:1010B00080B500AF00220021054801F03FFC00226E
:1010C0004FF47A71034801F039FC00BF80BD00BFC6
:1010D000D9100008F110000880B500AF01224FF4CC
:1010E0008051024802F0E5FD00BF80BD000C0140C8
:1010F00080B500AF00224FF48051024802F0D9FDC4
:1011000000BF80BD000C014080B500AF01F042FF80
:10111000012000F053F800BF80BD000080B582B010
:1011200000AF0346FB71164B1B785A1CD1B2144A10
:1011300011701946134AFB7953541349114805F0AD
:1011400065FD0346002B06D0104B01221A700C4B94
:1011500000221A7011E00A4B1B78013B094AD35C4C
:10116000232B03D1064B00221A7006E0044B1B7898
:101170000D2B02D9024B00221A700837BD4680BDE4
:101180006E020020600200201C7400086F02002024
:1011900080B400AF024B1B781846BD4680BC704738
:1011A0006F02002080B400AF034B00221A7000BF12
:1011B000BD4680BC704700BF6F02002080B588B07C
:1011C00000AF0346FB71FB79002B10D007F114032D
:1011D0001149184605F0E2FC0346BB77BB7F9AB283
:1011E00007F1140164230D4804F0F4FD0FE007F14A
:1011F00008030B49184605F0D1FC0346FB77FB7F3B
:101200009AB207F108016423044804F0E3FD00BF2B
:101210002037BD4680BD00BF2474000804020020B2
:101220001C74000880B584B000AF3B1D0849184607
:1012300005F0B4FC0346FB73FB7B9AB2391D6423B3
:10124000044804F0C7FD00BF1037BD4680BD00BF95
:101250002C7400080402002080B584B000AF3B1D50
:101260000849184605F09AFC0346FB73FB7B9AB2CB
:10127000391D6423044804F0ADFD00BF1037BD469E
:1012800080BD00BF347400080402002080B586B021
:1012900000AF0346FB71FA7907F10C0308491846C1
:1012A00005F07CFC0346FB75FB7D9AB207F10C014F
:1012B0006423044804F08EFD00BF1837BD4680BD8E
:1012C0003C7400080402002080B586B000AF0346DD
:1012D000FB80FA8807F10C030849184605F05EFC0C
:1012E0000346FB75FB7D9AB207F10C0164230448A9
:1012F00004F070FD00BF1837BD4680BD447400087F
:101300000402002080B586B000AF786007F10C03BE
:101310007A680949184605F041FC0346FB75FB7DD8
:101320009AB207F10C016423044804F053FD00BF96
:101330001837BD4680BD00BF4C7400080402002071
:1013400080B500AF01F018FE00BF80BD80B400AFD3
:10135000024B1B881846BD4680BC7047A402002083
:1013600080B500AF00F092F8022000F0AEF800F077
:1013700099F80346002B06D000F030F80346002B06
:1013800001D0012300E00023184680BD80B500AFE6
:1013900000F07CF8022000F098F800F083F8034693
:1013A000002B06D000F046F80346002B01D00123A5
:1013B00000E00023184680BD80B400AF064B1B78C8
:1013C000002B05D0044B1B78013BDAB2024B1A709C
:1013D00000BFBD4680BC70470000002080B582B0D1
:1013E00000AF124B01221A70114A3B4692E80300EB
:1013F0001860043319703B461A460521042000F09A
:1014000053F900F0BBF900F095F80346002B04D027
:10141000064B00221A70012303E0044B00221A70CD
:10142000002318460837BD4680BD00BF710200206A
:101430005874000880B582B000AF01233B71124B95
:101440001B881B0A9BB2DBB27B710F4B1B88DBB284
:10145000BB713B1D1A460321062000F025F900F060
:101460008DF900F0D3F80346002B07D0064B1B88FC
:1014700001339AB2044B1A80012300E0002318467E
:101480000837BD4680BD00BFA202002080B400AF77
:10149000034B0A221A7000BFBD4680BC704700BFD4
:1014A0000000002080B500AF00220021052000F0E0
:1014B000FBF800F063F900F0A9F80346002B01D017
:1014C000012300E00023184680BD80B584B000AF42
:1014D0000346FB710023FB7322E0FFF7D7FF0022D6
:1014E0000021012000F0E0F800F048F900F08EF84B
:1014F0000346002BF3D0FB7B0133DBB2BB7307F158
:101500000E031A460121022000F0CEF800F036F951
:1015100000F07CF80346002BE1D0FB7B0133FB732A
:10152000FA7BFB799A42D8D300BF00BF1037BD4683
:1015300080BD000080B584B000AF08E02C4B1B7864
:10154000002B04D12B4B00221A7000234BE02A4BB6
:101550001B78002BF2D0284B1B78002B0CBF0123EB
:101560000023DBB21A46244B1A70244A3B1D07CADB
:1015700003C31A7007233B733B1D092220491846F9
:1015800005F02CFB0346002B04D01A4B00221A70E6
:10159000002328E01A4B5B7A002B1CD1154B00224C
:1015A0001A70174B9B7A1B021AB2154BDB7A1BB2CF
:1015B00013431BB29AB2134B1A80114B1B7B1B02B5
:1015C0001AB20F4B5B7B1BB213431BB29AB20E4B8A
:1015D0001A80012307E0074B1B780F2B02D9054B1C
:1015E00000221A70002318461037BD4680BD00BF88
:1015F00000000020A002002070020020607400089B
:101600008C020020A4020020A602002080B584B035
:1016100000AF08E01F4B1B78002B04D11E4B0022AB
:101620001A70002331E01D4B1B78002BF2D01B4BAE
:101630001B78002B0CBF01230023DBB21A46174B8B
:101640001A70174A3B1D07CA03C31A703B1D0922B3
:101650001449184605F0C2FA0346002B04D00E4B7D
:1016600000221A70002310E00E4B5B7A002B04D18D
:10167000094B00221A70012307E0074B1B780B2B44
:1016800002D9054B00221A70002318461037BD46B8
:1016900080BD00BF00000020A002002070020020DA
:1016A000607400088C02002080B487B000AF03464D
:1016B0003A60FB710B46BB71BB790C33DAB22D4B30
:1016C0001A70BB799BB203337B82FB799AB27B8A17
:1016D00013449BB20133FB82EF233B7201237B72E5
:1016E000FF23BB72FF23FB72FF233B73FF237B733C
:1016F0000123BB737B8A1B0A9BB2DBB2FB737B8A21
:10170000DBB23B74FB797B741B4B07F1080207CA01
:1017100003C31A800A237B7513E07B7D0A3B3A687A
:101720001A447B7D1178144AD1547B7D0A3B3A6878
:1017300013441B789AB2FB8A1344FB827B7D0133EE
:101740007B75BB7903F109027B7D9A42E5DAFB8A5E
:101750001B0A9AB2BB790A33D1B2074AD154BB797A
:101760000B33FA8AD1B2044AD15400BF1C37BD46AC
:1017700080BC7047880200207402002080B582B0CF
:1017800000AF0023FB710AE0FB790A4A9918642331
:101790000122094804F01EFBFB790133FB71074B62
:1017A0001B78FA799A42EFD300BF00BF0837BD46D5
:1017B00080BD00BF74020020740100208802002058
:1017C00080B485B000AF0346FB71104B1B785A1CE8
:1017D000D1B20E4A117019460D4AFB7953540D4B84
:1017E0001B78002B02D01023FB7301E00C23FB734A
:1017F000064B1B78FA7B9A4202D8074B01221A70DB
:1018000000BF1437BD4680BC704700BFA002002057
:101810008C020020710200207002002080B483B08E
:1018200000AF0346FB71FB799B08DAB2FB7903F04A
:101830000303DBB21344DAB2FB799B08DBB25B0033
:10184000DBB21344DBB20133DBB218460C37BD46C2
:1018500080BC704780B582B000AF094B1B781A4638
:101860000849094805F09AF90346FB80FA88642381
:101870000549064804F0AEFA00BF0837BD4680BDF2
:10188000B50200206C740008C0020020BC010020DA
:1018900080B500AF034B1B781846FFF7F7FC00BF7D
:1018A00080BD00BFB502002080B500AF574B1B784C
:1018B000072B00F2A98001A252F823F0DD180008DE
:1018C000F91800080B1900083319000881190008DD
:1018D0001F190008A3190008DF1900084FF47A72D5
:1018E00000214B4801F02AF843F69822002149488C
:1018F00001F024F800F07EFB00F068FF00F0ACF986
:1019000000F062F900F0F2FB7EE000F023FC0346F9
:10191000002B01D000F06EFB00F09EF974E000F0A7
:1019200019FC0346002B01D000F064FB00F094F991
:101930006AE0394B1B78032B14D940F6B8320021EA
:10194000364800F0FBFF40F6B8320021344800F082
:10195000F5FF344B01221A70334B0A221A802E4BAA
:1019600000221A7000F0F6FB0346002B4BD02B48E8
:1019700001F0AAF82A4801F0A7F800F03BFB42E08A
:1019800000F018FF00F0E6FB0346002B04D0012016
:10199000FFF714FC00F02EFB00F0A8FB00F014F998
:1019A00032E0FFF7DDFC0346002B0ED0FFF7CEFC44
:1019B00003461846FFF788FC4FF47A7200211B4853
:1019C00000F0BCFF00F0C4FA05E01949194800F026
:1019D000EFFD00F00FFB184801F076F814E0FFF778
:1019E000D5FC0346002B04D01149144800F0E0FD5B
:1019F00003E01349134800F0DBFD0F4801F064F8E1
:101A000000F0F8FA00E000BF00BF80BDA90200208E
:101A10005518000891180008AB020020B11000080A
:101A20002D210008AC02002002000020392000080F
:101A3000787400087C740008B913000890740008DA
:101A40009C740008A874000880B582B000AF584BA1
:101A50001B78022B6BD0022B00F39C80002B02D052
:101A6000012B31D096E001F0B3F80346002B00F0D3
:101A700093805049504801F095F84F4B1B68322B2A
:101A800004D94C4B1B68322B00F28680494B1A68F4
:101A9000494B1B68934228BF13467B607B68322BFF
:101AA0000BD8454B1B687A689A4206D1434B0122FA
:101AB0001A703F4B01221A706EE0404B02221A70DE
:101AC0003B4B01221A7067E001F082F80346002BBD
:101AD00064D03849384801F065F8374B1B68322B21
:101AE00007D9344B1B68322B03D9314B00221A70B3
:101AF0005BE0324B1B78012B0AD12F4B1B68322B3A
:101B00004ED92F4B00221A70294B02221A7045E041
:101B10002A4B1B78022B41D1264B1B68322B41D913
:101B2000274B01221A70224B02221A7036E001F074
:101B30004FF80346002B38D01E491F4801F032F8F9
:101B40001D4B1B68322B2FD91A4B1B68322B2BD9FC
:101B50001B4B1B78002B0CD0012B11D1194B1B7880
:101B6000002B0FD0174B1B78013BDAB2154B1A70C4
:101B700008E0144B1B780133DAB2124B1A7002E002
:101B800000BF00E000BF0E4B02221A70084B00227B
:101B90001A700AE000BF08E000BF06E000BF04E0E2
:101BA00000BF02E000BF00E000BF0837BD4680BDB7
:101BB000AA020020BC020020B8020020B4020020CB
:101BC00004000020B502002080B500AF1E4B1B783A
:101BD000002B02D0012B25D030E00020FFF74EFA79
:101BE0000346012B15D1194B1B78012B02D0042B76
:101BF0000BD016E000F06AFA4FF47A720021144814
:101C000000F09CFE00F0A4F90BE0124B05221A80B4
:101C100007E00020FFF732FA0346012B10D1002322
:101C200010E00DE00020FFF729FA0346002B03D156
:101C3000054B00221A7004E0002303E0002301E0BA
:101C400000BF0123184680BDA8020020A902002081
:101C5000392000080200002080B582B000AF00F0FB
:101C60005DFB0346BB71BB790F2B00F23F8101A2E4
:101C700052F823F0B51C0008B51C0008B51C00087C
:101C8000931D0008B51C0008B51C0008B51C000811
:101C9000ED1E0008B51C0008B51C0008B51C0008A6
:101CA000C91D0008FF1D0008B51C0008291E0008FA
:101CB000ED1E0008964B1B78052B39D0052B62DCF6
:101CC000012B02D0022B18D05DE0BB790D2B02D185
:101CD0000023FB7105E0BB791846FFF79FFD034623
:101CE000FB71FB79184600F09FFD0346002B4CD09A
:101CF00000F0ECF900F068F947E0BB790D2B02D158
:101D00000023FB7105E0BB791846FFF787FD03460A
:101D1000FB71FB79184600F087FD0346002B04D0C9
:101D200000F07EF900F02AFB32E000F02FF92FE0FE
:101D3000BB790D2B02D10023FB7105E0BB7918465E
:101D4000FFF76CFD0346FB71724B1B78002B0BD029
:101D5000FB79184600F046FD0346002B17D000F033
:101D60005FF900F04BFB12E0FB79184600F05CFDD8
:101D70000346002B04D000F053F900F0FFFA06E010
:101D800000F004F903E000BFB7E000BFB5E000BF1A
:101D9000B3E05F4B1B78012B40F0AA8000F096F96E
:101DA00000F03EF95C495D4800F002FC4FF47A72A5
:101DB00000215B4800F0C2FD5A4B01221A70544BBF
:101DC00002221A7000BF93E0514B1B78012B40F0A8
:101DD000918000F07BF900F023F94F49524800F060
:101DE000E7FB4FF47A7200214D4800F0A7FD494B04
:101DF00001221A70464B02221A7000BF7AE0444B4F
:101E00001B78012B78D100F061F900F009F94749FE
:101E1000474800F0CDFB64220021464800F08EFDCB
:101E20003B4B06221A7067E0394B1B78022B02D01D
:101E3000052B34D061E000F03BFD0346002B02D1BE
:101E400000F0A4F851E0334B1B78002B0BD000F0CE
:101E5000E7F83149384800F0ABFB00F03BFD2C4B74
:101E600005221A7041E02F4B1B78002B14D02C4810
:101E700000F02AFE642200212E4800F05FFD2F4969
:101E80002F4800F095FB00F025FD264B00221A702C
:101E90001F4B07221A7028E000F05AF825E01D4B6E
:101EA0001B78002B09D01C49264800F081FB00F06C
:101EB00011FD184B00221A7016E000F0E7FC0346F3
:101EC000002B0FD000F012FD00F094F8002200214A
:101ED0001D4800F033FD00224FF47A711B4800F0DA
:101EE0002DFD01E000F052F800BF06E000BF04E065
:101EF00000BF02E000BF00E000BFBB79FF2B03D0B2
:101F0000BB79184600F026FA00BF0837BD4680BDF1
:101F1000A9020020AD02002078740008B474000803
:101F200039200008AE020020C0740008D0740008F8
:101F3000D8740008B9130008E4740008F4740008A9
:101F40000075000810750008CD230008E52300087F
:101F500080B500AF0849094800F02AFB084B05226C
:101F60001A80084B00221A700020FFF727F9064B51
:101F700004221A7000BF80BD787400081C75000828
:101F800002000020AB020020A902002080B500AFB3
:101F9000084B01221A80084B1B780133DAB2064B3A
:101FA0001A700649064800F003FB064B03221A701C
:101FB00000BF80BD02000020AB0200202C7500088D
:101FC0003C750008A902002080B500AF00F028F899
:101FD00000F0D4F94FF47A720021044800F0AEFC0E
:101FE000034B02221A7000BF80BD00BF39200008D9
:101FF000A902002080B500AF00F056F800F06AFC9E
:102000000449054800F0D4FA044B01221A7000BFBD
:1020100080BD00BF4C7500085C750008A902002057
:1020200080B400AF034B03221A8000BFBD4680BCC2
:10203000704700BF0200002080B586B000AF0F4B94
:102040001B88002B05D00D4B1B88013B9AB20B4B14
:102050001A800B4B1B78012B0CD1084B1B881A469E
:102060003B1D0849184604F099FD3B1D19460648DA
:1020700000F09EFA00BF1837BD4680BD0200002068
:10208000AC0200206C7500087875000880B400AFC1
:10209000044B1B680133034A136000BFBD4680BC7C
:1020A000704700BFB002002080B500AF054B002292
:1020B0001A604FF47A720021034800F03FFC00BF21
:1020C00080BD00BFB00200208D20000880B500AFA9
:1020D000044800F0F9FC044B1B681846FFF712F99E
:1020E00000BF80BD8D200008B002002080B500AF89
:1020F000FFF74EF80346002B12D00A4B1B78042B37
:1021000002D1FFF74FF80BE0FFF7E0FF4FF47A72D0
:102110000021054800F012FCFFF71AFFFFF742F814
:1021200080BD00BFA90200203920000880B500AFA3
:1021300000220021054800F001FC00224FF47A71D2
:10214000034800F0FBFB00BF80BD00BF2512000864
:102150005912000880B500AF0B4B1B88002B0FD124
:102160000A4B1B78012B06D1094B1B78032B02D19C
:10217000064B00221A70074800F0A6FC012300E07D
:102180000023184680BD00BF02000020AC020020E2
:10219000A90200203920000880B500AF0A2000F015
:1021A000E3FA094B1B88002B05D0074B1B88013B2A
:1021B0009AB2054B1A80044B1B88002B01D10123D6
:1021C00000E00023184680BD0600002080B500AF67
:1021D000134B41F288321A8006E0FFF7DDFF034619
:1021E000002B01D0002319E001210E4801F04AFD27
:1021F0000346002BF1D106E0FFF7CEFF0346002B8C
:1022000001D000230AE00121064801F03BFD03460E
:10221000002BF1D00A2000F0A7FA0123184680BD58
:10222000060000200008014080B584B000AF0346DE
:10223000FB7100220221164801F03BFD022000F054
:1022400093FA0121124801F01DFD0346002B0CBF3B
:1022500001230023DBB2FB73FB7B002B04D1FB7952
:102260000C4A0021D15406E0FB790A4AD25C0132C3
:10227000D1B2084AD15401220221054801F019FDCA
:10228000022000F071FA00BF1037BD4680BD00BFCC
:1022900000080140E002002080B582B000AF0023BA
:1022A000FB7106E0FB791846FFF7BEFFFB790133AF
:1022B000FB71FB790F2BF5D9022001F07BF900BFF0
:1022C0000837BD4680BD000080B582B000AF002356
:1022D000FB7106E0FB79094A0021D154FB790133F7
:1022E000FB71FB790F2BF5D901220221044801F083
:1022F000E0FC00BF0837BD4680BD00BFE002002003
:102300000008014080B500AFFFF760FF0346002BD7
:1023100001D0FFF7C1FF00BF80BD000080B483B0D3
:1023200000AF0023FB7109E0FB79094AD35C002B65
:1023300001D0FB7906E0FB790133FB71FB790E2BB1
:10234000F2D9FF2318460C37BD4680BC704700BF4A
:10235000E002002080B483B000AF0346FB71FB793C
:102360000F2B04D8FB79044A0021D15400E000BFB0
:102370000C37BD4680BC7047E002002080B586B0B7
:1023800000AF0023FB7508E0FB7D18333B442A2295
:1023900003F8182CFB7D0133FB7500F06DFA034642
:1023A0001A46FB7D9342EFD3FB7D18333B4400225A
:1023B00003F8182C3B461946034800F0F9F800BF13
:1023C0001837BD4680BD00BF8475000880B500AFDA
:1023D0000249034800F0ECF800BF80BD8875000892
:1023E0009875000880B500AF0249034800F0E0F896
:1023F00000BF80BDA4750008B475000880B586B024
:1024000000AF0023FB7508E0FB7D18333B442A2214
:1024100003F8182CFB7D0133FB7500F02DFA034601
:102420001A46FB7D9342EFD3FB7D18333B440022D9
:1024300003F8182C3B461946034800F0B9F800BFD2
:102440001837BD4680BD00BFC475000880B500AF19
:10245000304B02221A70304B08221A702F4B082280
:102460001A7000F059F9322001F0A4F82A4B1B78B9
:10247000184600F017F94FF47A7001F09BF83020FD
:1024800000F0FFF841F2941000F06EF9302000F0F7
:10249000F8F841F2941000F067F9302000F0F1F8FC
:1024A00041F2941000F060F9202000F0EAF8642076
:1024B00000F05AF9194B1B7843F02003DBB21846A1
:1024C00000F0A2F8164B04221A70154B1B7843F04B
:1024D0000403DAB2124B1A70114B1B7843F0080355
:1024E000DBB2184600F090F800F01EF80D4B022207
:1024F0001A700C4B1B7843F00403DBB2184600F053
:1025000083F841F2941000F02FF900F014F800BFA6
:1025100080BD00BFF3020020F4020020F002002082
:10252000F1020020F202002080B500AF012000F08F
:102530006BF800BF80BD80B500AF022000F064F8EA
:102540004FF4FA6000F010F900BF80BD90B587B07D
:1025500000AF03460A46FB711346BB71124B07F1ED
:1025600008040FCB84E80F00104B1B78BA799A420D
:1025700003D30E4B1B78013BBB71BB799B00183317
:102580003B4453F8103CDAB2FB791344DBB25BB244
:1025900063F07F035BB2DBB2184600F035F800BF92
:1025A0001C37BD4690BD00BFD4750008F302002063
:1025B00080B582B000AF78603960FFF7B5FF0021C9
:1025C0000020FFF7C3FF06E07B685A1C7A601B7887
:1025D000184600F027F87B681B78002BF4D1012106
:1025E0000020FFF7B3FF06E03B685A1C3A601B78F7
:1025F000184600F017F83B681B78002BF4D100BF99
:1026000000BF0837BD4680BD80B582B000AF03462D
:10261000FB71FB790021184600F012F800BF083763
:10262000BD4680BD80B582B000AF0346FB71FB792B
:102630000121184600F004F800BF0837BD4680BDF0
:1026400080B584B000AF03460A46FB711346BB71E8
:10265000FB7923F00F03FB73FB791B01BB73FA7B40
:10266000BB791343DBB2184600F00BF8BA7BBB7999
:102670001343DBB2184600F004F800BF1037BD4624
:1026800080BD80B582B000AF0346FB71FB79184670
:1026900000F008F8FB79184600F020F800BF083772
:1026A000BD4680BD80B586B002AF0346FB71094BC5
:1026B0001A78FB791343DBB2FB7307F10F020A238D
:1026C000009301237E21044801F068FC00BF10370D
:1026D000BD4680BDF40200209000002080B582B08D
:1026E00000AF0346FB71FB7943F00403DBB21846ED
:1026F000FFF7D8FF142000F037F8FB7923F004032C
:10270000DBB21846FFF7CEFF142000F02DF800BF13
:102710000837BD4680BD000080B400AF104BDB68B9
:102720000F4A23F08073D3600D4BDB680C4A43F0F3
:102730008073D3600B4B1B680A4A23F001031360BC
:10274000084B1B68074A43F001031360054B002246
:102750005A6000BF00BF00BF00BFBD4680BC7047CD
:10276000F0ED00E0001000E080B487B000AF7860CA
:102770000D4B1B680D4AA2FB03239A0C7B6802FBDE
:1027800003F37B610A4B5B683B61094B5A683B6909
:10279000D31AFB60FB687A699A42F6D800BF00BF83
:1027A0001C37BD4680BC70471800002083DE1B43E9
:1027B000001000E080B500AF01224FF40051024844
:1027C00001F077FA00BF80BD000C014080B500AF7A
:1027D00000224FF40051024801F06BFA00BF80BDA7
:1027E000000C014080B483B000AF0346FB710C4B7A
:1027F0001B78042B01D900230CE0094B1B785A1CD1
:10280000D1B2074A11701A46FB793033D9B2054B61
:102810009954012318460C37BD4680BC704700BF51
:10282000090300201000002080B483B000AF0346ED
:10283000FB710F4B1B780F2B01D9002312E00C4BBF
:102840001B785A1CD1B20A4A11701A46FB793033F0
:10285000D9B2084B9954064B1B781A46054B0021F8
:102860009954012318460C37BD4680BC704700BF01
:1028700009030020F802002080B400AF024B1B784F
:102880001846BD4680BC70470903002080B500AFE4
:1028900005490648FDF75CFC0346002B0CBF0123ED
:1028A0000023DBB2184680BDF80200201000002093
:1028B00080B500AF05490648FDF74AFC0346002BEA
:1028C0000CBF01230023DBB2184680BDF8020020B4
:1028D0000800002080B400AF034B00221A7000BF34
:1028E000BD4680BC704700BF0903002080B500AF23
:1028F0000249034804F0DCF900BF80BD100000204D
:102900000800002080B500AF024802F0FFFA00BFC7
:1029100080BD00BF2C01002080B582B000AF786080
:102920007B681A68044B1B689A4201D100F06EF86C
:1029300000BF0837BD4680BD2C01002080B588B09F
:1029400000AFF860B9607A60102004F06BF80346BD
:102950007B617B69FA681A60BB6842F2107202FB05
:1029600003F3284AA2FB03239A097B695A607B6917
:102970007A689A607B690022DA60234B1B68002B1F
:1029800004D1214A7B691360012337E01E4B1B6889
:10299000FB611D4B1B68BB610BE07B695A68BB691F
:1029A0005B68D21A7B695A60BB69FB61BB69DB68F3
:1029B000BB61BB69002B05D07B695A68BB695B684A
:1029C0009A42EAD2FA69BB699A4206D0FB697A69EF
:1029D000DA607B69BA69DA6005E07B69BA69DA6056
:1029E000094A7B691360BB69002B06D0BB695A6832
:1029F0007B695B68D21ABB695A600123184620378D
:102A0000BD4680BDD34D62100C03002080B400AFE2
:102A1000094B1B68002B0AD0074B1B685B68002B17
:102A200006D0054B1B685A68013A5A6000E000BFA7
:102A3000BD4680BC704700BF0C03002080B582B04B
:102A400000AF78607B68002B03D0786803F0F2FF5A
:102A500000E000BF0837BD4680BD000080B582B0F1
:102A600000AF184B1B68002B01D1002326E0154B4B
:102A70001B685B68002B20D1124B1B681B689847B2
:102A8000104B1B687B600F4B1B68DB680D4A1360A3
:102A90007B680022DA607B689B68002B08D07B682B
:102AA00018687B6899687B689B681A46FFF746FF41
:102AB0007868FFF7C3FF012300E0002318460837BA
:102AC000BD4680BD0C03002080B584B000AF7860A7
:102AD000144B1B68FB60FB68BB601BE0FB681B685A
:102AE0007A689A4211D1BA68FB689A4205D10D4BB7
:102AF0001B68DB680B4A136003E0FB68DA68BB689D
:102B0000DA60F868FFF79AFF08E0FB68BB60FB68D3
:102B1000DB68FB60FB68002BE0D100BF1037BD46CF
:102B200080BD00BF0C03002080B500AF0021044829
:102B300002F08EFA0C21024802F08AFA00BF80BD32
:102B4000E400002080B500AF01222021134801F0ED
:102B5000B0F801224021114801F0ABF80A20FFF73C
:102B600003FE002220210D4801F0A3F8002240219D
:102B70000A4801F09EF80A4B1B68DA68084B1B688C
:102B800042F00202DA60064B1B68DA68044B1B68ED
:102B900042F01002DA6000BF80BD00BF00080140B3
:102BA000E400002080B483B000AF78603960064B49
:102BB0001A687B681A60054B1A683B681A6000BF88
:102BC0000C37BD4680BC7047200300203403002032
:102BD00080B400AF0A4B1B78002B0BD0094B1B783D
:102BE000002B07D0064B00221A70064B00221A70E9
:102BF000012300E000231846BD4680BC704700BF9B
:102C0000380300203903002080B584B000AF78601D
:102C10007B681B7F012B40F097809D4B1B78002B1E
:102C20001AD10021786802F08BFD0346994A13609F
:102C3000974B01221A707B681B681A6A7B681B68B5
:102C400022F00A021A627B681B681A6A7B681B689A
:102C500042F002021A6211E18D4B1B78012B40F009
:102C60000D810021786802F06BFD03468A4A1360EB
:102C70007B681B6800225A62874B1A68854B1B6869
:102C80009A4207D9844B1A68824B1B68D31A834A2D
:102C900013600FE07F4B1A687F4B1B689A4209D97B
:102CA0007D4B1A687B4B1B68D31A03F57F43FF33B8
:102CB0007A4A1360794B1B681846FDF795FB72A39F
:102CC000D3E90023FDF70AFC02460B4610461946DD
:102CD0004FF000024FF08043FDF72AFD02460B46FD
:102CE00010461946FDF70CFE03466D4A1360684B0B
:102CF00000221A706B4B01221A70694B1B689BB241
:102D00001A466949694803F049FF0346BB81BA89FD
:102D100064236649664803F05DF87B681B681A6A9D
:102D20007B681B6822F00A021A627B681A687B685B
:102D30001B68126A1A625F4B1B68DA685D4B1B687E
:102D400022F00202DA6099E07B681B7F082B40F0DA
:102D50009580594B1B78002B1AD10C21786802F012
:102D6000EFFC0346554A1360534B01221A707B68EF
:102D70001B681A6A7B681B6822F400521A627B681F
:102D80001B681A6A7B681B6842F400521A6275E07D
:102D9000494B1B78012B71D10C21786802F0D0FCD3
:102DA0000346474A13607B681B6800225A62444B03
:102DB0001A68424B1B689A4207D9414B1A683F4B2D
:102DC0001B68D31A3F4A13600FE03C4B1A683C4B18
:102DD0001B689A4209D93A4B1A68384B1B68D31AB8
:102DE00003F57F43FF33374A1360364B1B681846A1
:102DF000FDF7FAFA24A3D3E90023FDF76FFB02469F
:102E00000B46104619464FF000024FF08043FDF785
:102E10008FFC02460B4610461946FDF771FD03462E
:102E2000294A1360244B00221A70274B1B689BB25F
:102E30001A4626491D4803F0B1FE0346FB81FA8974
:102E400064231A491A4802F0C5FF214B01221A7067
:102E50007B681B681A6A7B681B6822F400521A623E
:102E60007B681A687B681B68126A1A62114B1B68C0
:102E7000DA68104B1B6822F01002DA6000BF1037CE
:102E8000BD4680BDAFF300809CC420B07268A13FF6
:102E90001C0300201003002014030020180300204E
:102EA0002003002038030020E47500083C030020C4
:102EB000BC010020E4000020300300202403002097
:102EC000280300202C03002034030020F4750008A0
:102ED0003903002080B500AF4FF40051024800F0E4
:102EE00000FF00BF80BD00BF0010014080B500AFF3
:102EF000FFF708FDFFF7AAFAFFF716FBFFF7E4F963
:102F0000FDF76CFFFEF71CFAFFF70EFEFEF7FCF86C
:102F1000822200210F48FFF711FD322200210E48C6
:102F2000FFF70CFD4B2200210C48FFF707FD0A229A
:102F300000210B48FFF702FD4FF47A720021094887
:102F4000FFF7FCFC0A2200210748FFF7F7FC00BF4F
:102F500080BD00BF452B0008AD0E0008052300080A
:102F6000A9180008D52E0008491A000880B500AF3E
:102F7000FFF774FD00BF80BD80B500AF012203499B
:102F8000034802F0AAFF00BF80BD00BF5A03002023
:102F90007401002080B500AF01220349034802F00C
:102FA0009CFF00BF80BD00BF5B0300200402002027
:102FB00080B582B000AF78607B681A68104B1B68E0
:102FC0009A420AD10F4B1B781846FEF7F9FB0122F3
:102FD0000C490B4802F081FF0DE00B4B1B68002BE6
:102FE00009D00A4B1B781846FEF798F801220749CA
:102FF000054802F072FF00BF0837BD4680BD00BF24
:10300000740100205A030020040200205B0300200A
:1030100080B485B000AF154B9B69144A43F001039F
:103020009361124B9B6903F00103BB60BB680F4BBC
:10303000DB690E4A43F08053D3610C4BDB6903F02C
:1030400080537B607B680A4B5B68FB60FB6823F006
:10305000E063FB60FB6843F00073FB60044AFB68BD
:10306000536000BF1437BD4680BC7047001002405B
:103070000000014080B58AB000AF786007F114030A
:1030800000221A605A609A60DA607B681B681D4AE9
:10309000934232D11C4B9B691B4A43F00803936156
:1030A000194B9B6903F008033B613B694FF4407384
:1030B0007B611223BB6103233B6207F114031946B2
:1030C000124800F05BFC124B5B687B627B6A43F04A
:1030D000E0637B627B6A43F002037B620C4A7B6A9B
:1030E0005360094BDB69084A43F40013D361064B74
:1030F000DB6903F40013FB60FB6800BF2837BD46A3
:1031000080BD00BF0054004000100240000C014090
:103110000000014080B588B000AF786007F110036F
:1031200000221A605A609A60DA607B681B681A4A4B
:1031300093422CD1194B9B69184A43F40063936165
:10314000164B9B6903F40063FB60FB68134B9B69A0
:10315000124A43F004039361104B9B6903F004038C
:10316000BB60BB684FF410633B6100237B610023AD
:10317000BB6107F110031946094800F0FFFB00226C
:1031800000211B2000F011FB1B2000F02AFB00BFD8
:103190002037BD4680BD00BF002C0140001002401A
:1031A0000008014080B584B000AF78607B681B6880
:1031B000B3F1804F13D10C4BDB690B4A43F0010391
:1031C000D361094BDB6903F00103FB60FB6800225C
:1031D00000211C2000F0E9FA1C2000F002FB00BFD7
:1031E0001037BD4680BD00BF0010024080B58CB0D6
:1031F00000AF786007F1200300221A605A609A60DD
:10320000DA607B681B685B4A93423AD15A4B9B69F0
:10321000594A43F480439361574B9B6903F48043BD
:10322000FB61FB69544B9B69534A43F00403936170
:10323000514B9B6903F00403BB61BB694FF40073FE
:103240003B6202237B620323FB6207F120031946E2
:103250004A4800F093FB4FF480633B6200237B629B
:103260000023BB6207F120031946444800F086FBA7
:1032700000220021252000F098FA252000F0B1FA64
:1032800074E07B681B683E4A934230D13A4BDB695D
:10329000394A43F40033D361374BDB6903F400331D
:1032A0007B617B69344B9B69334A43F00403936130
:1032B000314B9B6903F004033B613B6904233B6290
:1032C00002237B620323FB6207F1200319462B488C
:1032D00000F054FB08233B6200237B620023BB62A7
:1032E00007F120031946254800F048FB3EE07B68C3
:1032F0001B68244A934239D11F4BDB691E4A43F4B1
:103300008023D3611C4BDB6903F48023FB60FB68E3
:10331000194B9B69184A43F008039361164B9B694C
:1033200003F00803BB60BB684FF480633B62022379
:103330007B620323FB6207F120031946124800F069
:103340001DFB4FF400633B6200237B620023BB62E2
:1033500007F1200319460C4800F010FB0022002161
:10336000272000F022FA272000F03BFA00BF303778
:10337000BD4680BD003801400010024000080140F9
:103380000044004000480040000C014080B400AF01
:10339000FEE780B400AFFEE780B400AFFEE780B484
:1033A00000AFFEE780B400AFFEE780B400AF00BF1F
:1033B000BD4680BC704780B400AF00BFBD4680BC36
:1033C000704780B400AF00BFBD4680BC704780B579
:1033D00000AF00F0D3F800BF80BD000080B500AFA3
:1033E000024801F041FF00BF80BD00BFE4000020A3
:1033F00080B500AF024801F037FF00BF80BD00BFBD
:103400002C01002080B500AF024802F08BFD00BF08
:1034100080BD00BF7401002080B500AF024802F0FB
:1034200081FD00BF80BD00BF0402002080B586B0D2
:1034300000AF7860144A154BD31A7B617B693B61FE
:10344000134B1B68002B02D1114B124A1A60104B10
:103450001A687B6813443A699A4207D203F0FCFB6E
:1034600003460C221A604FF0FF3309E0084B1B683B
:10347000FB60074B1A687B681344054A1360FB68BE
:1034800018461837BD4680BD0050002000040000DB
:103490005C030020B004002080B400AF00BFBD4634
:1034A00080BC7047FFF7F8FF0B480C490C4A00231B
:1034B00002E0D458C4500433C4188C42F9D3094AEA
:1034C000094C002301E013600432A242FBD303F055
:1034D000C9FBFDF735FA704700000020740000209A
:1034E0006C76000874000020AC040020FEE70000A9
:1034F00080B500AF084B1B68074A43F01003136008
:10350000032000F047F90F2000F008F8FFF780FDD6
:103510000023184680BD00BF0020024080B582B065
:1035200000AF7860124B1A68124B1B7819464FF4A3
:103530007A73B3FBF1F3B2FBF3F3184600F05FF9D3
:103540000346002B01D001230EE07B680F2B0AD825
:10355000002279684FF0FF3000F027F9064A7B68B7
:103560001360002300E0012318460837BD4680BDE4
:1035700018000020200000201C00002080B400AFB4
:10358000054B1B781A46054B1B681344034A13600E
:1035900000BFBD4680BC70472000002060030020B3
:1035A00080B400AF024B1B681846BD4680BC704714
:1035B0006003002080B584B000AF7860FFF7F0FFB3
:1035C000B8607B68FB60FB68B3F1FF3F05D00A4B36
:1035D0001B781A46FB681344FB6000BFFFF7E0FF4F
:1035E0000246BB68D31AFA689A42F7D800BF00BFF8
:1035F0001037BD4680BD00BF2000002080B485B0DC
:1036000000AF78607B6803F00703FB600C4BDB685E
:10361000BB60BA684FF6FF031340BB60FB681A0239
:10362000BB68134343F0BF6343F40033BB60044AF9
:10363000BB68D36000BF1437BD4680BC704700BF75
:1036400000ED00E080B400AF044BDB681B0A03F020
:1036500007031846BD4680BC704700BF00ED00E080
:1036600080B483B000AF0346FB7197F90730002B9D
:103670000BDBFB7903F01F02064997F907305B0962
:10368000012000FA02F241F8232000BF0C37BD46AA
:1036900080BC704700E100E080B483B000AF034617
:1036A0003960FB7197F90730002B0ADB3B68DAB20F
:1036B0000C4997F907301201D2B20B4483F800236A
:1036C0000AE03B68DAB20849FB7903F00F03043BD8
:1036D0001201D2B20B441A7600BF0C37BD4680BC33
:1036E000704700BF00E100E000ED00E080B489B069
:1036F00000AFF860B9607A60FB6803F00703FB6114
:10370000FB69C3F10703042B28BF0423BB61FB69DA
:103710000433062B02D9FB69033B00E000237B61E5
:103720004FF0FF32BB6902FA03F3DA43BB681A4079
:103730007B699A404FF0FF317B6901FA03F3D9436B
:103740007B680B40134318462437BD4680BC704746
:1037500080B582B000AF78607B68013BB3F1807FB9
:1037600001D301230FE00A4A7B68013B53600F211C
:103770004FF0FF30FFF790FF054B00229A60044B9B
:1037800007221A60002318460837BD4680BD00BFD7
:1037900010E000E080B582B000AF78607868FFF795
:1037A0002DFF00BF0837BD4680BD80B586B000AF95
:1037B0000346B9607A60FB7300237B61FFF742FF29
:1037C00078617A68B9687869FFF790FF024697F9DF
:1037D0000F3011461846FFF75FFF00BF1837BD4690
:1037E00080BD80B582B000AF0346FB7197F907300A
:1037F0001846FFF735FF00BF0837BD4680BD80B5CE
:1038000082B000AF78607868FFF7A2FF03461846E1
:103810000837BD4680BD80B485B000AF7860002316
:10382000FB737B6893F82130DBB2022B08D07B68F6
:1038300004229A637B68002283F82020012320E081
:103840007B681B681A687B681B6822F00E021A608E
:103850007B681B681A687B681B6822F001021A608B
:103860007B681A6C7B68DB6B012101FA02F25A60FB
:103870007B68012283F821207B68002283F82020C6
:10388000FB7B18461437BD4680BC704780B584B0BA
:1038900000AF78600023FB737B6893F82130DBB2C4
:1038A000022B05D07B6804229A630123FB7351E04D
:1038B0007B681B681A687B681B6822F00E021A601E
:1038C0007B681B681A687B681B6822F001021A601B
:1038D0007B681B68224A934229D07B681B68214A77
:1038E000934222D07B681B681F4A93421AD07B68A0
:1038F0001B681E4A934212D07B681B681C4A934285
:103900000AD07B681B681B4A934202D14FF4801394
:103910000EE04FF080730BE04FF4803308E04FF47B
:10392000805305E04FF4807302E0102300E0012390
:10393000114A53607B68012283F821207B680022B2
:1039400083F820207B685B6B002B03D07B685B6B6C
:1039500078689847FB7B18461037BD4680BD00BF8E
:10396000080002401C0002403000024044000240B7
:10397000580002406C0002400000024080B48BB04E
:1039800000AF7860396000237B6200233B6269E10D
:1039900001227B6A02FA03F3FB613B681B68FA6948
:1039A0001340BB61BA69FB699A4240F058813B6899
:1039B0005B689A4A93425ED0984A934275D8984A77
:1039C000934258D0964A93426FD8964A934252D027
:1039D000944A934269D8944A93424CD0924A934273
:1039E00063D8924A934246D0904A93425DD8122BB4
:1039F0002AD8122B59D801A252F823F0773A00089E
:103A0000513A0008633A0008A53A0008AB3A0008AA
:103A1000AB3A0008AB3A0008AB3A0008AB3A0008F2
:103A2000AB3A0008AB3A0008AB3A0008AB3A0008E2
:103A3000AB3A0008AB3A0008AB3A0008AB3A0008D2
:103A4000593A00086D3A0008794A934213D02CE0A5
:103A50003B68DB683B6229E03B68DB6804333B6220
:103A600024E03B68DB6808333B621FE03B68DB68AF
:103A70000C333B621AE03B689B68002B02D10423A5
:103A80003B6213E03B689B68012B05D108233B6236
:103A90007B68FA691A6109E008233B627B68FA696E
:103AA0005A6103E000233B6200E000BFBB69FF2BCB
:103AB00001D87B6801E07B6804337B61BB69FF2B25
:103AC00002D87B6A9B0002E07B6A083B9B003B615B
:103AD0007B691A680F213B6901FA03F3DB431A4043
:103AE000396A3B6901FA03F31A437B691A603B6840
:103AF0005B6803F08053002B00F0B1804D4B9B6955
:103B00004C4A43F0010393614A4B9B6903F0010364
:103B1000BB60BB68484A7B6A9B08023352F823307B
:103B2000FB607B6A03F003039B000F2202FA03F39E
:103B3000DB43FA681340FB607B68404A934213D032
:103B40007B683F4A93420DD07B683E4A934207D040
:103B50007B683D4A934201D1032306E0042304E03D
:103B6000022302E0012300E000237A6A02F003024C
:103B700092009340FA681343FB602F497B6A9B08CD
:103B80000233FA6841F823203B685B6803F4801332
:103B9000002B06D02D4B9A682C49BB6913438B60D0
:103BA00006E02A4B9A68BB69DB43284913408B60C7
:103BB0003B685B6803F40013002B06D0234BDA68E4
:103BC0002249BB691343CB6006E0204BDA68BB692E
:103BD000DB431E491340CB603B685B6803F4003352
:103BE000002B06D0194B5A681849BB6913434B6028
:103BF00006E0164B5A68BB69DB43144913404B601F
:103C00003B685B6803F48033002B21D00F4B1A68AC
:103C10000E49BB6913430B6021E000BF0000321066
:103C200000003110000022100000211000001210CE
:103C30000000111000100240000001400008014087
:103C4000000C01400010014000140140000401403C
:103C50000B4B1A68BB69DB43094913400B607B6A55
:103C600001337B623B681A687B6A22FA03F3002BFC
:103C70007FF48EAE00BF00BF2C37BD4680BC7047BE
:103C80000004014080B485B000AF78600B467B80B3
:103C90007B689A687B881340002B02D00123FB735A
:103CA00001E00023FB73FB7B18461437BD4680BC44
:103CB000704780B483B000AF78600B467B801346BA
:103CC0007B707B78002B03D07A887B681A6103E0D5
:103CD0007B881A047B681A6100BF0C37BD4680BC24
:103CE000704780B485B000AF78600B467B807B68FE
:103CF000DB68FB607A88FB6813401A04FB68D943D1
:103D00007B880B401A437B681A6100BF1437BD469D
:103D100080BC704780B584B000AF78607B68002BB2
:103D200001D101232BE17B6893F83D30DBB2002BFE
:103D300006D17B68002283F83C207868FFF79AF967
:103D40007B68242283F83D207B681B681A687B68A7
:103D50001B6822F001021A607B681B681A687B6886
:103D60001B6842F400421A607B681B681A687B6813
:103D70001B6822F400421A6001F032F8F8607B6898
:103D80005B68814A934207D8FB68804A934294BF9C
:103D900001230023DBB206E0FB687D4A934294BF17
:103DA00001230023DBB2002B01D00123E7E0FB68F5
:103DB000784AA2FB03239B0CBB607B681B685B6893
:103DC00023F03F017B681B68BA680A435A607B682E
:103DD0001B681B6A23F03F017B685B686A4A934259
:103DE00002D8BB68013309E0BB684FF4967202FB4E
:103DF00003F3694AA2FB03239B0901337A68126823
:103E00000B4313627B681B68DB6923F44F4222F08B
:103E1000FF027B685B685C498B4219D8FB68591EBE
:103E20007B685B685B00B1FBF3F3591C40F6FC73E5
:103E30000B40002B0AD0FB68591E7B685B685B0057
:103E4000B1FBF3F30133C3F30B0351E004234FE061
:103E50007B689B68002B11D1FB68581E7B685968F2
:103E60000B465B000B44B0FBF3F30133C3F30B03CE
:103E7000002B0CBF01230023DBB212E0FB68581EAD
:103E80007B6859680B469B000B4499000B44B0FBC0
:103E9000F3F30133C3F30B03002B0CBF0123002307
:103EA000DBB2002B01D0012322E07B689B68002B52
:103EB0000ED1FB68581E7B6859680B465B000B44AB
:103EC000B0FBF3F30133C3F30B0343F400430FE000
:103ED000FB68581E7B6859680B469B000B44990091
:103EE0000B44B0FBF3F30133C3F30B0343F4404340
:103EF000796809681343CB617B681B681B6823F0F2
:103F0000C0017B68DA697B681B6A1A437B681B689F
:103F10000A431A607B681B689B6823F4034323F001
:103F2000FF037A6811697A68D26811437A68126867
:103F30000B4393607B681B68DB6823F0FF017B68A1
:103F40005A697B689B691A437B681B680A43DA607D
:103F50007B681B681A687B681B6842F001021A6064
:103F60007B6800221A647B68202283F83D207B68EE
:103F700000221A637B68002283F83E200023184643
:103F80001037BD4680BD00BFA08601007F841E00A3
:103F9000FF083D0083DE1B43D34D621080B588B01F
:103FA00002AFF8607A601A460B467B8113463B816C
:103FB000FFF7F6FA7861FB6893F83D30DBB2202B0F
:103FC00040F0E0807B690093192301227049F86872
:103FD00000F064F90346002B01D00223D3E0FB6814
:103FE00093F83C30012B01D10223CCE0FB68012285
:103FF00083F83C20FB681B681B6803F00103012B5E
:1040000007D0FB681B681A68FB681B6842F0010256
:104010001A60FB681B681A68FB681B6822F4006260
:104020001A60FB68212283F83D20FB68102283F888
:104030003E20FB6800221A64FB687A685A62FB68BB
:104040003A895A85FB685B8D9AB2FB681A85FB68D2
:10405000504ADA6279897B693A6AF86800F09CF81C
:104060000346002B01D001238DE000233B61FB6858
:104070001B685B693B61FB681B689B693B613B6933
:1040800066E07A69396AF86800F022FA0346002B84
:104090000DD0FB681B6C042B07D1FB681B681A68EA
:1040A000FB681B6842F400721A6001236BE0FB6836
:1040B0005B6A1A78FB681B681A61FB685B6A5A1CAA
:1040C000FB685A62FB685B8D9BB2013B9AB2FB684E
:1040D0005A85FB681B8D013B9AB2FB681A85FB6809
:1040E0001B685B6903F00403042B1BD1FB681B8D69
:1040F000002B17D0FB685B6A1A78FB681B681A6193
:10410000FB685B6A5A1CFB685A62FB685B8D9BB25A
:10411000013B9AB2FB685A85FB681B8D013B9AB242
:10412000FB681A857A69396AF86800F019FA03465B
:10413000002B0DD0FB681B6C042B07D1FB681B68A0
:104140001A68FB681B6842F400721A6001231AE0C7
:10415000FB681B8D002B94D1FB681B681A68FB68F9
:104160001B6842F400721A60FB68202283F83D202D
:10417000FB68002283F83E20FB68002283F83C2085
:10418000002300E0022318461837BD4680BD00BF5B
:10419000020010000000FFFF80B588B002AFF86099
:1041A0007A603B600B467B81FB68DB6A7B617B69E5
:1041B000082B06D07B69012B03D07B6913F5803F68
:1041C00008D1FB681B681A68FB681B6842F48072A0
:1041D0001A600BE0FB681B6B122B07D1FB681B6896
:1041E0001A68FB681B6842F480721A603B6800938F
:1041F0007B6800224FF00111F86800F04FF8034689
:10420000002B0DD0FB681B681B6803F48073B3F5AB
:10421000807F03D1FB684FF400721A64032335E0FA
:10422000FB681B69B3F5804F08D17B89DBB21A4666
:10423000FB681B6802F0FE021A611BE07B89DB1140
:10424000DBB203F00603DBB263F00F03DAB2FB6804
:104250001B681A613B687A680E49F86800F098F8A4
:104260000346002B01D0012310E07B89DAB2FB6802
:104270001B681A613B687A680749F86800F088F89B
:104280000346002B01D0012300E000231846183715
:10429000BD4680BD080001000200010080B584B069
:1042A00000AFF860B9603B601346FB7148E03B68C3
:1042B000B3F1FF3F44D0FFF773F90246BB69D31A4D
:1042C0003A689A4202D33B68002B39D1BB681B0C79
:1042D000DBB2012B0DD1FB681B685B69DA43BB685D
:1042E00013409BB2002B0CBF01230023DBB21A4604
:1042F0000CE0FB681B689B69DA43BB6813409BB208
:10430000002B0CBF01230023DBB21A46FB799A4233
:1043100016D1FB6800221A63FB68202283F83D2037
:10432000FB68002283F83E20FB681B6C43F02002F0
:10433000FB681A64FB68002283F83C20012323E019
:10434000BB681B0CDBB2012B0DD1FB681B685B69E2
:10435000DA43BB6813409BB2002B0CBF0123002340
:10436000DBB21A460CE0FB681B689B69DA43BB684A
:1043700013409BB2002B0CBF01230023DBB21A4673
:10438000FB799A4293D0002318461037BD4680BD72
:1043900080B584B000AFF860B9607A603B6071E0CE
:1043A000FB681B685B6903F48063B3F5806F23D1FE
:1043B000FB681B681A68FB681B6842F400721A608D
:1043C000FB681B686FF480625A61FB6800221A6305
:1043D000FB68202283F83D20FB68002283F83E2002
:1043E000FB681B6C43F00402FB681A64FB68002244
:1043F00083F83C20012367E07B68B3F1FF3F41D0A5
:10440000FFF7CEF802463B68D31A7A689A4202D385
:104410007B68002B36D1BB681B0CDBB2012B0CD1A7
:10442000FB681B685B69DA43BB6813409BB2002BD7
:1044300014BF01230023DBB20BE0FB681B689B6900
:10444000DA43BB6813409BB2002B14BF0123002347
:10445000DBB2002B16D0FB6800221A63FB68202217
:1044600083F83D20FB68002283F83E20FB681B6C2C
:1044700043F02002FB681A64FB68002283F83C20AA
:10448000012321E0BB681B0CDBB2012B0CD1FB68C4
:104490001B685B69DA43BB6813409BB2002B14BFF7
:1044A00001230023DBB20BE0FB681B689B69DA4346
:1044B000BB6813409BB2002B14BF01230023DBB267
:1044C000002B7FF46DAF002318461037BD4680BD2A
:1044D00080B584B000AFF860B9607A6034E0F86805
:1044E00000F086F80346002B01D0012334E0BB68BE
:1044F000B3F1FF3F28D0FFF753F802467B68D31A89
:10450000BA689A4202D3BB68002B1DD1FB681B68B6
:104510005B6903F08003802B16D0FB6800221A63CE
:10452000FB68202283F83D20FB68002283F83E20B0
:10453000FB681B6C43F02002FB681A64FB680022D6
:1045400083F83C20012307E0FB681B685B6903F0EC
:104550008003802BC3D1002318461037BD4680BD91
:1045600080B584B000AFF860B9607A6034E0F86874
:1045700000F03EF80346002B01D0012334E0BB6875
:10458000B3F1FF3F28D0FFF70BF802467B68D31A40
:10459000BA689A4202D3BB68002B1DD1FB681B6826
:1045A0005B6903F00403042B16D0FB6800221A6336
:1045B000FB68202283F83D20FB68002283F83E2020
:1045C000FB681B6C43F02002FB681A64FB68002246
:1045D00083F83C20012307E0FB681B685B6903F05C
:1045E0000403042BC3D1002318461037BD4680BDF9
:1045F00080B483B000AF78607B681B685B6903F4AC
:104600008063B3F5806F1BD17B681B686FF4806299
:104610005A617B6800221A637B68202283F83D2060
:104620007B68002283F83E207B681B6C43F0040209
:104630007B681A647B68002283F83C20012300E039
:10464000002318460C37BD4680BC704780B586B045
:1046500000AF78607B68002B01D1012372E27B6898
:104660001B6803F00103002B00F08780924B5B680E
:1046700003F00C03042B0CD08F4B5B6803F00C038E
:10468000082B12D18C4B5B6803F48033B3F5803F69
:104690000BD1894B1B6803F40033002B6CD07B6873
:1046A0005B68002B68D101234CE27B685B68B3F543
:1046B000803F06D1804B1B687F4A43F480331360F0
:1046C0002EE07B685B68002B0CD17B4B1B687A4A21
:1046D00023F480331360784B1B68774A23F48023DC
:1046E00013601DE07B685B68B3F5A02F0CD1724BA3
:1046F0001B68714A43F4802313606F4B1B686E4A3A
:1047000043F4803313600BE06B4B1B686A4A23F45D
:1047100080331360684B1B68674A23F4802313605F
:104720007B685B68002B13D0FEF73AFF386108E026
:10473000FEF736FF02463B69D31A642B01D90323E7
:1047400000E25D4B1B6803F40033002BF0D014E053
:10475000FEF726FF386108E0FEF722FF02463B69BC
:10476000D31A642B01D90323ECE1534B1B6803F4E8
:104770000033002BF0D100E000BF7B681B6803F022
:104780000203002B63D04C4B5B6803F00C03002B3F
:104790000BD0494B5B6803F00C03082B1CD1464B34
:1047A0005B6803F48033002B16D1434B1B6803F086
:1047B0000203002B05D07B681B69012B01D001236C
:1047C000C0E13D4B1B6823F0F8027B685B69DB00AE
:1047D000394913430B603AE07B681B69002B20D0FA
:1047E000364B01221A60FEF7DBFE386108E0FEF767
:1047F000D7FE02463B69D31A022B01D90323A1E15C
:104800002D4B1B6803F00203002BF0D02A4B1B68D2
:1048100023F0F8027B685B69DB00274913430B60D8
:1048200015E0264B00221A60FEF7BAFE386108E058
:10483000FEF7B6FE02463B69D31A022B01D90323C9
:1048400080E11D4B1B6803F00203002BF0D17B6855
:104850001B6803F00803002B3AD07B689B69002B90
:1048600019D0174B01221A60FEF79AFE386108E052
:10487000FEF796FE02463B69D31A022B01D90323A9
:1048800060E10D4B5B6A03F00203002BF0D00120C6
:1048900000F0CEFA1CE00A4B00221A60FEF780FE00
:1048A00038610FE0FEF77CFE02463B69D31A022B0B
:1048B00008D9032346E100BF001002400000424235
:1048C00080044242924B5B6A03F00203002BE9D161
:1048D0007B681B6803F00403002B00F0A680002314
:1048E000FB758B4BDB6903F08053002B0DD1884B9C
:1048F000DB69874A43F08053D361854BDB6903F062
:104900008053BB60BB680123FB75824B1B6803F4BB
:104910008073002B18D17F4B1B687E4A43F4807351
:104920001360FEF73DFE386108E0FEF739FE0246EF
:104930003B69D31A642B01D9032303E1754B1B6830
:1049400003F48073002BF0D07B68DB68012B06D169
:104950006F4B1B6A6E4A43F0010313622DE07B68C4
:10496000DB68002B0CD16A4B1B6A694A23F00103F8
:104970001362674B1B6A664A23F0040313621CE050
:104980007B68DB68052B0CD1614B1B6A604A43F0E6
:10499000040313625E4B1B6A5D4A43F0010313621A
:1049A0000BE05B4B1B6A5A4A23F001031362584B1E
:1049B0001B6A574A23F0040313627B68DB68002BF1
:1049C00015D0FEF7EDFD38610AE0FEF7E9FD02467D
:1049D0003B69D31A41F28832934201D90323B1E0F3
:1049E0004B4B1B6A03F00203002BEED014E0FEF7E2
:1049F000D7FD38610AE0FEF7D3FD02463B69D31AC2
:104A000041F28832934201D903239BE0404B1B6A59
:104A100003F00203002BEED1FB7D012B05D13C4BB3
:104A2000DB693B4A23F08053D3617B68DB69002B51
:104A300000F08780364B5B6803F00C03082B61D0D5
:104A40007B68DB69022B46D1334B00221A60FEF7EC
:104A5000A7FD386108E0FEF7A3FD02463B69D31AC3
:104A6000022B01D903236DE0294B1B6803F000736F
:104A7000002BF0D17B681B6AB3F5803F08D1244B33
:104A80005B6823F400327B689B68214913434B60C9
:104A90001F4B5B6823F474127B68196A7B685B6A3E
:104AA0000B431B4913434B601B4B01221A60FEF75B
:104AB00077FD386108E0FEF773FD02463B69D31AC3
:104AC000022B01D903233DE0114B1B6803F0007357
:104AD000002BF0D035E0104B00221A60FEF760FD8D
:104AE000386108E0FEF75CFD02463B69D31A022BF1
:104AF00001D9032326E0064B1B6803F00073002B4B
:104B0000F0D11EE07B68DB69012B07D1012319E09E
:104B10000010024000700040600042420B4B5B6896
:104B2000FB60FB6803F480327B681B6A9A4206D103
:104B3000FB6803F470127B685B6A9A4201D0012320
:104B400000E0002318461837BD4680BD0010024023
:104B500080B584B000AF786039607B68002B01D1EC
:104B60000123D0E06A4B1B6803F007033A689A42BE
:104B700010D9674B1B6823F0070265493B68134354
:104B80000B60634B1B6803F007033A689A4201D03D
:104B90000123B8E07B681B6803F00203002B20D0E0
:104BA0007B681B6803F00403002B05D0594B5B683E
:104BB000584A43F4E06353607B681B6803F00803C2
:104BC000002B05D0534B5B68524A43F4605353604B
:104BD000504B5B6823F0F0027B689B684D491343A0
:104BE0004B607B681B6803F00103002B40D07B689F
:104BF0005B68012B07D1474B1B6803F40033002B84
:104C000015D101237FE07B685B68022B07D1414B04
:104C10001B6803F00073002B09D1012373E03D4BA7
:104C20001B6803F00203002B01D101236BE0394B19
:104C30005B6823F003027B685B68364913434B6073
:104C4000FEF7AEFCF8600AE0FEF7AAFC0246FB683D
:104C5000D31A41F28832934201D9032353E02D4BFA
:104C60005B6803F00C027B685B689B009A42EBD1A7
:104C7000274B1B6803F007033A689A4210D2244B73
:104C80001B6823F0070222493B6813430B60204B4B
:104C90001B6803F007033A689A4201D0012332E00F
:104CA0007B681B6803F00403002B08D0194B5B687A
:104CB00023F4E0627B68DB68164913434B607B6832
:104CC0001B6803F00803002B09D0124B5B6823F428
:104CD00060527B681B69DB000E4913434B6000F098
:104CE00021F802460B4B5B681B0903F00F030A49CE
:104CF000CB5C22FA03F3094A1360094B1B68184680
:104D0000FEF70CFC002318461037BD4680BD00BFDF
:104D10000020024000100240047600081800002025
:104D20001C00002080B487B000AF0023FB6000238C
:104D3000BB6000237B6100237B6000233B611E4B33
:104D40005B68FB60FB6803F00C03042B02D0082BAC
:104D500003D027E0194B3B6127E0FB689B0C03F075
:104D60000F03174AD35C7B60FB6803F48033002B8E
:104D700010D0114B5B685B0C03F00103114AD35C4C
:104D8000BB607B680D4A03FB02F2BB68B2FBF3F326
:104D90007B6104E07B680C4A02FB03F37B617B6967
:104DA0003B6102E0054B3B6100BF3B6918461C3785
:104DB000BD4680BC704700BF0010024000127A0060
:104DC0001C7600082C76000800093D0080B400AF76
:104DD000024B1B681846BD4680BC70471800002077
:104DE00080B500AFFFF7F2FF0246054B5B681B0A78
:104DF00003F007030349CB5C22FA03F3184680BD96
:104E0000001002401476000880B500AFFFF7DEFF07
:104E10000246054B5B68DB0A03F007030349CB5CE2
:104E200022FA03F3184680BD0010024014760008F1
:104E300080B485B000AF78600A4B1B680A4AA2FBB9
:104E400003235B0A7A6802FB03F3FB6000BFFB6885
:104E50005A1EFA60002BF9D100BF00BF1437BD46BF
:104E600080BC704718000020D34D621080B582B01E
:104E700000AF78607B68002B01D1012341E07B68A3
:104E800093F83D30DBB2002B06D17B68002283F81B
:104E90003C207868FEF786F97B68022283F83D2083
:104EA0007B681A687B6804331946104600F0A8FC3A
:104EB0007B68012283F846207B68012283F83E202C
:104EC0007B68012283F83F207B68012283F8402021
:104ED0007B68012283F841207B68012283F842200D
:104EE0007B68012283F843207B68012283F84420F9
:104EF0007B68012283F845207B68012283F83D20EE
:104F0000002318460837BD4680BD000080B485B038
:104F100000AF78607B6893F83D30DBB2012B01D0A5
:104F200001233AE07B68022283F83D207B681B68FE
:104F3000DA687B681B6842F00102DA607B681B68F4
:104F4000184A93420ED07B681B68B3F1804F09D09A
:104F50007B681B68144A934204D07B681B68134A21
:104F6000934211D17B681B689B6803F00703FB60C9
:104F7000FB68062B10D07B681B681A687B681B686F
:104F800042F001021A6007E07B681B681A687B68C0
:104F90001B6842F001021A60002318461437BD4610
:104FA00080BC7047002C0140000400400008004015
:104FB00080B582B000AF78607B68002B01D10123FF
:104FC00041E07B6893F83D30DBB2002B06D17B6873
:104FD000002283F83C207868FEF79CF87B68022268
:104FE00083F83D207B681A687B68043319461046B5
:104FF00000F006FC7B68012283F846207B680122D2
:1050000083F83E207B68012283F83F207B680122E1
:1050100083F840207B68012283F841207B680122CD
:1050200083F842207B68012283F843207B680122B9
:1050300083F844207B68012283F845207B680122A5
:1050400083F83D20002318460837BD4680BD000088
:1050500080B584B000AF786039600023FB733B6893
:10506000002B04D17B6893F83E30DBB213E03B6841
:10507000042B04D17B6893F83F30DBB20BE03B6834
:10508000082B04D17B6893F84030DBB203E07B68E7
:1050900093F84130DBB2BB733B68002B04D17B68D3
:1050A00093F84230DBB213E03B68042B04D17B68F9
:1050B00093F84330DBB20BE03B68082B04D17B68EC
:1050C00093F84430DBB203E07B6893F84530DBB201
:1050D0007B73BB7B012B02D17B7B012B01D0012396
:1050E000B8E03B68002B04D17B68022283F83E20A5
:1050F00013E03B68042B04D17B68022283F83F2035
:105100000BE03B68082B04D17B68022283F8402027
:1051100003E07B68022283F841203B68002B04D126
:105120007B68022283F8422013E03B68042B04D101
:105130007B68022283F843200BE03B68082B04D1F4
:105140007B68022283F8442003E07B68022283F814
:1051500045203B680C2B41D801A252F823F000BF38
:1051600095510008DD510008DD510008DD510008AF
:10517000A7510008DD510008DD510008DD5100088D
:10518000B9510008DD510008DD510008DD5100086B
:10519000CB5100087B681B68DA687B681B6842F0AB
:1051A0000202DA601DE07B681B68DA687B681B68B6
:1051B00042F00402DA6014E07B681B68DA687B68FE
:1051C0001B6842F00802DA600BE07B681B68DA6853
:1051D0007B681B6842F01002DA6002E00123FB7377
:1051E00000BFFB7B002B34D17B681B680122396830
:1051F000184600F00AFD7B681B68184A93420ED0DF
:105200007B681B68B3F1804F09D07B681B68144A28
:10521000934204D07B681B68124A934211D17B6889
:105220001B689B6803F00703BB60BB68062B10D0AC
:105230007B681B681A687B681B6842F001021A6071
:1052400007E07B681B681A687B681B6842F00102F4
:105250001A60FB7B18461037BD4680BD002C01400C
:10526000000400400008004080B582B000AF7860C4
:105270007B681B681B6903F00203022B22D17B6849
:105280001B68DB6803F00203022B1BD17B681B68E1
:105290006FF002021A617B6801221A777B681B6833
:1052A0009B6903F00303002B03D07868FDF7ACFC87
:1052B00005E0786800F088FA786800F08EFA7B687C
:1052C00000221A777B681B681B6903F00403042B18
:1052D00022D17B681B68DB6803F00403042B1BD11D
:1052E0007B681B686FF004021A617B6802221A77E0
:1052F0007B681B689B6903F44073002B03D07868BC
:10530000FDF782FC05E0786800F05EFA786800F04E
:1053100064FA7B6800221A777B681B681B6903F0BC
:105320000803082B22D17B681B68DB6803F00803A5
:10533000082B1BD17B681B686FF008021A617B6821
:1053400004221A777B681B68DB6903F00303002BD8
:1053500003D07868FDF758FC05E0786800F034FA6F
:10536000786800F03AFA7B6800221A777B681B683D
:105370001B6903F01003102B22D17B681B68DB68CC
:1053800003F01003102B1BD17B681B686FF0100219
:105390001A617B6808221A777B681B68DB6903F453
:1053A0004073002B03D07868FDF72EFC05E0786889
:1053B00000F00AFA786800F010FA7B6800221A7789
:1053C0007B681B681B6903F00103012B0ED17B680E
:1053D0001B68DB6803F00103012B07D17B681B68A6
:1053E0006FF001021A617868FDF796FA7B681B6816
:1053F0001B6903F08003802B0ED17B681B68DB6880
:1054000003F08003802B07D17B681B686FF080025C
:105410001A61786800F085FC7B681B681B6903F0E3
:105420004003402B0ED17B681B68DB6803F0400310
:10543000402B07D17B681B686FF040021A617868C7
:1054400000F0D4F97B681B681B6903F02003202B54
:105450000ED17B681B68DB6803F02003202B07D18B
:105460007B681B686FF020021A61786800F050FCBE
:1054700000BF0837BD4680BD80B586B000AFF8607C
:10548000B9607A600023FB75FB6893F83C30012B10
:1054900001D1022388E0FB68012283F83C207B686D
:1054A000002B1BD1FB681868BB681968BB685A6879
:1054B000BB68DB6800F006FAFB681B689A69FB684A
:1054C0001B6822F00C029A61FB681B689969BB6833
:1054D0009A68FB681B680A439A6160E07B68042B4A
:1054E0001CD1FB681868BB681968BB685A68BB6840
:1054F000DB6800F06FFAFB681B689A69FB681B6841
:1055000022F440629A61FB681B689969BB689B68DA
:105510001A02FB681B680A439A6140E07B68082B0B
:105520001BD1FB681868BB681968BB685A68BB6800
:10553000DB6800F0BAFAFB681B68DA69FB681B6875
:1055400022F00C02DA61FB681B68D969BB689A68B3
:10555000FB681B680A43DA6121E07B680C2B1CD1D5
:10556000FB681868BB681968BB685A68BB68DB6869
:1055700000F0D6FAFB681B68DA69FB681B6822F446
:105580004062DA61FB681B68D969BB689B681A02D4
:10559000FB681B680A43DA6101E00123FB75FB68C5
:1055A000002283F83C20FB7D18461837BD4680BD9D
:1055B00080B584B000AF786039600023FB737B68EE
:1055C00093F83C30012B01D10223B4E07B68012227
:1055D00083F83C207B68022283F83D207B681B68AF
:1055E0009B68BB60BB6823F07703BB60BB6823F498
:1055F0007F43BB607B681B68BA689A603B681B6826
:10560000B3F5005F3ED0B3F5005F00F28780B3F5DD
:10561000805F00F08680B3F5805F7FD8702B1AD052
:10562000702B7BD8602B50D0602B77D8502B3CD080
:10563000502B73D8402B58D0402B6FD8302B64D0D0
:10564000302B6BD8202B60D0202B67D8002B5CD060
:10565000102B5AD062E07B6818683B6899683B68F9
:105660005A683B68DB6800F0B1FA7B681B689B688E
:10567000BB60BB6843F07703BB607B681B68BA689C
:105680009A604FE07B6818683B6899683B685A6885
:105690003B68DB6800F09AFA7B681B689A687B6855
:1056A0001B6842F480429A603CE07B6818683B6863
:1056B00059683B68DB681A4600F05EF97B681B6836
:1056C0005021184600F068FA2CE07B6818683B68A7
:1056D00059683B68DB681A4600F0B8F97B681B68BC
:1056E0006021184600F058FA1CE07B6818683B6897
:1056F00059683B68DB681A4600F03EF97B681B6816
:105700004021184600F048FA0CE07B681A683B68B4
:105710001B681946104600F03FFA03E00123FB73B3
:1057200000E000BF7B68012283F83D207B680022F7
:1057300083F83C20FB7B18461037BD4680BD000037
:1057400080B485B000AF786039600023FB603B68AF
:105750000C2B31D801A252F823F000BF915700085A
:10576000B9570008B9570008B95700089B570008F7
:10577000B9570008B9570008B9570008A5570008DD
:10578000B9570008B9570008B9570008AF570008C3
:105790007B681B685B6BFB600FE07B681B689B6B27
:1057A000FB600AE07B681B68DB6BFB6005E07B68E5
:1057B0001B681B6CFB6000E000BFFB6818461437D9
:1057C000BD4680BC704700BF80B483B000AF786036
:1057D00000BF0C37BD4680BC704780B483B000AFBB
:1057E000786000BF0C37BD4680BC704780B483B082
:1057F00000AF786000BF0C37BD4680BC704700002A
:1058000080B485B000AF786039607B681B68FB604E
:105810007B68294A93420BD07B68B3F1804F07D055
:105820007B68264A934203D07B68254A934208D17D
:10583000FB6823F07003FB603B685B68FA68134306
:10584000FB607B681C4A93420BD07B68B3F1804FAE
:1058500007D07B68194A934203D07B68184A934269
:1058600008D1FB6823F44073FB603B68DB68FA688F
:105870001343FB60FB6823F080023B685B691343C2
:10588000FB607B68FA681A603B689A687B68DA623A
:105890003B681A687B689A627B68074A934203D127
:1058A0003B681A697B681A637B6801225A6100BFF2
:1058B0001437BD4680BC7047002C014000040040F6
:1058C0000008004080B487B000AFF860B9607A602B
:1058D0003B60FB681B6A3B61FB681B6A23F00102AB
:1058E000FB681A62FB689B697B61FB681F4A9342F5
:1058F0000BD0FB68B3F1804F07D0FB681C4A934282
:1059000003D0FB681B4A934201D1012300E000232E
:10591000002B08D07B6923F003037B617A697B68E5
:1059200013437B6103E07B6943F001037B617B6987
:1059300023F0F0037B613B681B01DBB27A69134300
:105940007B613B6923F00A033B61BB6803F00A03F8
:105950003A6913433B61FB687A699A61FB683A696B
:105960001A6200BF1C37BD4680BC7047002C014046
:10597000000400400008004080B487B000AFF86029
:10598000B9607A60FB681B6A7B61FB681B6A23F065
:105990000102FB681A62FB689B693B613B6923F06B
:1059A000F0033B617B681B013A6913433B617B69F0
:1059B00023F00A037B617A69BB6813437B61FB6850
:1059C0003A699A61FB687A691A6200BF1C37BD4662
:1059D00080BC704780B487B000AFF860B9607A606F
:1059E0003B60FB681B6A7B61FB681B6A23F010024B
:1059F000FB681A62FB689B693B613B6923F4407357
:105A00003B617B681B023A6913433B613B6923F4AA
:105A100070433B613B681B039BB23A6913433B6194
:105A20007B6923F0A0037B61BB681B0103F0A0032B
:105A30007A6913437B61FB683A699A61FB687A690A
:105A40001A6200BF1C37BD4680BC704780B487B067
:105A500000AFF860B9607A60FB681B6A7B61FB6825
:105A60001B6A23F01002FB681A62FB689B693B61AA
:105A70003B6923F470433B617B681B033A69134322
:105A80003B617B6923F0A0037B61BB681B017A69E2
:105A900013437B61FB683A699A61FB687A691A6211
:105AA00000BF1C37BD4680BC704780B487B000AFD4
:105AB000F860B9607A603B60FB681B6A7B61FB68D9
:105AC0001B6A23F48072FB681A62FB68DB693B6126
:105AD0003B6923F003033B613A697B6813433B61F5
